{
  "address": "0xD5361e341c3FbEb5f36f8c89940A9E55bdf22e23",
  "abi": [
    {
      "inputs": [
        {
          "internalType": "contract IGaslessEntryPoint",
          "name": "_entryPoint",
          "type": "address"
        }
      ],
      "stateMutability": "nonpayable",
      "type": "constructor"
    },
    {
      "anonymous": false,
      "inputs": [
        {
          "indexed": true,
          "internalType": "address",
          "name": "previousOwner",
          "type": "address"
        },
        {
          "indexed": true,
          "internalType": "address",
          "name": "newOwner",
          "type": "address"
        }
      ],
      "name": "OwnershipTransferred",
      "type": "event"
    },
    {
      "inputs": [
        {
          "internalType": "uint32",
          "name": "extraUnstakeDelaySec",
          "type": "uint32"
        }
      ],
      "name": "addStake",
      "outputs": [],
      "stateMutability": "payable",
      "type": "function"
    },
    {
      "inputs": [],
      "name": "deposit",
      "outputs": [],
      "stateMutability": "payable",
      "type": "function"
    },
    {
      "inputs": [],
      "name": "entryPoint",
      "outputs": [
        {
          "internalType": "contract IGaslessEntryPoint",
          "name": "",
          "type": "address"
        }
      ],
      "stateMutability": "view",
      "type": "function"
    },
    {
      "inputs": [],
      "name": "getDeposit",
      "outputs": [
        {
          "internalType": "uint256",
          "name": "",
          "type": "uint256"
        }
      ],
      "stateMutability": "view",
      "type": "function"
    },
    {
      "inputs": [],
      "name": "getTokenValue",
      "outputs": [
        {
          "internalType": "uint256",
          "name": "",
          "type": "uint256"
        }
      ],
      "stateMutability": "view",
      "type": "function"
    },
    {
      "inputs": [],
      "name": "owner",
      "outputs": [
        {
          "internalType": "address",
          "name": "",
          "type": "address"
        }
      ],
      "stateMutability": "view",
      "type": "function"
    },
    {
      "inputs": [],
      "name": "paymentToken",
      "outputs": [
        {
          "internalType": "address",
          "name": "token",
          "type": "address"
        },
        {
          "internalType": "uint256",
          "name": "rate",
          "type": "uint256"
        }
      ],
      "stateMutability": "view",
      "type": "function"
    },
    {
      "inputs": [
        {
          "internalType": "enum IGaslessPaymaster.PostOpMode",
          "name": "mode",
          "type": "uint8"
        },
        {
          "internalType": "bytes",
          "name": "context",
          "type": "bytes"
        },
        {
          "internalType": "uint256",
          "name": "actualGasCost",
          "type": "uint256"
        }
      ],
      "name": "postOp",
      "outputs": [],
      "stateMutability": "nonpayable",
      "type": "function"
    },
    {
      "inputs": [],
      "name": "renounceOwnership",
      "outputs": [],
      "stateMutability": "nonpayable",
      "type": "function"
    },
    {
      "inputs": [
        {
          "internalType": "contract IGaslessEntryPoint",
          "name": "_entryPoint",
          "type": "address"
        }
      ],
      "name": "setEntryPoint",
      "outputs": [],
      "stateMutability": "nonpayable",
      "type": "function"
    },
    {
      "inputs": [
        {
          "internalType": "address",
          "name": "newOwner",
          "type": "address"
        }
      ],
      "name": "transferOwnership",
      "outputs": [],
      "stateMutability": "nonpayable",
      "type": "function"
    },
    {
      "inputs": [],
      "name": "unlockStake",
      "outputs": [],
      "stateMutability": "nonpayable",
      "type": "function"
    },
    {
      "inputs": [
        {
          "components": [
            {
              "internalType": "address",
              "name": "token",
              "type": "address"
            },
            {
              "internalType": "uint256",
              "name": "rate",
              "type": "uint256"
            }
          ],
          "internalType": "struct GaslessERC20Paymaster.PaymentToken",
          "name": "_paymentToken",
          "type": "tuple"
        }
      ],
      "name": "updatePaymentToken",
      "outputs": [],
      "stateMutability": "nonpayable",
      "type": "function"
    },
    {
      "inputs": [
        {
          "components": [
            {
              "internalType": "address",
              "name": "callContract",
              "type": "address"
            },
            {
              "internalType": "bytes",
              "name": "callData",
              "type": "bytes"
            },
            {
              "internalType": "uint256",
              "name": "callGasLimit",
              "type": "uint256"
            },
            {
              "internalType": "uint256",
              "name": "verificationGasLimit",
              "type": "uint256"
            },
            {
              "internalType": "uint256",
              "name": "maxFeePerGas",
              "type": "uint256"
            },
            {
              "internalType": "uint256",
              "name": "maxPriorityFeePerGas",
              "type": "uint256"
            },
            {
              "internalType": "bytes",
              "name": "paymasterAndData",
              "type": "bytes"
            }
          ],
          "internalType": "struct UserOperation",
          "name": "userOp",
          "type": "tuple"
        }
      ],
      "name": "validatePaymasterUserOp",
      "outputs": [
        {
          "internalType": "bytes",
          "name": "context",
          "type": "bytes"
        },
        {
          "internalType": "uint256",
          "name": "deadline",
          "type": "uint256"
        }
      ],
      "stateMutability": "nonpayable",
      "type": "function"
    },
    {
      "inputs": [
        {
          "internalType": "address payable",
          "name": "withdrawAddress",
          "type": "address"
        }
      ],
      "name": "withdrawStake",
      "outputs": [],
      "stateMutability": "nonpayable",
      "type": "function"
    },
    {
      "inputs": [
        {
          "internalType": "address payable",
          "name": "withdrawAddress",
          "type": "address"
        },
        {
          "internalType": "uint256",
          "name": "amount",
          "type": "uint256"
        }
      ],
      "name": "withdrawTo",
      "outputs": [],
      "stateMutability": "nonpayable",
      "type": "function"
    }
  ],
  "transactionHash": "0x1a89a1f1a6538ab44c07e89d542c32c4db87e84503e6df0fff5c372d229ebc79",
  "args": [
    "0x791ec459f57362256f313f5512bdb9f6d7cae308"
  ],
  "numDeployments": 1,
  "solcInputHash": "610f7e3175da272e7beea43f939f1ae5",
  "bytecode": "0x60806040523480156200001157600080fd5b5060405162002d6d38038062002d6d8339818101604052810190620000379190620002c9565b80620000586200004c6200007160201b60201c565b6200007960201b60201c565b62000069816200013d60201b60201c565b50506200037e565b600033905090565b60008060009054906101000a900473ffffffffffffffffffffffffffffffffffffffff169050816000806101000a81548173ffffffffffffffffffffffffffffffffffffffff021916908373ffffffffffffffffffffffffffffffffffffffff1602179055508173ffffffffffffffffffffffffffffffffffffffff168173ffffffffffffffffffffffffffffffffffffffff167f8be0079c531659141344cd1fd0a4f28419497f9722a3daafe3b4186f6b6457e060405160405180910390a35050565b6200014d6200019160201b60201c565b80600160006101000a81548173ffffffffffffffffffffffffffffffffffffffff021916908373ffffffffffffffffffffffffffffffffffffffff16021790555050565b620001a16200007160201b60201c565b73ffffffffffffffffffffffffffffffffffffffff16620001c76200022260201b60201c565b73ffffffffffffffffffffffffffffffffffffffff161462000220576040517f08c379a000000000000000000000000000000000000000000000000000000000815260040162000217906200035c565b60405180910390fd5b565b60008060009054906101000a900473ffffffffffffffffffffffffffffffffffffffff16905090565b600080fd5b600073ffffffffffffffffffffffffffffffffffffffff82169050919050565b60006200027d8262000250565b9050919050565b6000620002918262000270565b9050919050565b620002a38162000284565b8114620002af57600080fd5b50565b600081519050620002c38162000298565b92915050565b600060208284031215620002e257620002e16200024b565b5b6000620002f284828501620002b2565b91505092915050565b600082825260208201905092915050565b7f4f776e61626c653a2063616c6c6572206973206e6f7420746865206f776e6572600082015250565b600062000344602083620002fb565b915062000351826200030c565b602082019050919050565b60006020820190508181036000830152620003778162000335565b9050919050565b6129df806200038e6000396000f3fe6080604052600436106100f35760003560e01c80638da5cb5b1161008a578063c23a5cea11610059578063c23a5cea146102d1578063c399ec88146102fa578063d0e30db014610325578063f2fde38b1461032f576100f3565b80638da5cb5b1461023b578063a9a2340914610266578063b0d691fe1461028f578063bb9fe6bf146102ba576100f3565b8063321a1567116100c6578063321a156714610194578063584465f2146101d2578063715018a6146101fb578063772dbdf714610212576100f3565b80630396cb60146100f857806306ffce5314610114578063205c28781461013f5780633013ce2914610168575b600080fd5b610112600480360381019061010d919061178e565b610358565b005b34801561012057600080fd5b5061012961048e565b60405161013691906117d4565b60405180910390f35b34801561014b57600080fd5b5061016660048036038101906101619190611879565b61049b565b005b34801561017457600080fd5b5061017d610536565b60405161018b9291906118da565b60405180910390f35b3480156101a057600080fd5b506101bb60048036038101906101b69190611927565b610568565b6040516101c9929190611a00565b60405180910390f35b3480156101de57600080fd5b506101f960048036038101906101f49190611a6e565b61084e565b005b34801561020757600080fd5b5061021061089a565b005b34801561021e57600080fd5b5061023960048036038101906102349190611aba565b6108ae565b005b34801561024757600080fd5b506102506108cb565b60405161025d9190611ae7565b60405180910390f35b34801561027257600080fd5b5061028d60048036038101906102889190611b8c565b6108f4565b005b34801561029b57600080fd5b506102a461090e565b6040516102b19190611c5f565b60405180910390f35b3480156102c657600080fd5b506102cf610934565b005b3480156102dd57600080fd5b506102f860048036038101906102f39190611c7a565b6109c0565b005b34801561030657600080fd5b5061030f610a58565b60405161031c91906117d4565b60405180910390f35b61032d610afb565b005b34801561033b57600080fd5b5061035660048036038101906103519190611cd3565b610b8b565b005b610360610c0e565b600160009054906101000a900473ffffffffffffffffffffffffffffffffffffffff1673ffffffffffffffffffffffffffffffffffffffff16630396cb603483600160009054906101000a900473ffffffffffffffffffffffffffffffffffffffff1673ffffffffffffffffffffffffffffffffffffffff1663390b99786040518163ffffffff1660e01b81526004016020604051808303816000875af115801561040f573d6000803e3d6000fd5b505050506040513d601f19601f820116820180604052508101906104339190611d15565b61043d9190611d71565b6040518363ffffffff1660e01b81526004016104599190611db8565b6000604051808303818588803b15801561047257600080fd5b505af1158015610486573d6000803e3d6000fd5b505050505050565b6000600260010154905090565b6104a3610c0e565b600160009054906101000a900473ffffffffffffffffffffffffffffffffffffffff1673ffffffffffffffffffffffffffffffffffffffff1663205c287883836040518363ffffffff1660e01b8152600401610500929190611de2565b600060405180830381600087803b15801561051a57600080fd5b505af115801561052e573d6000803e3d6000fd5b505050505050565b60028060000160009054906101000a900473ffffffffffffffffffffffffffffffffffffffff16908060010154905082565b60606000610574610c8c565b8260a001358360800135146105be576040517f08c379a00000000000000000000000000000000000000000000000000000000081526004016105b590611e68565b60405180910390fd5b60006105c861048e565b90506000848060c001906105dc9190611e97565b60149080926105ed93929190611f04565b8080601f016020809104026020016040519081016040528093929190818152602001838380828437600081840152601f19601f820116905080830192505050505050509050600061064561064083610ce8565b610d16565b9050600061066d826000815181106106605761065f611f3f565b5b6020026020010151610e2b565b90504281116106b1576040517f08c379a00000000000000000000000000000000000000000000000000000000081526004016106a890611fba565b60405180910390fd5b60006106d7836001815181106106ca576106c9611f3f565b5b6020026020010151610e2b565b90506000610709610702856002815181106106f5576106f4611f3f565b5b6020026020010151610e85565b6020610f18565b9050600061073b6107348660038151811061072757610726611f3f565b5b6020026020010151610e85565b6020610f18565b9050600260000160009054906101000a900473ffffffffffffffffffffffffffffffffffffffff1673ffffffffffffffffffffffffffffffffffffffff1663d505accf32308a888888886040518863ffffffff1660e01b81526004016107a7979695949392919061200f565b600060405180830381600087803b1580156107c157600080fd5b505af11580156107d5573d6000803e3d6000fd5b5050505061082b323089600260000160009054906101000a900473ffffffffffffffffffffffffffffffffffffffff1673ffffffffffffffffffffffffffffffffffffffff16610fa9909392919063ffffffff16565b600060405180602001604052806000815250909850985050505050505050915091565b610856610c0e565b80600160006101000a81548173ffffffffffffffffffffffffffffffffffffffff021916908373ffffffffffffffffffffffffffffffffffffffff16021790555050565b6108a2610c0e565b6108ac6000611032565b565b6108b6610c0e565b80600281816108c59190612203565b90505050565b60008060009054906101000a900473ffffffffffffffffffffffffffffffffffffffff16905090565b6108fc610c8c565b610908848484846110f6565b50505050565b600160009054906101000a900473ffffffffffffffffffffffffffffffffffffffff1681565b61093c610c0e565b600160009054906101000a900473ffffffffffffffffffffffffffffffffffffffff1673ffffffffffffffffffffffffffffffffffffffff1663bb9fe6bf6040518163ffffffff1660e01b8152600401600060405180830381600087803b1580156109a657600080fd5b505af11580156109ba573d6000803e3d6000fd5b50505050565b6109c8610c0e565b600160009054906101000a900473ffffffffffffffffffffffffffffffffffffffff1673ffffffffffffffffffffffffffffffffffffffff1663c23a5cea826040518263ffffffff1660e01b8152600401610a239190612211565b600060405180830381600087803b158015610a3d57600080fd5b505af1158015610a51573d6000803e3d6000fd5b5050505050565b6000600160009054906101000a900473ffffffffffffffffffffffffffffffffffffffff1673ffffffffffffffffffffffffffffffffffffffff166370a08231306040518263ffffffff1660e01b8152600401610ab59190611ae7565b602060405180830381865afa158015610ad2573d6000803e3d6000fd5b505050506040513d601f19601f82011682018060405250810190610af69190612241565b905090565b600160009054906101000a900473ffffffffffffffffffffffffffffffffffffffff1673ffffffffffffffffffffffffffffffffffffffff1663b760faf934306040518363ffffffff1660e01b8152600401610b579190611ae7565b6000604051808303818588803b158015610b7057600080fd5b505af1158015610b84573d6000803e3d6000fd5b5050505050565b610b93610c0e565b600073ffffffffffffffffffffffffffffffffffffffff168173ffffffffffffffffffffffffffffffffffffffff1603610c02576040517f08c379a0000000000000000000000000000000000000000000000000000000008152600401610bf9906122e0565b60405180910390fd5b610c0b81611032565b50565b610c16611131565b73ffffffffffffffffffffffffffffffffffffffff16610c346108cb565b73ffffffffffffffffffffffffffffffffffffffff1614610c8a576040517f08c379a0000000000000000000000000000000000000000000000000000000008152600401610c819061234c565b60405180910390fd5b565b600160009054906101000a900473ffffffffffffffffffffffffffffffffffffffff1673ffffffffffffffffffffffffffffffffffffffff163373ffffffffffffffffffffffffffffffffffffffff1614610ce657600080fd5b565b610cf061172e565b600060208301905060405180604001604052808451815260200182815250915050919050565b6060610d2182611139565b610d2a57600080fd5b6000610d3583611186565b905060008167ffffffffffffffff811115610d5357610d5261236c565b5b604051908082528060200260200182016040528015610d8c57816020015b610d7961172e565b815260200190600190039081610d715790505b5090506000610d9e8560200151611213565b8560200151610dad919061239b565b9050600080600090505b84811015610e1e57610dc8836112d2565b9150604051806040016040528083815260200184815250848281518110610df257610df1611f3f565b5b60200260200101819052508183610e09919061239b565b92508080610e16906123cf565b915050610db7565b5082945050505050919050565b6000808260000151118015610e4557506021826000015111155b610e4e57600080fd5b600080610e5a846113ae565b915091506000825190506020821015610e7a57816020036101000a810490505b809350505050919050565b60606000826000015111610e9857600080fd5b600080610ea4846113ae565b9150915060008167ffffffffffffffff811115610ec457610ec361236c565b5b6040519080825280601f01601f191660200182016040528015610ef65781602001600182028036833780820191505090505b5090506000816020019050610f0c8482856113f8565b81945050505050919050565b60008060005b6020811015610f9e57600881610f349190612417565b60ff60f81b868387610f46919061239b565b81518110610f5757610f56611f3f565b5b602001015160f81c60f81b167effffffffffffffffffffffffffffffffffffffffffffffffffffffffffffff1916901c821791508080610f96906123cf565b915050610f1e565b508091505092915050565b61102c846323b872dd60e01b858585604051602401610fca93929190612471565b604051602081830303815290604052907bffffffffffffffffffffffffffffffffffffffffffffffffffffffff19166020820180517bffffffffffffffffffffffffffffffffffffffffffffffffffffffff838183161783525050505061149a565b50505050565b60008060009054906101000a900473ffffffffffffffffffffffffffffffffffffffff169050816000806101000a81548173ffffffffffffffffffffffffffffffffffffffff021916908373ffffffffffffffffffffffffffffffffffffffff1602179055508173ffffffffffffffffffffffffffffffffffffffff168173ffffffffffffffffffffffffffffffffffffffff167f8be0079c531659141344cd1fd0a4f28419497f9722a3daafe3b4186f6b6457e060405160405180910390a35050565b6040517f08c379a0000000000000000000000000000000000000000000000000000000008152600401611128906124f4565b60405180910390fd5b600033905090565b60008082600001510361114f5760009050611181565b60008083602001519050805160001a915060c060ff168260ff16101561117a57600092505050611181565b6001925050505b919050565b60008082600001510361119c576000905061120e565b6000806111ac8460200151611213565b84602001516111bb919061239b565b90506000846000015185602001516111d3919061239b565b90505b80821015611207576111e7826112d2565b826111f2919061239b565b915082806111ff906123cf565b9350506111d6565b8293505050505b919050565b600080825160001a9050608060ff168110156112335760009150506112cd565b60b860ff16811080611258575060c060ff168110158015611257575060f860ff1681105b5b156112675760019150506112cd565b60c060ff168110156112a25760018060b86112829190612514565b60ff16826112909190612549565b61129a919061239b565b9150506112cd565b60018060f86112b19190612514565b60ff16826112bf9190612549565b6112c9919061239b565b9150505b919050565b6000806000835160001a9050608060ff168110156112f357600191506113a4565b60b860ff16811015611322576001608060ff16826113119190612549565b61131b919061239b565b91506113a3565b60c060ff168110156113525760b78103600185019450806020036101000a855104600182018101935050506113a2565b60f860ff1681101561138157600160c060ff16826113709190612549565b61137a919061239b565b91506113a1565b60f78103600185019450806020036101000a855104600182018101935050505b5b5b5b8192505050919050565b60008060006113c08460200151611213565b905060008185602001516113d4919061239b565b905060008286600001516113e89190612549565b9050818194509450505050915091565b6000810315611495575b602060ff16811061144c5782518252602060ff1683611421919061239b565b9250602060ff1682611433919061239b565b9150602060ff16816114459190612549565b9050611402565b6000811115611494576000600182602060ff166114699190612549565b61010061147691906126b0565b6114809190612549565b905080198451168184511681811785525050505b5b505050565b60006114fc826040518060400160405280602081526020017f5361666545524332303a206c6f772d6c6576656c2063616c6c206661696c65648152508573ffffffffffffffffffffffffffffffffffffffff166115619092919063ffffffff16565b905060008151111561155c578080602001905181019061151c9190612733565b61155b576040517f08c379a0000000000000000000000000000000000000000000000000000000008152600401611552906127d2565b60405180910390fd5b5b505050565b60606115708484600085611579565b90509392505050565b6060824710156115be576040517f08c379a00000000000000000000000000000000000000000000000000000000081526004016115b590612864565b60405180910390fd5b6000808673ffffffffffffffffffffffffffffffffffffffff1685876040516115e791906128c0565b60006040518083038185875af1925050503d8060008114611624576040519150601f19603f3d011682016040523d82523d6000602084013e611629565b606091505b509150915061163a87838387611646565b92505050949350505050565b606083156116a85760008351036116a057611660856116bb565b61169f576040517f08c379a000000000000000000000000000000000000000000000000000000000815260040161169690612923565b60405180910390fd5b5b8290506116b3565b6116b283836116de565b5b949350505050565b6000808273ffffffffffffffffffffffffffffffffffffffff163b119050919050565b6000825111156116f15781518083602001fd5b806040517f08c379a00000000000000000000000000000000000000000000000000000000081526004016117259190612987565b60405180910390fd5b604051806040016040528060008152602001600081525090565b600080fd5b600080fd5b600063ffffffff82169050919050565b61176b81611752565b811461177657600080fd5b50565b60008135905061178881611762565b92915050565b6000602082840312156117a4576117a3611748565b5b60006117b284828501611779565b91505092915050565b6000819050919050565b6117ce816117bb565b82525050565b60006020820190506117e960008301846117c5565b92915050565b600073ffffffffffffffffffffffffffffffffffffffff82169050919050565b600061181a826117ef565b9050919050565b61182a8161180f565b811461183557600080fd5b50565b60008135905061184781611821565b92915050565b611856816117bb565b811461186157600080fd5b50565b6000813590506118738161184d565b92915050565b600080604083850312156118905761188f611748565b5b600061189e85828601611838565b92505060206118af85828601611864565b9150509250929050565b60006118c4826117ef565b9050919050565b6118d4816118b9565b82525050565b60006040820190506118ef60008301856118cb565b6118fc60208301846117c5565b9392505050565b600080fd5b600060e0828403121561191e5761191d611903565b5b81905092915050565b60006020828403121561193d5761193c611748565b5b600082013567ffffffffffffffff81111561195b5761195a61174d565b5b61196784828501611908565b91505092915050565b600081519050919050565b600082825260208201905092915050565b60005b838110156119aa57808201518184015260208101905061198f565b60008484015250505050565b6000601f19601f8301169050919050565b60006119d282611970565b6119dc818561197b565b93506119ec81856020860161198c565b6119f5816119b6565b840191505092915050565b60006040820190508181036000830152611a1a81856119c7565b9050611a2960208301846117c5565b9392505050565b6000611a3b826118b9565b9050919050565b611a4b81611a30565b8114611a5657600080fd5b50565b600081359050611a6881611a42565b92915050565b600060208284031215611a8457611a83611748565b5b6000611a9284828501611a59565b91505092915050565b600060408284031215611ab157611ab0611903565b5b81905092915050565b600060408284031215611ad057611acf611748565b5b6000611ade84828501611a9b565b91505092915050565b6000602082019050611afc60008301846118cb565b92915050565b60038110611b0f57600080fd5b50565b600081359050611b2181611b02565b92915050565b600080fd5b600080fd5b600080fd5b60008083601f840112611b4c57611b4b611b27565b5b8235905067ffffffffffffffff811115611b6957611b68611b2c565b5b602083019150836001820283011115611b8557611b84611b31565b5b9250929050565b60008060008060608587031215611ba657611ba5611748565b5b6000611bb487828801611b12565b945050602085013567ffffffffffffffff811115611bd557611bd461174d565b5b611be187828801611b36565b93509350506040611bf487828801611864565b91505092959194509250565b6000819050919050565b6000611c25611c20611c1b846117ef565b611c00565b6117ef565b9050919050565b6000611c3782611c0a565b9050919050565b6000611c4982611c2c565b9050919050565b611c5981611c3e565b82525050565b6000602082019050611c746000830184611c50565b92915050565b600060208284031215611c9057611c8f611748565b5b6000611c9e84828501611838565b91505092915050565b611cb0816118b9565b8114611cbb57600080fd5b50565b600081359050611ccd81611ca7565b92915050565b600060208284031215611ce957611ce8611748565b5b6000611cf784828501611cbe565b91505092915050565b600081519050611d0f81611762565b92915050565b600060208284031215611d2b57611d2a611748565b5b6000611d3984828501611d00565b91505092915050565b7f4e487b7100000000000000000000000000000000000000000000000000000000600052601160045260246000fd5b6000611d7c82611752565b9150611d8783611752565b9250828201905063ffffffff811115611da357611da2611d42565b5b92915050565b611db281611752565b82525050565b6000602082019050611dcd6000830184611da9565b92915050565b611ddc8161180f565b82525050565b6000604082019050611df76000830185611dd3565b611e0460208301846117c5565b9392505050565b600082825260208201905092915050565b7f47503a205553454c4553535f434845434b000000000000000000000000000000600082015250565b6000611e52601183611e0b565b9150611e5d82611e1c565b602082019050919050565b60006020820190508181036000830152611e8181611e45565b9050919050565b600080fd5b600080fd5b600080fd5b60008083356001602003843603038112611eb457611eb3611e88565b5b80840192508235915067ffffffffffffffff821115611ed657611ed5611e8d565b5b602083019250600182023603831315611ef257611ef1611e92565b5b509250929050565b600080fd5b600080fd5b60008085851115611f1857611f17611efa565b5b83861115611f2957611f28611eff565b5b6001850283019150848603905094509492505050565b7f4e487b7100000000000000000000000000000000000000000000000000000000600052603260045260246000fd5b7f47503a2057524f4e475f444541444c494e450000000000000000000000000000600082015250565b6000611fa4601283611e0b565b9150611faf82611f6e565b602082019050919050565b60006020820190508181036000830152611fd381611f97565b9050919050565b600060ff82169050919050565b611ff081611fda565b82525050565b6000819050919050565b61200981611ff6565b82525050565b600060e082019050612024600083018a6118cb565b61203160208301896118cb565b61203e60408301886117c5565b61204b60608301876117c5565b6120586080830186611fe7565b61206560a0830185612000565b61207260c0830184612000565b98975050505050505050565b6000813561208b81611ca7565b80915050919050565b60008160001b9050919050565b600073ffffffffffffffffffffffffffffffffffffffff6120c184612094565b9350801983169250808416831791505092915050565b60006120e282611c2c565b9050919050565b6000819050919050565b6120fc826120d7565b61210f612108826120e9565b83546120a1565b8255505050565b600081356121238161184d565b80915050919050565b60007fffffffffffffffffffffffffffffffffffffffffffffffffffffffffffffffff61215884612094565b9350801983169250808416831791505092915050565b600061218961218461217f846117bb565b611c00565b6117bb565b9050919050565b6000819050919050565b6121a38261216e565b6121b66121af82612190565b835461212c565b8255505050565b6000810160008301806121cf8161207e565b90506121db81846120f3565b5050506001810160208301806121f081612116565b90506121fc818461219a565b5050505050565b61220d82826121bd565b5050565b60006020820190506122266000830184611dd3565b92915050565b60008151905061223b8161184d565b92915050565b60006020828403121561225757612256611748565b5b60006122658482850161222c565b91505092915050565b7f4f776e61626c653a206e6577206f776e657220697320746865207a65726f206160008201527f6464726573730000000000000000000000000000000000000000000000000000602082015250565b60006122ca602683611e0b565b91506122d58261226e565b604082019050919050565b600060208201905081810360008301526122f9816122bd565b9050919050565b7f4f776e61626c653a2063616c6c6572206973206e6f7420746865206f776e6572600082015250565b6000612336602083611e0b565b915061234182612300565b602082019050919050565b6000602082019050818103600083015261236581612329565b9050919050565b7f4e487b7100000000000000000000000000000000000000000000000000000000600052604160045260246000fd5b60006123a6826117bb565b91506123b1836117bb565b92508282019050808211156123c9576123c8611d42565b5b92915050565b60006123da826117bb565b91507fffffffffffffffffffffffffffffffffffffffffffffffffffffffffffffffff820361240c5761240b611d42565b5b600182019050919050565b6000612422826117bb565b915061242d836117bb565b9250817fffffffffffffffffffffffffffffffffffffffffffffffffffffffffffffffff048311821515161561246657612465611d42565b5b828202905092915050565b600060608201905061248660008301866118cb565b61249360208301856118cb565b6124a060408301846117c5565b949350505050565b7f6d757374206f7665727269646500000000000000000000000000000000000000600082015250565b60006124de600d83611e0b565b91506124e9826124a8565b602082019050919050565b6000602082019050818103600083015261250d816124d1565b9050919050565b600061251f82611fda565b915061252a83611fda565b9250828203905060ff81111561254357612542611d42565b5b92915050565b6000612554826117bb565b915061255f836117bb565b925082820390508181111561257757612576611d42565b5b92915050565b60008160011c9050919050565b6000808291508390505b60018511156125d4578086048111156125b0576125af611d42565b5b60018516156125bf5780820291505b80810290506125cd8561257d565b9450612594565b94509492505050565b6000826125ed57600190506126a9565b816125fb57600090506126a9565b8160018114612611576002811461261b5761264a565b60019150506126a9565b60ff84111561262d5761262c611d42565b5b8360020a91508482111561264457612643611d42565b5b506126a9565b5060208310610133831016604e8410600b841016171561267f5782820a90508381111561267a57612679611d42565b5b6126a9565b61268c848484600161258a565b925090508184048111156126a3576126a2611d42565b5b81810290505b9392505050565b60006126bb826117bb565b91506126c6836117bb565b92506126f37fffffffffffffffffffffffffffffffffffffffffffffffffffffffffffffffff84846125dd565b905092915050565b60008115159050919050565b612710816126fb565b811461271b57600080fd5b50565b60008151905061272d81612707565b92915050565b60006020828403121561274957612748611748565b5b60006127578482850161271e565b91505092915050565b7f5361666545524332303a204552433230206f7065726174696f6e20646964206e60008201527f6f74207375636365656400000000000000000000000000000000000000000000602082015250565b60006127bc602a83611e0b565b91506127c782612760565b604082019050919050565b600060208201905081810360008301526127eb816127af565b9050919050565b7f416464726573733a20696e73756666696369656e742062616c616e636520666f60008201527f722063616c6c0000000000000000000000000000000000000000000000000000602082015250565b600061284e602683611e0b565b9150612859826127f2565b604082019050919050565b6000602082019050818103600083015261287d81612841565b9050919050565b600081905092915050565b600061289a82611970565b6128a48185612884565b93506128b481856020860161198c565b80840191505092915050565b60006128cc828461288f565b915081905092915050565b7f416464726573733a2063616c6c20746f206e6f6e2d636f6e7472616374000000600082015250565b600061290d601d83611e0b565b9150612918826128d7565b602082019050919050565b6000602082019050818103600083015261293c81612900565b9050919050565b600081519050919050565b600061295982612943565b6129638185611e0b565b935061297381856020860161198c565b61297c816119b6565b840191505092915050565b600060208201905081810360008301526129a1818461294e565b90509291505056fea2646970667358221220aaef13bdd1ad1e6436acf1ba2738b2442f4dee69d425d950d187ba2e993b0cfe64736f6c63430008100033",
  "devdoc": {
    "kind": "dev",
    "methods": {
      "addStake(uint32)": {
        "params": {
          "extraUnstakeDelaySec": "- set the stake to the entrypoint's default unstakeDelay plus this value."
        }
      },
      "owner()": {
        "details": "Returns the address of the current owner."
      },
      "postOp(uint8,bytes,uint256)": {
        "params": {
          "actualGasCost": "- actual gas used so far (without this postOp call).",
          "context": "- the context value returned by validatePaymasterUserOp",
          "mode": "enum with the following options:      opSucceeded - user operation succeeded.      opReverted  - user op reverted. still has to pay for gas.      postOpReverted - user op succeeded, but caused postOp (in mode=opSucceeded) to revert.                       Now this is the 2nd call, after user's op was deliberately reverted."
        }
      },
      "renounceOwnership()": {
        "details": "Leaves the contract without owner. It will not be possible to call `onlyOwner` functions anymore. Can only be called by the current owner. NOTE: Renouncing ownership will leave the contract without an owner, thereby removing any functionality that is only available to the owner."
      },
      "transferOwnership(address)": {
        "details": "Transfers ownership of the contract to a new account (`newOwner`). Can only be called by the current owner."
      },
      "withdrawStake(address)": {
        "params": {
          "withdrawAddress": "the address to send withdrawn value."
        }
      },
      "withdrawTo(address,uint256)": {
        "params": {
          "amount": "to withdraw",
          "withdrawAddress": "target to send to"
        }
      }
    },
    "version": 1
  },
  "userdoc": {
    "kind": "user",
    "methods": {
      "addStake(uint32)": {
        "notice": "add stake for this paymaster. This method can also carry eth value to add to the current stake."
      },
      "deposit()": {
        "notice": "add a deposit for this paymaster, used for paying for transaction fees"
      },
      "getDeposit()": {
        "notice": "return current paymaster's deposit on the entryPoint."
      },
      "postOp(uint8,bytes,uint256)": {
        "notice": "post-operation handler. Must verify sender is the entryPoint"
      },
      "unlockStake()": {
        "notice": "unlock the stake, in order to withdraw it. The paymaster can't serve requests once unlocked, until it calls addStake again"
      },
      "validatePaymasterUserOp((address,bytes,uint256,uint256,uint256,uint256,bytes))": {
        "notice": "verify our external signer signed this request. the \"paymasterAndData\" is expected to be the paymaster and a signature over the entire request params"
      },
      "withdrawStake(address)": {
        "notice": "withdraw the entire paymaster's stake. stake must be unlocked first (and then wait for the unstakeDelay to be over)"
      },
      "withdrawTo(address,uint256)": {
        "notice": "withdraw value from the deposit"
      }
    },
    "notice": "A sample paymaster that uses external service to decide whether to pay for the UserOp. The paymaster trusts an external signer to sign the transaction. The calling user must pass the UserOp to that external signer first, which performs whatever off-chain verification before signing the UserOp. Note that this signature is NOT a replacement for wallet signature: - the paymaster signs to agree to PAY for GAS. - the wallet signs to prove identity and wallet ownership.",
    "version": 1
  },
  "storageLayout": {
    "storage": [
      {
        "astId": 7,
        "contract": "contracts/GaslessERC20Paymaster.sol:GaslessERC20Paymaster",
        "label": "_owner",
        "offset": 0,
        "slot": "0",
        "type": "t_address"
      },
      {
        "astId": 2273,
        "contract": "contracts/GaslessERC20Paymaster.sol:GaslessERC20Paymaster",
        "label": "entryPoint",
        "offset": 0,
        "slot": "1",
        "type": "t_contract(IGaslessEntryPoint)2847"
      },
      {
        "astId": 2502,
        "contract": "contracts/GaslessERC20Paymaster.sol:GaslessERC20Paymaster",
        "label": "paymentToken",
        "offset": 0,
        "slot": "2",
        "type": "t_struct(PaymentToken)2499_storage"
      }
    ],
    "types": {
      "t_address": {
        "encoding": "inplace",
        "label": "address",
        "numberOfBytes": "20"
      },
      "t_contract(IGaslessEntryPoint)2847": {
        "encoding": "inplace",
        "label": "contract IGaslessEntryPoint",
        "numberOfBytes": "20"
      },
      "t_struct(PaymentToken)2499_storage": {
        "encoding": "inplace",
        "label": "struct GaslessERC20Paymaster.PaymentToken",
        "members": [
          {
            "astId": 2496,
            "contract": "contracts/GaslessERC20Paymaster.sol:GaslessERC20Paymaster",
            "label": "token",
            "offset": 0,
            "slot": "0",
            "type": "t_address"
          },
          {
            "astId": 2498,
            "contract": "contracts/GaslessERC20Paymaster.sol:GaslessERC20Paymaster",
            "label": "rate",
            "offset": 0,
            "slot": "1",
            "type": "t_uint256"
          }
        ],
        "numberOfBytes": "64"
      },
      "t_uint256": {
        "encoding": "inplace",
        "label": "uint256",
        "numberOfBytes": "32"
      }
    }
  }
}