{
  "address": "0xced7c0c6DE215c995Cf08D464f6a2132b2FAD37D",
  "abi": [
    {
      "inputs": [
        {
          "internalType": "string",
          "name": "_name",
          "type": "string"
        },
        {
          "internalType": "string",
          "name": "_symbol",
          "type": "string"
        },
        {
          "internalType": "uint8",
          "name": "_decimals",
          "type": "uint8"
        }
      ],
      "stateMutability": "nonpayable",
      "type": "constructor"
    },
    {
      "anonymous": false,
      "inputs": [
        {
          "indexed": true,
          "internalType": "address",
          "name": "owner",
          "type": "address"
        },
        {
          "indexed": true,
          "internalType": "address",
          "name": "spender",
          "type": "address"
        },
        {
          "indexed": false,
          "internalType": "uint256",
          "name": "value",
          "type": "uint256"
        }
      ],
      "name": "Approval",
      "type": "event"
    },
    {
      "anonymous": false,
      "inputs": [
        {
          "indexed": true,
          "internalType": "address",
          "name": "previousOwner",
          "type": "address"
        },
        {
          "indexed": true,
          "internalType": "address",
          "name": "newOwner",
          "type": "address"
        }
      ],
      "name": "OwnershipTransferred",
      "type": "event"
    },
    {
      "anonymous": false,
      "inputs": [
        {
          "indexed": true,
          "internalType": "address",
          "name": "from",
          "type": "address"
        },
        {
          "indexed": true,
          "internalType": "address",
          "name": "to",
          "type": "address"
        },
        {
          "indexed": false,
          "internalType": "uint256",
          "name": "value",
          "type": "uint256"
        }
      ],
      "name": "Transfer",
      "type": "event"
    },
    {
      "inputs": [],
      "name": "DOMAIN_SEPARATOR",
      "outputs": [
        {
          "internalType": "bytes32",
          "name": "",
          "type": "bytes32"
        }
      ],
      "stateMutability": "view",
      "type": "function"
    },
    {
      "inputs": [],
      "name": "PERMIT_TYPEHASH",
      "outputs": [
        {
          "internalType": "bytes32",
          "name": "",
          "type": "bytes32"
        }
      ],
      "stateMutability": "view",
      "type": "function"
    },
    {
      "inputs": [],
      "name": "VERSION",
      "outputs": [
        {
          "internalType": "string",
          "name": "",
          "type": "string"
        }
      ],
      "stateMutability": "view",
      "type": "function"
    },
    {
      "inputs": [
        {
          "internalType": "address",
          "name": "owner",
          "type": "address"
        },
        {
          "internalType": "address",
          "name": "spender",
          "type": "address"
        }
      ],
      "name": "allowance",
      "outputs": [
        {
          "internalType": "uint256",
          "name": "",
          "type": "uint256"
        }
      ],
      "stateMutability": "view",
      "type": "function"
    },
    {
      "inputs": [
        {
          "internalType": "address",
          "name": "spender",
          "type": "address"
        },
        {
          "internalType": "uint256",
          "name": "amount",
          "type": "uint256"
        }
      ],
      "name": "approve",
      "outputs": [
        {
          "internalType": "bool",
          "name": "",
          "type": "bool"
        }
      ],
      "stateMutability": "nonpayable",
      "type": "function"
    },
    {
      "inputs": [
        {
          "internalType": "address",
          "name": "account",
          "type": "address"
        }
      ],
      "name": "balanceOf",
      "outputs": [
        {
          "internalType": "uint256",
          "name": "",
          "type": "uint256"
        }
      ],
      "stateMutability": "view",
      "type": "function"
    },
    {
      "inputs": [
        {
          "internalType": "address",
          "name": "_from",
          "type": "address"
        },
        {
          "internalType": "uint256",
          "name": "_amnt",
          "type": "uint256"
        }
      ],
      "name": "burn",
      "outputs": [],
      "stateMutability": "nonpayable",
      "type": "function"
    },
    {
      "inputs": [],
      "name": "decimals",
      "outputs": [
        {
          "internalType": "uint8",
          "name": "",
          "type": "uint8"
        }
      ],
      "stateMutability": "view",
      "type": "function"
    },
    {
      "inputs": [
        {
          "internalType": "address",
          "name": "spender",
          "type": "address"
        },
        {
          "internalType": "uint256",
          "name": "subtractedValue",
          "type": "uint256"
        }
      ],
      "name": "decreaseAllowance",
      "outputs": [
        {
          "internalType": "bool",
          "name": "",
          "type": "bool"
        }
      ],
      "stateMutability": "nonpayable",
      "type": "function"
    },
    {
      "inputs": [
        {
          "internalType": "address",
          "name": "spender",
          "type": "address"
        },
        {
          "internalType": "uint256",
          "name": "addedValue",
          "type": "uint256"
        }
      ],
      "name": "increaseAllowance",
      "outputs": [
        {
          "internalType": "bool",
          "name": "",
          "type": "bool"
        }
      ],
      "stateMutability": "nonpayable",
      "type": "function"
    },
    {
      "inputs": [
        {
          "internalType": "address",
          "name": "_to",
          "type": "address"
        },
        {
          "internalType": "uint256",
          "name": "_amnt",
          "type": "uint256"
        }
      ],
      "name": "mint",
      "outputs": [],
      "stateMutability": "nonpayable",
      "type": "function"
    },
    {
      "inputs": [],
      "name": "name",
      "outputs": [
        {
          "internalType": "string",
          "name": "",
          "type": "string"
        }
      ],
      "stateMutability": "view",
      "type": "function"
    },
    {
      "inputs": [
        {
          "internalType": "address",
          "name": "_owner",
          "type": "address"
        }
      ],
      "name": "nonces",
      "outputs": [
        {
          "internalType": "uint256",
          "name": "",
          "type": "uint256"
        }
      ],
      "stateMutability": "view",
      "type": "function"
    },
    {
      "inputs": [],
      "name": "owner",
      "outputs": [
        {
          "internalType": "address",
          "name": "",
          "type": "address"
        }
      ],
      "stateMutability": "view",
      "type": "function"
    },
    {
      "inputs": [
        {
          "internalType": "address",
          "name": "_owner",
          "type": "address"
        },
        {
          "internalType": "address",
          "name": "_spender",
          "type": "address"
        },
        {
          "internalType": "uint256",
          "name": "_value",
          "type": "uint256"
        },
        {
          "internalType": "uint256",
          "name": "_deadline",
          "type": "uint256"
        },
        {
          "internalType": "uint8",
          "name": "_v",
          "type": "uint8"
        },
        {
          "internalType": "bytes32",
          "name": "_r",
          "type": "bytes32"
        },
        {
          "internalType": "bytes32",
          "name": "_s",
          "type": "bytes32"
        }
      ],
      "name": "permit",
      "outputs": [],
      "stateMutability": "nonpayable",
      "type": "function"
    },
    {
      "inputs": [],
      "name": "renounceOwnership",
      "outputs": [],
      "stateMutability": "nonpayable",
      "type": "function"
    },
    {
      "inputs": [],
      "name": "symbol",
      "outputs": [
        {
          "internalType": "string",
          "name": "",
          "type": "string"
        }
      ],
      "stateMutability": "view",
      "type": "function"
    },
    {
      "inputs": [],
      "name": "totalSupply",
      "outputs": [
        {
          "internalType": "uint256",
          "name": "",
          "type": "uint256"
        }
      ],
      "stateMutability": "view",
      "type": "function"
    },
    {
      "inputs": [
        {
          "internalType": "address",
          "name": "to",
          "type": "address"
        },
        {
          "internalType": "uint256",
          "name": "amount",
          "type": "uint256"
        }
      ],
      "name": "transfer",
      "outputs": [
        {
          "internalType": "bool",
          "name": "",
          "type": "bool"
        }
      ],
      "stateMutability": "nonpayable",
      "type": "function"
    },
    {
      "inputs": [
        {
          "internalType": "address",
          "name": "from",
          "type": "address"
        },
        {
          "internalType": "address",
          "name": "to",
          "type": "address"
        },
        {
          "internalType": "uint256",
          "name": "amount",
          "type": "uint256"
        }
      ],
      "name": "transferFrom",
      "outputs": [
        {
          "internalType": "bool",
          "name": "",
          "type": "bool"
        }
      ],
      "stateMutability": "nonpayable",
      "type": "function"
    },
    {
      "inputs": [
        {
          "internalType": "address",
          "name": "newOwner",
          "type": "address"
        }
      ],
      "name": "transferOwnership",
      "outputs": [],
      "stateMutability": "nonpayable",
      "type": "function"
    },
    {
      "inputs": [
        {
          "internalType": "string",
          "name": "_newName",
          "type": "string"
        },
        {
          "internalType": "string",
          "name": "_newSymbol",
          "type": "string"
        },
        {
          "internalType": "uint8",
          "name": "_newDecimals",
          "type": "uint8"
        }
      ],
      "name": "updateTokenInfo",
      "outputs": [],
      "stateMutability": "nonpayable",
      "type": "function"
    }
  ],
  "transactionHash": "0x4d54e8a0a510f42a5dddc4030197af2652ae5868a471fe3165ab0bc7f60aaf84",
  "args": [
    "Gasless Token",
    "GT",
    18
  ],
  "numDeployments": 1,
  "solcInputHash": "9fe426b5cb5d005442950c66c35a8f42",
  "bytecode": "0x60806040523480156200001157600080fd5b5060405162002fae38038062002fae83398181016040528101906200003791906200036f565b828281600390816200004a919062000654565b5080600490816200005c919062000654565b5050506200007f62000073620000d060201b60201c565b620000d860201b60201c565b826006600001908162000093919062000654565b508160066001019081620000a8919062000654565b5080600660020160006101000a81548160ff021916908360ff1602179055505050506200073b565b600033905090565b6000600560009054906101000a900473ffffffffffffffffffffffffffffffffffffffff16905081600560006101000a81548173ffffffffffffffffffffffffffffffffffffffff021916908373ffffffffffffffffffffffffffffffffffffffff1602179055508173ffffffffffffffffffffffffffffffffffffffff168173ffffffffffffffffffffffffffffffffffffffff167f8be0079c531659141344cd1fd0a4f28419497f9722a3daafe3b4186f6b6457e060405160405180910390a35050565b6000604051905090565b600080fd5b600080fd5b600080fd5b600080fd5b6000601f19601f8301169050919050565b7f4e487b7100000000000000000000000000000000000000000000000000000000600052604160045260246000fd5b6200020782620001bc565b810181811067ffffffffffffffff82111715620002295762000228620001cd565b5b80604052505050565b60006200023e6200019e565b90506200024c8282620001fc565b919050565b600067ffffffffffffffff8211156200026f576200026e620001cd565b5b6200027a82620001bc565b9050602081019050919050565b60005b83811015620002a75780820151818401526020810190506200028a565b60008484015250505050565b6000620002ca620002c48462000251565b62000232565b905082815260208101848484011115620002e957620002e8620001b7565b5b620002f684828562000287565b509392505050565b600082601f830112620003165762000315620001b2565b5b815162000328848260208601620002b3565b91505092915050565b600060ff82169050919050565b620003498162000331565b81146200035557600080fd5b50565b60008151905062000369816200033e565b92915050565b6000806000606084860312156200038b576200038a620001a8565b5b600084015167ffffffffffffffff811115620003ac57620003ab620001ad565b5b620003ba86828701620002fe565b935050602084015167ffffffffffffffff811115620003de57620003dd620001ad565b5b620003ec86828701620002fe565b9250506040620003ff8682870162000358565b9150509250925092565b600081519050919050565b7f4e487b7100000000000000000000000000000000000000000000000000000000600052602260045260246000fd5b600060028204905060018216806200045c57607f821691505b60208210810362000472576200047162000414565b5b50919050565b60008190508160005260206000209050919050565b60006020601f8301049050919050565b600082821b905092915050565b600060088302620004dc7fffffffffffffffffffffffffffffffffffffffffffffffffffffffffffffffff826200049d565b620004e886836200049d565b95508019841693508086168417925050509392505050565b6000819050919050565b6000819050919050565b6000620005356200052f620005298462000500565b6200050a565b62000500565b9050919050565b6000819050919050565b620005518362000514565b6200056962000560826200053c565b848454620004aa565b825550505050565b600090565b6200058062000571565b6200058d81848462000546565b505050565b5b81811015620005b557620005a960008262000576565b60018101905062000593565b5050565b601f8211156200060457620005ce8162000478565b620005d9846200048d565b81016020851015620005e9578190505b62000601620005f8856200048d565b83018262000592565b50505b505050565b600082821c905092915050565b6000620006296000198460080262000609565b1980831691505092915050565b600062000644838362000616565b9150826002028217905092915050565b6200065f8262000409565b67ffffffffffffffff8111156200067b576200067a620001cd565b5b62000687825462000443565b62000694828285620005b9565b600060209050601f831160018114620006cc5760008415620006b7578287015190505b620006c3858262000636565b86555062000733565b601f198416620006dc8662000478565b60005b828110156200070657848901518255600182019150602085019450602081019050620006df565b8683101562000726578489015162000722601f89168262000616565b8355505b6001600288020188555050505b505050505050565b612863806200074b6000396000f3fe608060405234801561001057600080fd5b50600436106101425760003560e01c8063715018a6116100b8578063a457c2d71161007c578063a457c2d714610367578063a9059cbb14610397578063d505accf146103c7578063dd62ed3e146103e3578063f2fde38b14610413578063ffa1ad741461042f57610142565b8063715018a6146102d55780637ecebe00146102df5780638da5cb5b1461030f57806395d89b411461032d5780639dc29fac1461034b57610142565b8063313ce5671161010a578063313ce567146102015780633644e5151461021f578063395093511461023d57806340c10f191461026d5780635de31f7a1461028957806370a08231146102a557610142565b806306fdde0314610147578063095ea7b31461016557806318160ddd1461019557806323b872dd146101b357806330adf81f146101e3575b600080fd5b61014f61044d565b60405161015c9190611623565b60405180910390f35b61017f600480360381019061017a91906116e3565b6104e2565b60405161018c919061173e565b60405180910390f35b61019d610505565b6040516101aa9190611768565b60405180910390f35b6101cd60048036038101906101c89190611783565b61050f565b6040516101da919061173e565b60405180910390f35b6101eb61053e565b6040516101f891906117ef565b60405180910390f35b610209610562565b6040516102169190611826565b60405180910390f35b61022761057c565b60405161023491906117ef565b60405180910390f35b610257600480360381019061025291906116e3565b61062c565b604051610264919061173e565b60405180910390f35b610287600480360381019061028291906116e3565b610663565b005b6102a3600480360381019061029e91906118d2565b610671565b005b6102bf60048036038101906102ba9190611967565b6106c8565b6040516102cc9190611768565b60405180910390f35b6102dd610710565b005b6102f960048036038101906102f49190611967565b610724565b6040516103069190611768565b60405180910390f35b61031761076d565b60405161032491906119a3565b60405180910390f35b610335610797565b6040516103429190611623565b60405180910390f35b610365600480360381019061036091906116e3565b61082c565b005b610381600480360381019061037c91906116e3565b610842565b60405161038e919061173e565b60405180910390f35b6103b160048036038101906103ac91906116e3565b6108b9565b6040516103be919061173e565b60405180910390f35b6103e160048036038101906103dc91906119ea565b6108dc565b005b6103fd60048036038101906103f89190611a8c565b610b0c565b60405161040a9190611768565b60405180910390f35b61042d60048036038101906104289190611967565b610b93565b005b610437610c16565b6040516104449190611623565b60405180910390f35b60606006600001805461045f90611afb565b80601f016020809104026020016040519081016040528092919081815260200182805461048b90611afb565b80156104d85780601f106104ad576101008083540402835291602001916104d8565b820191906000526020600020905b8154815290600101906020018083116104bb57829003601f168201915b5050505050905090565b6000806104ed610c4f565b90506104fa818585610c57565b600191505092915050565b6000600254905090565b60008061051a610c4f565b9050610527858285610e20565b610532858585610eac565b60019150509392505050565b7f6e71edae12b1b97f4d1f60370fef10105fa2faae0126114a169c64845d6126c981565b6000600660020160009054906101000a900460ff16905090565b6000804690507f8b73c3c69bb8fe3d512ecc4cf759cc79239f7b179b0ffacaa9a75d522b39400f60066000016040516105b59190611bcf565b60405180910390206040518060400160405280600181526020017f3100000000000000000000000000000000000000000000000000000000000000815250805190602001208330604051602001610610959493929190611be6565b6040516020818303038152906040528051906020012091505090565b600080610637610c4f565b90506106588185856106498589610b0c565b6106539190611c68565b610c57565b600191505092915050565b61066d8282611122565b5050565b610679611278565b84846006600001918261068d929190611e82565b508282600660010191826106a2929190611e82565b5080600660020160006101000a81548160ff021916908360ff1602179055505050505050565b60008060008373ffffffffffffffffffffffffffffffffffffffff1673ffffffffffffffffffffffffffffffffffffffff168152602001908152602001600020549050919050565b610718611278565b61072260006112f6565b565b6000600960008373ffffffffffffffffffffffffffffffffffffffff1673ffffffffffffffffffffffffffffffffffffffff168152602001908152602001600020549050919050565b6000600560009054906101000a900473ffffffffffffffffffffffffffffffffffffffff16905090565b6060600660010180546107a990611afb565b80601f01602080910402602001604051908101604052809291908181526020018280546107d590611afb565b80156108225780601f106107f757610100808354040283529160200191610822565b820191906000526020600020905b81548152906001019060200180831161080557829003601f168201915b5050505050905090565b610834611278565b61083e82826113bc565b5050565b60008061084d610c4f565b9050600061085b8286610b0c565b9050838110156108a0576040517f08c379a000000000000000000000000000000000000000000000000000000000815260040161089790611fc4565b60405180910390fd5b6108ad8286868403610c57565b60019250505092915050565b6000806108c4610c4f565b90506108d1818585610eac565b600191505092915050565b4284101561091f576040517f08c379a000000000000000000000000000000000000000000000000000000000815260040161091690612030565b60405180910390fd5b60007f6e71edae12b1b97f4d1f60370fef10105fa2faae0126114a169c64845d6126c9888888600960008d73ffffffffffffffffffffffffffffffffffffffff1673ffffffffffffffffffffffffffffffffffffffff168152602001908152602001600020600081548092919061099590612050565b91905055896040516020016109af96959493929190612098565b60405160208183030381529060405280519060200120905060006109d161057c565b826040516020016109e3929190612171565b604051602081830303815290604052805190602001209050600060018287878760405160008152602001604052604051610a2094939291906121a8565b6020604051602081039080840390855afa158015610a42573d6000803e3d6000fd5b505050602060405103519050600073ffffffffffffffffffffffffffffffffffffffff168173ffffffffffffffffffffffffffffffffffffffff1614158015610ab657508973ffffffffffffffffffffffffffffffffffffffff168173ffffffffffffffffffffffffffffffffffffffff16145b610af5576040517f08c379a0000000000000000000000000000000000000000000000000000000008152600401610aec90612239565b60405180910390fd5b610b008a8a8a610c57565b50505050505050505050565b6000600160008473ffffffffffffffffffffffffffffffffffffffff1673ffffffffffffffffffffffffffffffffffffffff16815260200190815260200160002060008373ffffffffffffffffffffffffffffffffffffffff1673ffffffffffffffffffffffffffffffffffffffff16815260200190815260200160002054905092915050565b610b9b611278565b600073ffffffffffffffffffffffffffffffffffffffff168173ffffffffffffffffffffffffffffffffffffffff1603610c0a576040517f08c379a0000000000000000000000000000000000000000000000000000000008152600401610c01906122cb565b60405180910390fd5b610c13816112f6565b50565b6040518060400160405280600181526020017f310000000000000000000000000000000000000000000000000000000000000081525081565b600033905090565b600073ffffffffffffffffffffffffffffffffffffffff168373ffffffffffffffffffffffffffffffffffffffff1603610cc6576040517f08c379a0000000000000000000000000000000000000000000000000000000008152600401610cbd9061235d565b60405180910390fd5b600073ffffffffffffffffffffffffffffffffffffffff168273ffffffffffffffffffffffffffffffffffffffff1603610d35576040517f08c379a0000000000000000000000000000000000000000000000000000000008152600401610d2c906123ef565b60405180910390fd5b80600160008573ffffffffffffffffffffffffffffffffffffffff1673ffffffffffffffffffffffffffffffffffffffff16815260200190815260200160002060008473ffffffffffffffffffffffffffffffffffffffff1673ffffffffffffffffffffffffffffffffffffffff168152602001908152602001600020819055508173ffffffffffffffffffffffffffffffffffffffff168373ffffffffffffffffffffffffffffffffffffffff167f8c5be1e5ebec7d5bd14f71427d1e84f3dd0314c0f7b2291e5b200ac8c7c3b92583604051610e139190611768565b60405180910390a3505050565b6000610e2c8484610b0c565b90507fffffffffffffffffffffffffffffffffffffffffffffffffffffffffffffffff8114610ea65781811015610e98576040517f08c379a0000000000000000000000000000000000000000000000000000000008152600401610e8f9061245b565b60405180910390fd5b610ea58484848403610c57565b5b50505050565b600073ffffffffffffffffffffffffffffffffffffffff168373ffffffffffffffffffffffffffffffffffffffff1603610f1b576040517f08c379a0000000000000000000000000000000000000000000000000000000008152600401610f12906124ed565b60405180910390fd5b600073ffffffffffffffffffffffffffffffffffffffff168273ffffffffffffffffffffffffffffffffffffffff1603610f8a576040517f08c379a0000000000000000000000000000000000000000000000000000000008152600401610f819061257f565b60405180910390fd5b610f95838383611589565b60008060008573ffffffffffffffffffffffffffffffffffffffff1673ffffffffffffffffffffffffffffffffffffffff1681526020019081526020016000205490508181101561101b576040517f08c379a000000000000000000000000000000000000000000000000000000000815260040161101290612611565b60405180910390fd5b8181036000808673ffffffffffffffffffffffffffffffffffffffff1673ffffffffffffffffffffffffffffffffffffffff16815260200190815260200160002081905550816000808573ffffffffffffffffffffffffffffffffffffffff1673ffffffffffffffffffffffffffffffffffffffff168152602001908152602001600020600082825401925050819055508273ffffffffffffffffffffffffffffffffffffffff168473ffffffffffffffffffffffffffffffffffffffff167fddf252ad1be2c89b69c2b068fc378daa952ba7f163c4a11628f55a4df523b3ef846040516111099190611768565b60405180910390a361111c84848461158e565b50505050565b600073ffffffffffffffffffffffffffffffffffffffff168273ffffffffffffffffffffffffffffffffffffffff1603611191576040517f08c379a00000000000000000000000000000000000000000000000000000000081526004016111889061267d565b60405180910390fd5b61119d60008383611589565b80600260008282546111af9190611c68565b92505081905550806000808473ffffffffffffffffffffffffffffffffffffffff1673ffffffffffffffffffffffffffffffffffffffff168152602001908152602001600020600082825401925050819055508173ffffffffffffffffffffffffffffffffffffffff16600073ffffffffffffffffffffffffffffffffffffffff167fddf252ad1be2c89b69c2b068fc378daa952ba7f163c4a11628f55a4df523b3ef836040516112609190611768565b60405180910390a36112746000838361158e565b5050565b611280610c4f565b73ffffffffffffffffffffffffffffffffffffffff1661129e61076d565b73ffffffffffffffffffffffffffffffffffffffff16146112f4576040517f08c379a00000000000000000000000000000000000000000000000000000000081526004016112eb906126e9565b60405180910390fd5b565b6000600560009054906101000a900473ffffffffffffffffffffffffffffffffffffffff16905081600560006101000a81548173ffffffffffffffffffffffffffffffffffffffff021916908373ffffffffffffffffffffffffffffffffffffffff1602179055508173ffffffffffffffffffffffffffffffffffffffff168173ffffffffffffffffffffffffffffffffffffffff167f8be0079c531659141344cd1fd0a4f28419497f9722a3daafe3b4186f6b6457e060405160405180910390a35050565b600073ffffffffffffffffffffffffffffffffffffffff168273ffffffffffffffffffffffffffffffffffffffff160361142b576040517f08c379a00000000000000000000000000000000000000000000000000000000081526004016114229061277b565b60405180910390fd5b61143782600083611589565b60008060008473ffffffffffffffffffffffffffffffffffffffff1673ffffffffffffffffffffffffffffffffffffffff168152602001908152602001600020549050818110156114bd576040517f08c379a00000000000000000000000000000000000000000000000000000000081526004016114b49061280d565b60405180910390fd5b8181036000808573ffffffffffffffffffffffffffffffffffffffff1673ffffffffffffffffffffffffffffffffffffffff1681526020019081526020016000208190555081600260008282540392505081905550600073ffffffffffffffffffffffffffffffffffffffff168373ffffffffffffffffffffffffffffffffffffffff167fddf252ad1be2c89b69c2b068fc378daa952ba7f163c4a11628f55a4df523b3ef846040516115709190611768565b60405180910390a36115848360008461158e565b505050565b505050565b505050565b600081519050919050565b600082825260208201905092915050565b60005b838110156115cd5780820151818401526020810190506115b2565b60008484015250505050565b6000601f19601f8301169050919050565b60006115f582611593565b6115ff818561159e565b935061160f8185602086016115af565b611618816115d9565b840191505092915050565b6000602082019050818103600083015261163d81846115ea565b905092915050565b600080fd5b600080fd5b600073ffffffffffffffffffffffffffffffffffffffff82169050919050565b600061167a8261164f565b9050919050565b61168a8161166f565b811461169557600080fd5b50565b6000813590506116a781611681565b92915050565b6000819050919050565b6116c0816116ad565b81146116cb57600080fd5b50565b6000813590506116dd816116b7565b92915050565b600080604083850312156116fa576116f9611645565b5b600061170885828601611698565b9250506020611719858286016116ce565b9150509250929050565b60008115159050919050565b61173881611723565b82525050565b6000602082019050611753600083018461172f565b92915050565b611762816116ad565b82525050565b600060208201905061177d6000830184611759565b92915050565b60008060006060848603121561179c5761179b611645565b5b60006117aa86828701611698565b93505060206117bb86828701611698565b92505060406117cc868287016116ce565b9150509250925092565b6000819050919050565b6117e9816117d6565b82525050565b600060208201905061180460008301846117e0565b92915050565b600060ff82169050919050565b6118208161180a565b82525050565b600060208201905061183b6000830184611817565b92915050565b600080fd5b600080fd5b600080fd5b60008083601f84011261186657611865611841565b5b8235905067ffffffffffffffff81111561188357611882611846565b5b60208301915083600182028301111561189f5761189e61184b565b5b9250929050565b6118af8161180a565b81146118ba57600080fd5b50565b6000813590506118cc816118a6565b92915050565b6000806000806000606086880312156118ee576118ed611645565b5b600086013567ffffffffffffffff81111561190c5761190b61164a565b5b61191888828901611850565b9550955050602086013567ffffffffffffffff81111561193b5761193a61164a565b5b61194788828901611850565b9350935050604061195a888289016118bd565b9150509295509295909350565b60006020828403121561197d5761197c611645565b5b600061198b84828501611698565b91505092915050565b61199d8161166f565b82525050565b60006020820190506119b86000830184611994565b92915050565b6119c7816117d6565b81146119d257600080fd5b50565b6000813590506119e4816119be565b92915050565b600080600080600080600060e0888a031215611a0957611a08611645565b5b6000611a178a828b01611698565b9750506020611a288a828b01611698565b9650506040611a398a828b016116ce565b9550506060611a4a8a828b016116ce565b9450506080611a5b8a828b016118bd565b93505060a0611a6c8a828b016119d5565b92505060c0611a7d8a828b016119d5565b91505092959891949750929550565b60008060408385031215611aa357611aa2611645565b5b6000611ab185828601611698565b9250506020611ac285828601611698565b9150509250929050565b7f4e487b7100000000000000000000000000000000000000000000000000000000600052602260045260246000fd5b60006002820490506001821680611b1357607f821691505b602082108103611b2657611b25611acc565b5b50919050565b600081905092915050565b60008190508160005260206000209050919050565b60008154611b5981611afb565b611b638186611b2c565b94506001821660008114611b7e5760018114611b9357611bc6565b60ff1983168652811515820286019350611bc6565b611b9c85611b37565b60005b83811015611bbe57815481890152600182019150602081019050611b9f565b838801955050505b50505092915050565b6000611bdb8284611b4c565b915081905092915050565b600060a082019050611bfb60008301886117e0565b611c0860208301876117e0565b611c1560408301866117e0565b611c226060830185611759565b611c2f6080830184611994565b9695505050505050565b7f4e487b7100000000000000000000000000000000000000000000000000000000600052601160045260246000fd5b6000611c73826116ad565b9150611c7e836116ad565b9250828201905080821115611c9657611c95611c39565b5b92915050565b600082905092915050565b7f4e487b7100000000000000000000000000000000000000000000000000000000600052604160045260246000fd5b60008190508160005260206000209050919050565b60006020601f8301049050919050565b600082821b905092915050565b600060088302611d387fffffffffffffffffffffffffffffffffffffffffffffffffffffffffffffffff82611cfb565b611d428683611cfb565b95508019841693508086168417925050509392505050565b6000819050919050565b6000611d7f611d7a611d75846116ad565b611d5a565b6116ad565b9050919050565b6000819050919050565b611d9983611d64565b611dad611da582611d86565b848454611d08565b825550505050565b600090565b611dc2611db5565b611dcd818484611d90565b505050565b5b81811015611df157611de6600082611dba565b600181019050611dd3565b5050565b601f821115611e3657611e0781611cd6565b611e1084611ceb565b81016020851015611e1f578190505b611e33611e2b85611ceb565b830182611dd2565b50505b505050565b600082821c905092915050565b6000611e5960001984600802611e3b565b1980831691505092915050565b6000611e728383611e48565b9150826002028217905092915050565b611e8c8383611c9c565b67ffffffffffffffff811115611ea557611ea4611ca7565b5b611eaf8254611afb565b611eba828285611df5565b6000601f831160018114611ee95760008415611ed7578287013590505b611ee18582611e66565b865550611f49565b601f198416611ef786611cd6565b60005b82811015611f1f57848901358255600182019150602085019450602081019050611efa565b86831015611f3c5784890135611f38601f891682611e48565b8355505b6001600288020188555050505b50505050505050565b7f45524332303a2064656372656173656420616c6c6f77616e63652062656c6f7760008201527f207a65726f000000000000000000000000000000000000000000000000000000602082015250565b6000611fae60258361159e565b9150611fb982611f52565b604082019050919050565b60006020820190508181036000830152611fdd81611fa1565b9050919050565b7f45524332305065726d69743a206578706972656420646561646c696e65000000600082015250565b600061201a601d8361159e565b915061202582611fe4565b602082019050919050565b600060208201905081810360008301526120498161200d565b9050919050565b600061205b826116ad565b91507fffffffffffffffffffffffffffffffffffffffffffffffffffffffffffffffff820361208d5761208c611c39565b5b600182019050919050565b600060c0820190506120ad60008301896117e0565b6120ba6020830188611994565b6120c76040830187611994565b6120d46060830186611759565b6120e16080830185611759565b6120ee60a0830184611759565b979650505050505050565b600081905092915050565b7f1901000000000000000000000000000000000000000000000000000000000000600082015250565b600061213a6002836120f9565b915061214582612104565b600282019050919050565b6000819050919050565b61216b612166826117d6565b612150565b82525050565b600061217c8261212d565b9150612188828561215a565b602082019150612198828461215a565b6020820191508190509392505050565b60006080820190506121bd60008301876117e0565b6121ca6020830186611817565b6121d760408301856117e0565b6121e460608301846117e0565b95945050505050565b7f45524332305065726d69743a20696e76616c6964207369676e61747572650000600082015250565b6000612223601e8361159e565b915061222e826121ed565b602082019050919050565b6000602082019050818103600083015261225281612216565b9050919050565b7f4f776e61626c653a206e6577206f776e657220697320746865207a65726f206160008201527f6464726573730000000000000000000000000000000000000000000000000000602082015250565b60006122b560268361159e565b91506122c082612259565b604082019050919050565b600060208201905081810360008301526122e4816122a8565b9050919050565b7f45524332303a20617070726f76652066726f6d20746865207a65726f2061646460008201527f7265737300000000000000000000000000000000000000000000000000000000602082015250565b600061234760248361159e565b9150612352826122eb565b604082019050919050565b600060208201905081810360008301526123768161233a565b9050919050565b7f45524332303a20617070726f766520746f20746865207a65726f20616464726560008201527f7373000000000000000000000000000000000000000000000000000000000000602082015250565b60006123d960228361159e565b91506123e48261237d565b604082019050919050565b60006020820190508181036000830152612408816123cc565b9050919050565b7f45524332303a20696e73756666696369656e7420616c6c6f77616e6365000000600082015250565b6000612445601d8361159e565b91506124508261240f565b602082019050919050565b6000602082019050818103600083015261247481612438565b9050919050565b7f45524332303a207472616e736665722066726f6d20746865207a65726f20616460008201527f6472657373000000000000000000000000000000000000000000000000000000602082015250565b60006124d760258361159e565b91506124e28261247b565b604082019050919050565b60006020820190508181036000830152612506816124ca565b9050919050565b7f45524332303a207472616e7366657220746f20746865207a65726f206164647260008201527f6573730000000000000000000000000000000000000000000000000000000000602082015250565b600061256960238361159e565b91506125748261250d565b604082019050919050565b600060208201905081810360008301526125988161255c565b9050919050565b7f45524332303a207472616e7366657220616d6f756e742065786365656473206260008201527f616c616e63650000000000000000000000000000000000000000000000000000602082015250565b60006125fb60268361159e565b91506126068261259f565b604082019050919050565b6000602082019050818103600083015261262a816125ee565b9050919050565b7f45524332303a206d696e7420746f20746865207a65726f206164647265737300600082015250565b6000612667601f8361159e565b915061267282612631565b602082019050919050565b600060208201905081810360008301526126968161265a565b9050919050565b7f4f776e61626c653a2063616c6c6572206973206e6f7420746865206f776e6572600082015250565b60006126d360208361159e565b91506126de8261269d565b602082019050919050565b60006020820190508181036000830152612702816126c6565b9050919050565b7f45524332303a206275726e2066726f6d20746865207a65726f2061646472657360008201527f7300000000000000000000000000000000000000000000000000000000000000602082015250565b600061276560218361159e565b915061277082612709565b604082019050919050565b6000602082019050818103600083015261279481612758565b9050919050565b7f45524332303a206275726e20616d6f756e7420657863656564732062616c616e60008201527f6365000000000000000000000000000000000000000000000000000000000000602082015250565b60006127f760228361159e565b91506128028261279b565b604082019050919050565b60006020820190508181036000830152612826816127ea565b905091905056fea2646970667358221220d56ab8efbaf76e579d097743c2c1dd6dbfdddad91078f6f73fa776eb3b95634564736f6c63430008100033",
  "devdoc": {
    "kind": "dev",
    "methods": {
      "DOMAIN_SEPARATOR()": {
        "details": "Returns the domain separator used in the encoding of the signature for {permit}, as defined by {EIP712}."
      },
      "allowance(address,address)": {
        "details": "See {IERC20-allowance}."
      },
      "approve(address,uint256)": {
        "details": "See {IERC20-approve}. NOTE: If `amount` is the maximum `uint256`, the allowance is not updated on `transferFrom`. This is semantically equivalent to an infinite approval. Requirements: - `spender` cannot be the zero address."
      },
      "balanceOf(address)": {
        "details": "See {IERC20-balanceOf}."
      },
      "burn(address,uint256)": {
        "details": "Emits a {Transfer} event with `to` set to the zero address. Requirements: - `_from` cannot be the zero address. - `_from` must have at least `_amnt` tokens.",
        "params": {
          "_amnt": "The amount of tokens to be destroyed",
          "_from": "The address from which to destroy the tokens"
        }
      },
      "decimals()": {
        "details": "Returns the number of decimals used to get its user representation. For example, if `decimals` equals `2`, a balance of `505` tokens should be displayed to a user as `5.05` (`505 / 10 ** 2`). Tokens usually opt for a value of 18, imitating the relationship between Ether and Wei. This is the value {ERC20} uses, unless this function is overridden; NOTE: This information is only used for _display_ purposes: it in no way affects any of the arithmetic of the contract, including {IERC20-balanceOf} and {IERC20-transfer}."
      },
      "decreaseAllowance(address,uint256)": {
        "details": "Atomically decreases the allowance granted to `spender` by the caller. This is an alternative to {approve} that can be used as a mitigation for problems described in {IERC20-approve}. Emits an {Approval} event indicating the updated allowance. Requirements: - `spender` cannot be the zero address. - `spender` must have allowance for the caller of at least `subtractedValue`."
      },
      "increaseAllowance(address,uint256)": {
        "details": "Atomically increases the allowance granted to `spender` by the caller. This is an alternative to {approve} that can be used as a mitigation for problems described in {IERC20-approve}. Emits an {Approval} event indicating the updated allowance. Requirements: - `spender` cannot be the zero address."
      },
      "mint(address,uint256)": {
        "details": "Emits a {Transfer} event with `from` set to the zero address. Requirements: - `to` cannot be the zero address.",
        "params": {
          "_amnt": "The amount of tokens to be minted",
          "_to": "The destination address"
        }
      },
      "name()": {
        "details": "Returns the name of the token."
      },
      "owner()": {
        "details": "Returns the address of the current owner."
      },
      "renounceOwnership()": {
        "details": "Leaves the contract without owner. It will not be possible to call `onlyOwner` functions anymore. Can only be called by the current owner. NOTE: Renouncing ownership will leave the contract without an owner, thereby removing any functionality that is only available to the owner."
      },
      "symbol()": {
        "details": "Returns the symbol of the token, usually a shorter version of the name."
      },
      "totalSupply()": {
        "details": "See {IERC20-totalSupply}."
      },
      "transfer(address,uint256)": {
        "details": "See {IERC20-transfer}. Requirements: - `to` cannot be the zero address. - the caller must have a balance of at least `amount`."
      },
      "transferFrom(address,address,uint256)": {
        "details": "See {IERC20-transferFrom}. Emits an {Approval} event indicating the updated allowance. This is not required by the EIP. See the note at the beginning of {ERC20}. NOTE: Does not update the allowance if the current allowance is the maximum `uint256`. Requirements: - `from` and `to` cannot be the zero address. - `from` must have a balance of at least `amount`. - the caller must have allowance for ``from``'s tokens of at least `amount`."
      },
      "transferOwnership(address)": {
        "details": "Transfers ownership of the contract to a new account (`newOwner`). Can only be called by the current owner."
      },
      "updateTokenInfo(string,string,uint8)": {
        "params": {
          "_newDecimals": "The new decimals",
          "_newName": "The new name",
          "_newSymbol": "The new symbol"
        }
      }
    },
    "version": 1
  },
  "userdoc": {
    "kind": "user",
    "methods": {
      "burn(address,uint256)": {
        "notice": "Destroys `_amnt` tokens from `_from`, reducing the total supply."
      },
      "mint(address,uint256)": {
        "notice": "Creates `_amnt` tokens and assigns them to `_to`, increasing the total supply. as this token is test, anybody could mint for a demo purposes"
      },
      "updateTokenInfo(string,string,uint8)": {
        "notice": "Update token info"
      }
    },
    "version": 1
  },
  "storageLayout": {
    "storage": [
      {
        "astId": 128,
        "contract": "contracts/PaymasterToken.sol:PaymasterToken",
        "label": "_balances",
        "offset": 0,
        "slot": "0",
        "type": "t_mapping(t_address,t_uint256)"
      },
      {
        "astId": 134,
        "contract": "contracts/PaymasterToken.sol:PaymasterToken",
        "label": "_allowances",
        "offset": 0,
        "slot": "1",
        "type": "t_mapping(t_address,t_mapping(t_address,t_uint256))"
      },
      {
        "astId": 136,
        "contract": "contracts/PaymasterToken.sol:PaymasterToken",
        "label": "_totalSupply",
        "offset": 0,
        "slot": "2",
        "type": "t_uint256"
      },
      {
        "astId": 138,
        "contract": "contracts/PaymasterToken.sol:PaymasterToken",
        "label": "_name",
        "offset": 0,
        "slot": "3",
        "type": "t_string_storage"
      },
      {
        "astId": 140,
        "contract": "contracts/PaymasterToken.sol:PaymasterToken",
        "label": "_symbol",
        "offset": 0,
        "slot": "4",
        "type": "t_string_storage"
      },
      {
        "astId": 7,
        "contract": "contracts/PaymasterToken.sol:PaymasterToken",
        "label": "_owner",
        "offset": 0,
        "slot": "5",
        "type": "t_address"
      },
      {
        "astId": 887,
        "contract": "contracts/PaymasterToken.sol:PaymasterToken",
        "label": "token",
        "offset": 0,
        "slot": "6",
        "type": "t_struct(Token)884_storage"
      },
      {
        "astId": 1025,
        "contract": "contracts/PaymasterToken.sol:PaymasterToken",
        "label": "_nonces",
        "offset": 0,
        "slot": "9",
        "type": "t_mapping(t_address,t_uint256)"
      }
    ],
    "types": {
      "t_address": {
        "encoding": "inplace",
        "label": "address",
        "numberOfBytes": "20"
      },
      "t_mapping(t_address,t_mapping(t_address,t_uint256))": {
        "encoding": "mapping",
        "key": "t_address",
        "label": "mapping(address => mapping(address => uint256))",
        "numberOfBytes": "32",
        "value": "t_mapping(t_address,t_uint256)"
      },
      "t_mapping(t_address,t_uint256)": {
        "encoding": "mapping",
        "key": "t_address",
        "label": "mapping(address => uint256)",
        "numberOfBytes": "32",
        "value": "t_uint256"
      },
      "t_string_storage": {
        "encoding": "bytes",
        "label": "string",
        "numberOfBytes": "32"
      },
      "t_struct(Token)884_storage": {
        "encoding": "inplace",
        "label": "struct PaymasterToken.Token",
        "members": [
          {
            "astId": 879,
            "contract": "contracts/PaymasterToken.sol:PaymasterToken",
            "label": "name",
            "offset": 0,
            "slot": "0",
            "type": "t_string_storage"
          },
          {
            "astId": 881,
            "contract": "contracts/PaymasterToken.sol:PaymasterToken",
            "label": "symbol",
            "offset": 0,
            "slot": "1",
            "type": "t_string_storage"
          },
          {
            "astId": 883,
            "contract": "contracts/PaymasterToken.sol:PaymasterToken",
            "label": "decimals",
            "offset": 0,
            "slot": "2",
            "type": "t_uint8"
          }
        ],
        "numberOfBytes": "96"
      },
      "t_uint256": {
        "encoding": "inplace",
        "label": "uint256",
        "numberOfBytes": "32"
      },
      "t_uint8": {
        "encoding": "inplace",
        "label": "uint8",
        "numberOfBytes": "1"
      }
    }
  }
}