{
  "address": "0x46Fd10571F1A34fa0136f6956e9D5b2D8F5A0334",
  "abi": [
    {
      "inputs": [
        {
          "internalType": "string",
          "name": "_name",
          "type": "string"
        },
        {
          "internalType": "string",
          "name": "_symbol",
          "type": "string"
        },
        {
          "internalType": "uint8",
          "name": "_decimals",
          "type": "uint8"
        }
      ],
      "stateMutability": "nonpayable",
      "type": "constructor"
    },
    {
      "anonymous": false,
      "inputs": [
        {
          "indexed": true,
          "internalType": "address",
          "name": "owner",
          "type": "address"
        },
        {
          "indexed": true,
          "internalType": "address",
          "name": "spender",
          "type": "address"
        },
        {
          "indexed": false,
          "internalType": "uint256",
          "name": "value",
          "type": "uint256"
        }
      ],
      "name": "Approval",
      "type": "event"
    },
    {
      "anonymous": false,
      "inputs": [
        {
          "indexed": true,
          "internalType": "address",
          "name": "previousOwner",
          "type": "address"
        },
        {
          "indexed": true,
          "internalType": "address",
          "name": "newOwner",
          "type": "address"
        }
      ],
      "name": "OwnershipTransferred",
      "type": "event"
    },
    {
      "anonymous": false,
      "inputs": [
        {
          "indexed": true,
          "internalType": "address",
          "name": "from",
          "type": "address"
        },
        {
          "indexed": true,
          "internalType": "address",
          "name": "to",
          "type": "address"
        },
        {
          "indexed": false,
          "internalType": "uint256",
          "name": "value",
          "type": "uint256"
        }
      ],
      "name": "Transfer",
      "type": "event"
    },
    {
      "inputs": [],
      "name": "DOMAIN_SEPARATOR",
      "outputs": [
        {
          "internalType": "bytes32",
          "name": "",
          "type": "bytes32"
        }
      ],
      "stateMutability": "view",
      "type": "function"
    },
    {
      "inputs": [],
      "name": "PERMIT_TYPEHASH",
      "outputs": [
        {
          "internalType": "bytes32",
          "name": "",
          "type": "bytes32"
        }
      ],
      "stateMutability": "view",
      "type": "function"
    },
    {
      "inputs": [],
      "name": "VERSION",
      "outputs": [
        {
          "internalType": "string",
          "name": "",
          "type": "string"
        }
      ],
      "stateMutability": "view",
      "type": "function"
    },
    {
      "inputs": [
        {
          "internalType": "address",
          "name": "owner",
          "type": "address"
        },
        {
          "internalType": "address",
          "name": "spender",
          "type": "address"
        }
      ],
      "name": "allowance",
      "outputs": [
        {
          "internalType": "uint256",
          "name": "",
          "type": "uint256"
        }
      ],
      "stateMutability": "view",
      "type": "function"
    },
    {
      "inputs": [
        {
          "internalType": "address",
          "name": "spender",
          "type": "address"
        },
        {
          "internalType": "uint256",
          "name": "amount",
          "type": "uint256"
        }
      ],
      "name": "approve",
      "outputs": [
        {
          "internalType": "bool",
          "name": "",
          "type": "bool"
        }
      ],
      "stateMutability": "nonpayable",
      "type": "function"
    },
    {
      "inputs": [
        {
          "internalType": "address",
          "name": "account",
          "type": "address"
        }
      ],
      "name": "balanceOf",
      "outputs": [
        {
          "internalType": "uint256",
          "name": "",
          "type": "uint256"
        }
      ],
      "stateMutability": "view",
      "type": "function"
    },
    {
      "inputs": [
        {
          "internalType": "address",
          "name": "_from",
          "type": "address"
        },
        {
          "internalType": "uint256",
          "name": "_amnt",
          "type": "uint256"
        }
      ],
      "name": "burn",
      "outputs": [],
      "stateMutability": "nonpayable",
      "type": "function"
    },
    {
      "inputs": [],
      "name": "decimals",
      "outputs": [
        {
          "internalType": "uint8",
          "name": "",
          "type": "uint8"
        }
      ],
      "stateMutability": "view",
      "type": "function"
    },
    {
      "inputs": [
        {
          "internalType": "address",
          "name": "spender",
          "type": "address"
        },
        {
          "internalType": "uint256",
          "name": "subtractedValue",
          "type": "uint256"
        }
      ],
      "name": "decreaseAllowance",
      "outputs": [
        {
          "internalType": "bool",
          "name": "",
          "type": "bool"
        }
      ],
      "stateMutability": "nonpayable",
      "type": "function"
    },
    {
      "inputs": [
        {
          "internalType": "address",
          "name": "spender",
          "type": "address"
        },
        {
          "internalType": "uint256",
          "name": "addedValue",
          "type": "uint256"
        }
      ],
      "name": "increaseAllowance",
      "outputs": [
        {
          "internalType": "bool",
          "name": "",
          "type": "bool"
        }
      ],
      "stateMutability": "nonpayable",
      "type": "function"
    },
    {
      "inputs": [
        {
          "internalType": "address",
          "name": "_to",
          "type": "address"
        },
        {
          "internalType": "uint256",
          "name": "_amnt",
          "type": "uint256"
        }
      ],
      "name": "mint",
      "outputs": [],
      "stateMutability": "nonpayable",
      "type": "function"
    },
    {
      "inputs": [],
      "name": "name",
      "outputs": [
        {
          "internalType": "string",
          "name": "",
          "type": "string"
        }
      ],
      "stateMutability": "view",
      "type": "function"
    },
    {
      "inputs": [
        {
          "internalType": "address",
          "name": "_owner",
          "type": "address"
        }
      ],
      "name": "nonces",
      "outputs": [
        {
          "internalType": "uint256",
          "name": "",
          "type": "uint256"
        }
      ],
      "stateMutability": "view",
      "type": "function"
    },
    {
      "inputs": [],
      "name": "owner",
      "outputs": [
        {
          "internalType": "address",
          "name": "",
          "type": "address"
        }
      ],
      "stateMutability": "view",
      "type": "function"
    },
    {
      "inputs": [
        {
          "internalType": "address",
          "name": "_owner",
          "type": "address"
        },
        {
          "internalType": "address",
          "name": "_spender",
          "type": "address"
        },
        {
          "internalType": "uint256",
          "name": "_value",
          "type": "uint256"
        },
        {
          "internalType": "uint256",
          "name": "_deadline",
          "type": "uint256"
        },
        {
          "internalType": "uint8",
          "name": "_v",
          "type": "uint8"
        },
        {
          "internalType": "bytes32",
          "name": "_r",
          "type": "bytes32"
        },
        {
          "internalType": "bytes32",
          "name": "_s",
          "type": "bytes32"
        }
      ],
      "name": "permit",
      "outputs": [],
      "stateMutability": "nonpayable",
      "type": "function"
    },
    {
      "inputs": [],
      "name": "renounceOwnership",
      "outputs": [],
      "stateMutability": "nonpayable",
      "type": "function"
    },
    {
      "inputs": [],
      "name": "symbol",
      "outputs": [
        {
          "internalType": "string",
          "name": "",
          "type": "string"
        }
      ],
      "stateMutability": "view",
      "type": "function"
    },
    {
      "inputs": [],
      "name": "totalSupply",
      "outputs": [
        {
          "internalType": "uint256",
          "name": "",
          "type": "uint256"
        }
      ],
      "stateMutability": "view",
      "type": "function"
    },
    {
      "inputs": [
        {
          "internalType": "address",
          "name": "to",
          "type": "address"
        },
        {
          "internalType": "uint256",
          "name": "amount",
          "type": "uint256"
        }
      ],
      "name": "transfer",
      "outputs": [
        {
          "internalType": "bool",
          "name": "",
          "type": "bool"
        }
      ],
      "stateMutability": "nonpayable",
      "type": "function"
    },
    {
      "inputs": [
        {
          "internalType": "address",
          "name": "from",
          "type": "address"
        },
        {
          "internalType": "address",
          "name": "to",
          "type": "address"
        },
        {
          "internalType": "uint256",
          "name": "amount",
          "type": "uint256"
        }
      ],
      "name": "transferFrom",
      "outputs": [
        {
          "internalType": "bool",
          "name": "",
          "type": "bool"
        }
      ],
      "stateMutability": "nonpayable",
      "type": "function"
    },
    {
      "inputs": [
        {
          "internalType": "address",
          "name": "newOwner",
          "type": "address"
        }
      ],
      "name": "transferOwnership",
      "outputs": [],
      "stateMutability": "nonpayable",
      "type": "function"
    },
    {
      "inputs": [
        {
          "internalType": "string",
          "name": "_newName",
          "type": "string"
        },
        {
          "internalType": "string",
          "name": "_newSymbol",
          "type": "string"
        },
        {
          "internalType": "uint8",
          "name": "_newDecimals",
          "type": "uint8"
        }
      ],
      "name": "updateTokenInfo",
      "outputs": [],
      "stateMutability": "nonpayable",
      "type": "function"
    }
  ],
  "transactionHash": "0xdd5b2ba6f5dae173370811d65ba90be29adac2d98c1d4859afe511044759ee3a",
  "args": [
    "Gasless Token",
    "GT",
    18
  ],
  "numDeployments": 1,
  "solcInputHash": "4dd181c7fb20a34804bfe3ad051f453e",
  "bytecode": "0x60806040523480156200001157600080fd5b5060405162002fb638038062002fb683398181016040528101906200003791906200036f565b828281600390816200004a919062000654565b5080600490816200005c919062000654565b5050506200007f62000073620000d060201b60201c565b620000d860201b60201c565b826006600001908162000093919062000654565b508160066001019081620000a8919062000654565b5080600660020160006101000a81548160ff021916908360ff1602179055505050506200073b565b600033905090565b6000600560009054906101000a900473ffffffffffffffffffffffffffffffffffffffff16905081600560006101000a81548173ffffffffffffffffffffffffffffffffffffffff021916908373ffffffffffffffffffffffffffffffffffffffff1602179055508173ffffffffffffffffffffffffffffffffffffffff168173ffffffffffffffffffffffffffffffffffffffff167f8be0079c531659141344cd1fd0a4f28419497f9722a3daafe3b4186f6b6457e060405160405180910390a35050565b6000604051905090565b600080fd5b600080fd5b600080fd5b600080fd5b6000601f19601f8301169050919050565b7f4e487b7100000000000000000000000000000000000000000000000000000000600052604160045260246000fd5b6200020782620001bc565b810181811067ffffffffffffffff82111715620002295762000228620001cd565b5b80604052505050565b60006200023e6200019e565b90506200024c8282620001fc565b919050565b600067ffffffffffffffff8211156200026f576200026e620001cd565b5b6200027a82620001bc565b9050602081019050919050565b60005b83811015620002a75780820151818401526020810190506200028a565b60008484015250505050565b6000620002ca620002c48462000251565b62000232565b905082815260208101848484011115620002e957620002e8620001b7565b5b620002f684828562000287565b509392505050565b600082601f830112620003165762000315620001b2565b5b815162000328848260208601620002b3565b91505092915050565b600060ff82169050919050565b620003498162000331565b81146200035557600080fd5b50565b60008151905062000369816200033e565b92915050565b6000806000606084860312156200038b576200038a620001a8565b5b600084015167ffffffffffffffff811115620003ac57620003ab620001ad565b5b620003ba86828701620002fe565b935050602084015167ffffffffffffffff811115620003de57620003dd620001ad565b5b620003ec86828701620002fe565b9250506040620003ff8682870162000358565b9150509250925092565b600081519050919050565b7f4e487b7100000000000000000000000000000000000000000000000000000000600052602260045260246000fd5b600060028204905060018216806200045c57607f821691505b60208210810362000472576200047162000414565b5b50919050565b60008190508160005260206000209050919050565b60006020601f8301049050919050565b600082821b905092915050565b600060088302620004dc7fffffffffffffffffffffffffffffffffffffffffffffffffffffffffffffffff826200049d565b620004e886836200049d565b95508019841693508086168417925050509392505050565b6000819050919050565b6000819050919050565b6000620005356200052f620005298462000500565b6200050a565b62000500565b9050919050565b6000819050919050565b620005518362000514565b6200056962000560826200053c565b848454620004aa565b825550505050565b600090565b6200058062000571565b6200058d81848462000546565b505050565b5b81811015620005b557620005a960008262000576565b60018101905062000593565b5050565b601f8211156200060457620005ce8162000478565b620005d9846200048d565b81016020851015620005e9578190505b62000601620005f8856200048d565b83018262000592565b50505b505050565b600082821c905092915050565b6000620006296000198460080262000609565b1980831691505092915050565b600062000644838362000616565b9150826002028217905092915050565b6200065f8262000409565b67ffffffffffffffff8111156200067b576200067a620001cd565b5b62000687825462000443565b62000694828285620005b9565b600060209050601f831160018114620006cc5760008415620006b7578287015190505b620006c3858262000636565b86555062000733565b601f198416620006dc8662000478565b60005b828110156200070657848901518255600182019150602085019450602081019050620006df565b8683101562000726578489015162000722601f89168262000616565b8355505b6001600288020188555050505b505050505050565b61286b806200074b6000396000f3fe608060405234801561001057600080fd5b50600436106101425760003560e01c8063715018a6116100b8578063a457c2d71161007c578063a457c2d714610367578063a9059cbb14610397578063d505accf146103c7578063dd62ed3e146103e3578063f2fde38b14610413578063ffa1ad741461042f57610142565b8063715018a6146102d55780637ecebe00146102df5780638da5cb5b1461030f57806395d89b411461032d5780639dc29fac1461034b57610142565b8063313ce5671161010a578063313ce567146102015780633644e5151461021f578063395093511461023d57806340c10f191461026d5780635de31f7a1461028957806370a08231146102a557610142565b806306fdde0314610147578063095ea7b31461016557806318160ddd1461019557806323b872dd146101b357806330adf81f146101e3575b600080fd5b61014f61044d565b60405161015c919061162b565b60405180910390f35b61017f600480360381019061017a91906116eb565b6104e2565b60405161018c9190611746565b60405180910390f35b61019d610505565b6040516101aa9190611770565b60405180910390f35b6101cd60048036038101906101c8919061178b565b61050f565b6040516101da9190611746565b60405180910390f35b6101eb61053e565b6040516101f891906117f7565b60405180910390f35b610209610562565b604051610216919061182e565b60405180910390f35b61022761057c565b60405161023491906117f7565b60405180910390f35b610257600480360381019061025291906116eb565b61062c565b6040516102649190611746565b60405180910390f35b610287600480360381019061028291906116eb565b610663565b005b6102a3600480360381019061029e91906118da565b610679565b005b6102bf60048036038101906102ba919061196f565b6106d0565b6040516102cc9190611770565b60405180910390f35b6102dd610718565b005b6102f960048036038101906102f4919061196f565b61072c565b6040516103069190611770565b60405180910390f35b610317610775565b60405161032491906119ab565b60405180910390f35b61033561079f565b604051610342919061162b565b60405180910390f35b610365600480360381019061036091906116eb565b610834565b005b610381600480360381019061037c91906116eb565b61084a565b60405161038e9190611746565b60405180910390f35b6103b160048036038101906103ac91906116eb565b6108c1565b6040516103be9190611746565b60405180910390f35b6103e160048036038101906103dc91906119f2565b6108e4565b005b6103fd60048036038101906103f89190611a94565b610b14565b60405161040a9190611770565b60405180910390f35b61042d6004803603810190610428919061196f565b610b9b565b005b610437610c1e565b604051610444919061162b565b60405180910390f35b60606006600001805461045f90611b03565b80601f016020809104026020016040519081016040528092919081815260200182805461048b90611b03565b80156104d85780601f106104ad576101008083540402835291602001916104d8565b820191906000526020600020905b8154815290600101906020018083116104bb57829003601f168201915b5050505050905090565b6000806104ed610c57565b90506104fa818585610c5f565b600191505092915050565b6000600254905090565b60008061051a610c57565b9050610527858285610e28565b610532858585610eb4565b60019150509392505050565b7f6e71edae12b1b97f4d1f60370fef10105fa2faae0126114a169c64845d6126c981565b6000600660020160009054906101000a900460ff16905090565b6000804690507f8b73c3c69bb8fe3d512ecc4cf759cc79239f7b179b0ffacaa9a75d522b39400f60066000016040516105b59190611bd7565b60405180910390206040518060400160405280600181526020017f3100000000000000000000000000000000000000000000000000000000000000815250805190602001208330604051602001610610959493929190611bee565b6040516020818303038152906040528051906020012091505090565b600080610637610c57565b90506106588185856106498589610b14565b6106539190611c70565b610c5f565b600191505092915050565b61066b61112a565b61067582826111a8565b5050565b61068161112a565b848460066000019182610695929190611e8a565b508282600660010191826106aa929190611e8a565b5080600660020160006101000a81548160ff021916908360ff1602179055505050505050565b60008060008373ffffffffffffffffffffffffffffffffffffffff1673ffffffffffffffffffffffffffffffffffffffff168152602001908152602001600020549050919050565b61072061112a565b61072a60006112fe565b565b6000600960008373ffffffffffffffffffffffffffffffffffffffff1673ffffffffffffffffffffffffffffffffffffffff168152602001908152602001600020549050919050565b6000600560009054906101000a900473ffffffffffffffffffffffffffffffffffffffff16905090565b6060600660010180546107b190611b03565b80601f01602080910402602001604051908101604052809291908181526020018280546107dd90611b03565b801561082a5780601f106107ff5761010080835404028352916020019161082a565b820191906000526020600020905b81548152906001019060200180831161080d57829003601f168201915b5050505050905090565b61083c61112a565b61084682826113c4565b5050565b600080610855610c57565b905060006108638286610b14565b9050838110156108a8576040517f08c379a000000000000000000000000000000000000000000000000000000000815260040161089f90611fcc565b60405180910390fd5b6108b58286868403610c5f565b60019250505092915050565b6000806108cc610c57565b90506108d9818585610eb4565b600191505092915050565b42841015610927576040517f08c379a000000000000000000000000000000000000000000000000000000000815260040161091e90612038565b60405180910390fd5b60007f6e71edae12b1b97f4d1f60370fef10105fa2faae0126114a169c64845d6126c9888888600960008d73ffffffffffffffffffffffffffffffffffffffff1673ffffffffffffffffffffffffffffffffffffffff168152602001908152602001600020600081548092919061099d90612058565b91905055896040516020016109b7969594939291906120a0565b60405160208183030381529060405280519060200120905060006109d961057c565b826040516020016109eb929190612179565b604051602081830303815290604052805190602001209050600060018287878760405160008152602001604052604051610a2894939291906121b0565b6020604051602081039080840390855afa158015610a4a573d6000803e3d6000fd5b505050602060405103519050600073ffffffffffffffffffffffffffffffffffffffff168173ffffffffffffffffffffffffffffffffffffffff1614158015610abe57508973ffffffffffffffffffffffffffffffffffffffff168173ffffffffffffffffffffffffffffffffffffffff16145b610afd576040517f08c379a0000000000000000000000000000000000000000000000000000000008152600401610af490612241565b60405180910390fd5b610b088a8a8a610c5f565b50505050505050505050565b6000600160008473ffffffffffffffffffffffffffffffffffffffff1673ffffffffffffffffffffffffffffffffffffffff16815260200190815260200160002060008373ffffffffffffffffffffffffffffffffffffffff1673ffffffffffffffffffffffffffffffffffffffff16815260200190815260200160002054905092915050565b610ba361112a565b600073ffffffffffffffffffffffffffffffffffffffff168173ffffffffffffffffffffffffffffffffffffffff1603610c12576040517f08c379a0000000000000000000000000000000000000000000000000000000008152600401610c09906122d3565b60405180910390fd5b610c1b816112fe565b50565b6040518060400160405280600181526020017f310000000000000000000000000000000000000000000000000000000000000081525081565b600033905090565b600073ffffffffffffffffffffffffffffffffffffffff168373ffffffffffffffffffffffffffffffffffffffff1603610cce576040517f08c379a0000000000000000000000000000000000000000000000000000000008152600401610cc590612365565b60405180910390fd5b600073ffffffffffffffffffffffffffffffffffffffff168273ffffffffffffffffffffffffffffffffffffffff1603610d3d576040517f08c379a0000000000000000000000000000000000000000000000000000000008152600401610d34906123f7565b60405180910390fd5b80600160008573ffffffffffffffffffffffffffffffffffffffff1673ffffffffffffffffffffffffffffffffffffffff16815260200190815260200160002060008473ffffffffffffffffffffffffffffffffffffffff1673ffffffffffffffffffffffffffffffffffffffff168152602001908152602001600020819055508173ffffffffffffffffffffffffffffffffffffffff168373ffffffffffffffffffffffffffffffffffffffff167f8c5be1e5ebec7d5bd14f71427d1e84f3dd0314c0f7b2291e5b200ac8c7c3b92583604051610e1b9190611770565b60405180910390a3505050565b6000610e348484610b14565b90507fffffffffffffffffffffffffffffffffffffffffffffffffffffffffffffffff8114610eae5781811015610ea0576040517f08c379a0000000000000000000000000000000000000000000000000000000008152600401610e9790612463565b60405180910390fd5b610ead8484848403610c5f565b5b50505050565b600073ffffffffffffffffffffffffffffffffffffffff168373ffffffffffffffffffffffffffffffffffffffff1603610f23576040517f08c379a0000000000000000000000000000000000000000000000000000000008152600401610f1a906124f5565b60405180910390fd5b600073ffffffffffffffffffffffffffffffffffffffff168273ffffffffffffffffffffffffffffffffffffffff1603610f92576040517f08c379a0000000000000000000000000000000000000000000000000000000008152600401610f8990612587565b60405180910390fd5b610f9d838383611591565b60008060008573ffffffffffffffffffffffffffffffffffffffff1673ffffffffffffffffffffffffffffffffffffffff16815260200190815260200160002054905081811015611023576040517f08c379a000000000000000000000000000000000000000000000000000000000815260040161101a90612619565b60405180910390fd5b8181036000808673ffffffffffffffffffffffffffffffffffffffff1673ffffffffffffffffffffffffffffffffffffffff16815260200190815260200160002081905550816000808573ffffffffffffffffffffffffffffffffffffffff1673ffffffffffffffffffffffffffffffffffffffff168152602001908152602001600020600082825401925050819055508273ffffffffffffffffffffffffffffffffffffffff168473ffffffffffffffffffffffffffffffffffffffff167fddf252ad1be2c89b69c2b068fc378daa952ba7f163c4a11628f55a4df523b3ef846040516111119190611770565b60405180910390a3611124848484611596565b50505050565b611132610c57565b73ffffffffffffffffffffffffffffffffffffffff16611150610775565b73ffffffffffffffffffffffffffffffffffffffff16146111a6576040517f08c379a000000000000000000000000000000000000000000000000000000000815260040161119d90612685565b60405180910390fd5b565b600073ffffffffffffffffffffffffffffffffffffffff168273ffffffffffffffffffffffffffffffffffffffff1603611217576040517f08c379a000000000000000000000000000000000000000000000000000000000815260040161120e906126f1565b60405180910390fd5b61122360008383611591565b80600260008282546112359190611c70565b92505081905550806000808473ffffffffffffffffffffffffffffffffffffffff1673ffffffffffffffffffffffffffffffffffffffff168152602001908152602001600020600082825401925050819055508173ffffffffffffffffffffffffffffffffffffffff16600073ffffffffffffffffffffffffffffffffffffffff167fddf252ad1be2c89b69c2b068fc378daa952ba7f163c4a11628f55a4df523b3ef836040516112e69190611770565b60405180910390a36112fa60008383611596565b5050565b6000600560009054906101000a900473ffffffffffffffffffffffffffffffffffffffff16905081600560006101000a81548173ffffffffffffffffffffffffffffffffffffffff021916908373ffffffffffffffffffffffffffffffffffffffff1602179055508173ffffffffffffffffffffffffffffffffffffffff168173ffffffffffffffffffffffffffffffffffffffff167f8be0079c531659141344cd1fd0a4f28419497f9722a3daafe3b4186f6b6457e060405160405180910390a35050565b600073ffffffffffffffffffffffffffffffffffffffff168273ffffffffffffffffffffffffffffffffffffffff1603611433576040517f08c379a000000000000000000000000000000000000000000000000000000000815260040161142a90612783565b60405180910390fd5b61143f82600083611591565b60008060008473ffffffffffffffffffffffffffffffffffffffff1673ffffffffffffffffffffffffffffffffffffffff168152602001908152602001600020549050818110156114c5576040517f08c379a00000000000000000000000000000000000000000000000000000000081526004016114bc90612815565b60405180910390fd5b8181036000808573ffffffffffffffffffffffffffffffffffffffff1673ffffffffffffffffffffffffffffffffffffffff1681526020019081526020016000208190555081600260008282540392505081905550600073ffffffffffffffffffffffffffffffffffffffff168373ffffffffffffffffffffffffffffffffffffffff167fddf252ad1be2c89b69c2b068fc378daa952ba7f163c4a11628f55a4df523b3ef846040516115789190611770565b60405180910390a361158c83600084611596565b505050565b505050565b505050565b600081519050919050565b600082825260208201905092915050565b60005b838110156115d55780820151818401526020810190506115ba565b60008484015250505050565b6000601f19601f8301169050919050565b60006115fd8261159b565b61160781856115a6565b93506116178185602086016115b7565b611620816115e1565b840191505092915050565b6000602082019050818103600083015261164581846115f2565b905092915050565b600080fd5b600080fd5b600073ffffffffffffffffffffffffffffffffffffffff82169050919050565b600061168282611657565b9050919050565b61169281611677565b811461169d57600080fd5b50565b6000813590506116af81611689565b92915050565b6000819050919050565b6116c8816116b5565b81146116d357600080fd5b50565b6000813590506116e5816116bf565b92915050565b600080604083850312156117025761170161164d565b5b6000611710858286016116a0565b9250506020611721858286016116d6565b9150509250929050565b60008115159050919050565b6117408161172b565b82525050565b600060208201905061175b6000830184611737565b92915050565b61176a816116b5565b82525050565b60006020820190506117856000830184611761565b92915050565b6000806000606084860312156117a4576117a361164d565b5b60006117b2868287016116a0565b93505060206117c3868287016116a0565b92505060406117d4868287016116d6565b9150509250925092565b6000819050919050565b6117f1816117de565b82525050565b600060208201905061180c60008301846117e8565b92915050565b600060ff82169050919050565b61182881611812565b82525050565b6000602082019050611843600083018461181f565b92915050565b600080fd5b600080fd5b600080fd5b60008083601f84011261186e5761186d611849565b5b8235905067ffffffffffffffff81111561188b5761188a61184e565b5b6020830191508360018202830111156118a7576118a6611853565b5b9250929050565b6118b781611812565b81146118c257600080fd5b50565b6000813590506118d4816118ae565b92915050565b6000806000806000606086880312156118f6576118f561164d565b5b600086013567ffffffffffffffff81111561191457611913611652565b5b61192088828901611858565b9550955050602086013567ffffffffffffffff81111561194357611942611652565b5b61194f88828901611858565b93509350506040611962888289016118c5565b9150509295509295909350565b6000602082840312156119855761198461164d565b5b6000611993848285016116a0565b91505092915050565b6119a581611677565b82525050565b60006020820190506119c0600083018461199c565b92915050565b6119cf816117de565b81146119da57600080fd5b50565b6000813590506119ec816119c6565b92915050565b600080600080600080600060e0888a031215611a1157611a1061164d565b5b6000611a1f8a828b016116a0565b9750506020611a308a828b016116a0565b9650506040611a418a828b016116d6565b9550506060611a528a828b016116d6565b9450506080611a638a828b016118c5565b93505060a0611a748a828b016119dd565b92505060c0611a858a828b016119dd565b91505092959891949750929550565b60008060408385031215611aab57611aaa61164d565b5b6000611ab9858286016116a0565b9250506020611aca858286016116a0565b9150509250929050565b7f4e487b7100000000000000000000000000000000000000000000000000000000600052602260045260246000fd5b60006002820490506001821680611b1b57607f821691505b602082108103611b2e57611b2d611ad4565b5b50919050565b600081905092915050565b60008190508160005260206000209050919050565b60008154611b6181611b03565b611b6b8186611b34565b94506001821660008114611b865760018114611b9b57611bce565b60ff1983168652811515820286019350611bce565b611ba485611b3f565b60005b83811015611bc657815481890152600182019150602081019050611ba7565b838801955050505b50505092915050565b6000611be38284611b54565b915081905092915050565b600060a082019050611c0360008301886117e8565b611c1060208301876117e8565b611c1d60408301866117e8565b611c2a6060830185611761565b611c37608083018461199c565b9695505050505050565b7f4e487b7100000000000000000000000000000000000000000000000000000000600052601160045260246000fd5b6000611c7b826116b5565b9150611c86836116b5565b9250828201905080821115611c9e57611c9d611c41565b5b92915050565b600082905092915050565b7f4e487b7100000000000000000000000000000000000000000000000000000000600052604160045260246000fd5b60008190508160005260206000209050919050565b60006020601f8301049050919050565b600082821b905092915050565b600060088302611d407fffffffffffffffffffffffffffffffffffffffffffffffffffffffffffffffff82611d03565b611d4a8683611d03565b95508019841693508086168417925050509392505050565b6000819050919050565b6000611d87611d82611d7d846116b5565b611d62565b6116b5565b9050919050565b6000819050919050565b611da183611d6c565b611db5611dad82611d8e565b848454611d10565b825550505050565b600090565b611dca611dbd565b611dd5818484611d98565b505050565b5b81811015611df957611dee600082611dc2565b600181019050611ddb565b5050565b601f821115611e3e57611e0f81611cde565b611e1884611cf3565b81016020851015611e27578190505b611e3b611e3385611cf3565b830182611dda565b50505b505050565b600082821c905092915050565b6000611e6160001984600802611e43565b1980831691505092915050565b6000611e7a8383611e50565b9150826002028217905092915050565b611e948383611ca4565b67ffffffffffffffff811115611ead57611eac611caf565b5b611eb78254611b03565b611ec2828285611dfd565b6000601f831160018114611ef15760008415611edf578287013590505b611ee98582611e6e565b865550611f51565b601f198416611eff86611cde565b60005b82811015611f2757848901358255600182019150602085019450602081019050611f02565b86831015611f445784890135611f40601f891682611e50565b8355505b6001600288020188555050505b50505050505050565b7f45524332303a2064656372656173656420616c6c6f77616e63652062656c6f7760008201527f207a65726f000000000000000000000000000000000000000000000000000000602082015250565b6000611fb66025836115a6565b9150611fc182611f5a565b604082019050919050565b60006020820190508181036000830152611fe581611fa9565b9050919050565b7f45524332305065726d69743a206578706972656420646561646c696e65000000600082015250565b6000612022601d836115a6565b915061202d82611fec565b602082019050919050565b6000602082019050818103600083015261205181612015565b9050919050565b6000612063826116b5565b91507fffffffffffffffffffffffffffffffffffffffffffffffffffffffffffffffff820361209557612094611c41565b5b600182019050919050565b600060c0820190506120b560008301896117e8565b6120c2602083018861199c565b6120cf604083018761199c565b6120dc6060830186611761565b6120e96080830185611761565b6120f660a0830184611761565b979650505050505050565b600081905092915050565b7f1901000000000000000000000000000000000000000000000000000000000000600082015250565b6000612142600283612101565b915061214d8261210c565b600282019050919050565b6000819050919050565b61217361216e826117de565b612158565b82525050565b600061218482612135565b91506121908285612162565b6020820191506121a08284612162565b6020820191508190509392505050565b60006080820190506121c560008301876117e8565b6121d2602083018661181f565b6121df60408301856117e8565b6121ec60608301846117e8565b95945050505050565b7f45524332305065726d69743a20696e76616c6964207369676e61747572650000600082015250565b600061222b601e836115a6565b9150612236826121f5565b602082019050919050565b6000602082019050818103600083015261225a8161221e565b9050919050565b7f4f776e61626c653a206e6577206f776e657220697320746865207a65726f206160008201527f6464726573730000000000000000000000000000000000000000000000000000602082015250565b60006122bd6026836115a6565b91506122c882612261565b604082019050919050565b600060208201905081810360008301526122ec816122b0565b9050919050565b7f45524332303a20617070726f76652066726f6d20746865207a65726f2061646460008201527f7265737300000000000000000000000000000000000000000000000000000000602082015250565b600061234f6024836115a6565b915061235a826122f3565b604082019050919050565b6000602082019050818103600083015261237e81612342565b9050919050565b7f45524332303a20617070726f766520746f20746865207a65726f20616464726560008201527f7373000000000000000000000000000000000000000000000000000000000000602082015250565b60006123e16022836115a6565b91506123ec82612385565b604082019050919050565b60006020820190508181036000830152612410816123d4565b9050919050565b7f45524332303a20696e73756666696369656e7420616c6c6f77616e6365000000600082015250565b600061244d601d836115a6565b915061245882612417565b602082019050919050565b6000602082019050818103600083015261247c81612440565b9050919050565b7f45524332303a207472616e736665722066726f6d20746865207a65726f20616460008201527f6472657373000000000000000000000000000000000000000000000000000000602082015250565b60006124df6025836115a6565b91506124ea82612483565b604082019050919050565b6000602082019050818103600083015261250e816124d2565b9050919050565b7f45524332303a207472616e7366657220746f20746865207a65726f206164647260008201527f6573730000000000000000000000000000000000000000000000000000000000602082015250565b60006125716023836115a6565b915061257c82612515565b604082019050919050565b600060208201905081810360008301526125a081612564565b9050919050565b7f45524332303a207472616e7366657220616d6f756e742065786365656473206260008201527f616c616e63650000000000000000000000000000000000000000000000000000602082015250565b60006126036026836115a6565b915061260e826125a7565b604082019050919050565b60006020820190508181036000830152612632816125f6565b9050919050565b7f4f776e61626c653a2063616c6c6572206973206e6f7420746865206f776e6572600082015250565b600061266f6020836115a6565b915061267a82612639565b602082019050919050565b6000602082019050818103600083015261269e81612662565b9050919050565b7f45524332303a206d696e7420746f20746865207a65726f206164647265737300600082015250565b60006126db601f836115a6565b91506126e6826126a5565b602082019050919050565b6000602082019050818103600083015261270a816126ce565b9050919050565b7f45524332303a206275726e2066726f6d20746865207a65726f2061646472657360008201527f7300000000000000000000000000000000000000000000000000000000000000602082015250565b600061276d6021836115a6565b915061277882612711565b604082019050919050565b6000602082019050818103600083015261279c81612760565b9050919050565b7f45524332303a206275726e20616d6f756e7420657863656564732062616c616e60008201527f6365000000000000000000000000000000000000000000000000000000000000602082015250565b60006127ff6022836115a6565b915061280a826127a3565b604082019050919050565b6000602082019050818103600083015261282e816127f2565b905091905056fea26469706673582212206fd3ef7a195a5160560b594f505c349230fe47a003a15152154260eb8a528e7c64736f6c63430008100033",
  "devdoc": {
    "kind": "dev",
    "methods": {
      "DOMAIN_SEPARATOR()": {
        "details": "Returns the domain separator used in the encoding of the signature for {permit}, as defined by {EIP712}."
      },
      "allowance(address,address)": {
        "details": "See {IERC20-allowance}."
      },
      "approve(address,uint256)": {
        "details": "See {IERC20-approve}. NOTE: If `amount` is the maximum `uint256`, the allowance is not updated on `transferFrom`. This is semantically equivalent to an infinite approval. Requirements: - `spender` cannot be the zero address."
      },
      "balanceOf(address)": {
        "details": "See {IERC20-balanceOf}."
      },
      "burn(address,uint256)": {
        "details": "Emits a {Transfer} event with `to` set to the zero address. Requirements: - `_from` cannot be the zero address. - `_from` must have at least `_amnt` tokens.",
        "params": {
          "_amnt": "The amount of tokens to be destroyed",
          "_from": "The address from which to destroy the tokens"
        }
      },
      "decimals()": {
        "details": "Returns the number of decimals used to get its user representation. For example, if `decimals` equals `2`, a balance of `505` tokens should be displayed to a user as `5.05` (`505 / 10 ** 2`). Tokens usually opt for a value of 18, imitating the relationship between Ether and Wei. This is the value {ERC20} uses, unless this function is overridden; NOTE: This information is only used for _display_ purposes: it in no way affects any of the arithmetic of the contract, including {IERC20-balanceOf} and {IERC20-transfer}."
      },
      "decreaseAllowance(address,uint256)": {
        "details": "Atomically decreases the allowance granted to `spender` by the caller. This is an alternative to {approve} that can be used as a mitigation for problems described in {IERC20-approve}. Emits an {Approval} event indicating the updated allowance. Requirements: - `spender` cannot be the zero address. - `spender` must have allowance for the caller of at least `subtractedValue`."
      },
      "increaseAllowance(address,uint256)": {
        "details": "Atomically increases the allowance granted to `spender` by the caller. This is an alternative to {approve} that can be used as a mitigation for problems described in {IERC20-approve}. Emits an {Approval} event indicating the updated allowance. Requirements: - `spender` cannot be the zero address."
      },
      "mint(address,uint256)": {
        "details": "Emits a {Transfer} event with `from` set to the zero address. Requirements: - `to` cannot be the zero address.",
        "params": {
          "_amnt": "The amount of tokens to be minted",
          "_to": "The destination address"
        }
      },
      "name()": {
        "details": "Returns the name of the token."
      },
      "owner()": {
        "details": "Returns the address of the current owner."
      },
      "renounceOwnership()": {
        "details": "Leaves the contract without owner. It will not be possible to call `onlyOwner` functions anymore. Can only be called by the current owner. NOTE: Renouncing ownership will leave the contract without an owner, thereby removing any functionality that is only available to the owner."
      },
      "symbol()": {
        "details": "Returns the symbol of the token, usually a shorter version of the name."
      },
      "totalSupply()": {
        "details": "See {IERC20-totalSupply}."
      },
      "transfer(address,uint256)": {
        "details": "See {IERC20-transfer}. Requirements: - `to` cannot be the zero address. - the caller must have a balance of at least `amount`."
      },
      "transferFrom(address,address,uint256)": {
        "details": "See {IERC20-transferFrom}. Emits an {Approval} event indicating the updated allowance. This is not required by the EIP. See the note at the beginning of {ERC20}. NOTE: Does not update the allowance if the current allowance is the maximum `uint256`. Requirements: - `from` and `to` cannot be the zero address. - `from` must have a balance of at least `amount`. - the caller must have allowance for ``from``'s tokens of at least `amount`."
      },
      "transferOwnership(address)": {
        "details": "Transfers ownership of the contract to a new account (`newOwner`). Can only be called by the current owner."
      },
      "updateTokenInfo(string,string,uint8)": {
        "params": {
          "_newDecimals": "The new decimals",
          "_newName": "The new name",
          "_newSymbol": "The new symbol"
        }
      }
    },
    "version": 1
  },
  "userdoc": {
    "kind": "user",
    "methods": {
      "burn(address,uint256)": {
        "notice": "Destroys `_amnt` tokens from `_from`, reducing the total supply."
      },
      "mint(address,uint256)": {
        "notice": "Creates `_amnt` tokens and assigns them to `_to`, increasing the total supply."
      },
      "updateTokenInfo(string,string,uint8)": {
        "notice": "Update token info"
      }
    },
    "version": 1
  },
  "storageLayout": {
    "storage": [
      {
        "astId": 128,
        "contract": "contracts/PaymasterToken.sol:PaymasterToken",
        "label": "_balances",
        "offset": 0,
        "slot": "0",
        "type": "t_mapping(t_address,t_uint256)"
      },
      {
        "astId": 134,
        "contract": "contracts/PaymasterToken.sol:PaymasterToken",
        "label": "_allowances",
        "offset": 0,
        "slot": "1",
        "type": "t_mapping(t_address,t_mapping(t_address,t_uint256))"
      },
      {
        "astId": 136,
        "contract": "contracts/PaymasterToken.sol:PaymasterToken",
        "label": "_totalSupply",
        "offset": 0,
        "slot": "2",
        "type": "t_uint256"
      },
      {
        "astId": 138,
        "contract": "contracts/PaymasterToken.sol:PaymasterToken",
        "label": "_name",
        "offset": 0,
        "slot": "3",
        "type": "t_string_storage"
      },
      {
        "astId": 140,
        "contract": "contracts/PaymasterToken.sol:PaymasterToken",
        "label": "_symbol",
        "offset": 0,
        "slot": "4",
        "type": "t_string_storage"
      },
      {
        "astId": 7,
        "contract": "contracts/PaymasterToken.sol:PaymasterToken",
        "label": "_owner",
        "offset": 0,
        "slot": "5",
        "type": "t_address"
      },
      {
        "astId": 887,
        "contract": "contracts/PaymasterToken.sol:PaymasterToken",
        "label": "token",
        "offset": 0,
        "slot": "6",
        "type": "t_struct(Token)884_storage"
      },
      {
        "astId": 1027,
        "contract": "contracts/PaymasterToken.sol:PaymasterToken",
        "label": "_nonces",
        "offset": 0,
        "slot": "9",
        "type": "t_mapping(t_address,t_uint256)"
      }
    ],
    "types": {
      "t_address": {
        "encoding": "inplace",
        "label": "address",
        "numberOfBytes": "20"
      },
      "t_mapping(t_address,t_mapping(t_address,t_uint256))": {
        "encoding": "mapping",
        "key": "t_address",
        "label": "mapping(address => mapping(address => uint256))",
        "numberOfBytes": "32",
        "value": "t_mapping(t_address,t_uint256)"
      },
      "t_mapping(t_address,t_uint256)": {
        "encoding": "mapping",
        "key": "t_address",
        "label": "mapping(address => uint256)",
        "numberOfBytes": "32",
        "value": "t_uint256"
      },
      "t_string_storage": {
        "encoding": "bytes",
        "label": "string",
        "numberOfBytes": "32"
      },
      "t_struct(Token)884_storage": {
        "encoding": "inplace",
        "label": "struct PaymasterToken.Token",
        "members": [
          {
            "astId": 879,
            "contract": "contracts/PaymasterToken.sol:PaymasterToken",
            "label": "name",
            "offset": 0,
            "slot": "0",
            "type": "t_string_storage"
          },
          {
            "astId": 881,
            "contract": "contracts/PaymasterToken.sol:PaymasterToken",
            "label": "symbol",
            "offset": 0,
            "slot": "1",
            "type": "t_string_storage"
          },
          {
            "astId": 883,
            "contract": "contracts/PaymasterToken.sol:PaymasterToken",
            "label": "decimals",
            "offset": 0,
            "slot": "2",
            "type": "t_uint8"
          }
        ],
        "numberOfBytes": "96"
      },
      "t_uint256": {
        "encoding": "inplace",
        "label": "uint256",
        "numberOfBytes": "32"
      },
      "t_uint8": {
        "encoding": "inplace",
        "label": "uint8",
        "numberOfBytes": "1"
      }
    }
  }
}