{
  "address": "0xbb42fbdDb3288B7562eda5D5DcB1671858E9705b",
  "abi": [
    {
      "inputs": [
        {
          "internalType": "uint8",
          "name": "maxMint",
          "type": "uint8"
        }
      ],
      "stateMutability": "nonpayable",
      "type": "constructor"
    },
    {
      "anonymous": false,
      "inputs": [
        {
          "indexed": true,
          "internalType": "address",
          "name": "owner",
          "type": "address"
        },
        {
          "indexed": true,
          "internalType": "address",
          "name": "approved",
          "type": "address"
        },
        {
          "indexed": true,
          "internalType": "uint256",
          "name": "tokenId",
          "type": "uint256"
        }
      ],
      "name": "Approval",
      "type": "event"
    },
    {
      "anonymous": false,
      "inputs": [
        {
          "indexed": true,
          "internalType": "address",
          "name": "owner",
          "type": "address"
        },
        {
          "indexed": true,
          "internalType": "address",
          "name": "operator",
          "type": "address"
        },
        {
          "indexed": false,
          "internalType": "bool",
          "name": "approved",
          "type": "bool"
        }
      ],
      "name": "ApprovalForAll",
      "type": "event"
    },
    {
      "anonymous": false,
      "inputs": [
        {
          "indexed": true,
          "internalType": "address",
          "name": "previousOwner",
          "type": "address"
        },
        {
          "indexed": true,
          "internalType": "address",
          "name": "newOwner",
          "type": "address"
        }
      ],
      "name": "OwnershipTransferred",
      "type": "event"
    },
    {
      "anonymous": false,
      "inputs": [
        {
          "indexed": true,
          "internalType": "address",
          "name": "from",
          "type": "address"
        },
        {
          "indexed": true,
          "internalType": "address",
          "name": "to",
          "type": "address"
        },
        {
          "indexed": true,
          "internalType": "uint256",
          "name": "tokenId",
          "type": "uint256"
        }
      ],
      "name": "Transfer",
      "type": "event"
    },
    {
      "inputs": [],
      "name": "MAX_MINT",
      "outputs": [
        {
          "internalType": "uint8",
          "name": "",
          "type": "uint8"
        }
      ],
      "stateMutability": "view",
      "type": "function"
    },
    {
      "inputs": [
        {
          "internalType": "address",
          "name": "to",
          "type": "address"
        },
        {
          "internalType": "uint256",
          "name": "tokenId",
          "type": "uint256"
        }
      ],
      "name": "approve",
      "outputs": [],
      "stateMutability": "nonpayable",
      "type": "function"
    },
    {
      "inputs": [
        {
          "internalType": "address",
          "name": "owner",
          "type": "address"
        }
      ],
      "name": "balanceOf",
      "outputs": [
        {
          "internalType": "uint256",
          "name": "",
          "type": "uint256"
        }
      ],
      "stateMutability": "view",
      "type": "function"
    },
    {
      "inputs": [
        {
          "internalType": "uint256",
          "name": "tokenId",
          "type": "uint256"
        }
      ],
      "name": "burn",
      "outputs": [],
      "stateMutability": "nonpayable",
      "type": "function"
    },
    {
      "inputs": [
        {
          "internalType": "uint256",
          "name": "tokenId",
          "type": "uint256"
        }
      ],
      "name": "getApproved",
      "outputs": [
        {
          "internalType": "address",
          "name": "",
          "type": "address"
        }
      ],
      "stateMutability": "view",
      "type": "function"
    },
    {
      "inputs": [
        {
          "internalType": "address",
          "name": "owner",
          "type": "address"
        },
        {
          "internalType": "address",
          "name": "operator",
          "type": "address"
        }
      ],
      "name": "isApprovedForAll",
      "outputs": [
        {
          "internalType": "bool",
          "name": "",
          "type": "bool"
        }
      ],
      "stateMutability": "view",
      "type": "function"
    },
    {
      "inputs": [
        {
          "internalType": "string",
          "name": "tokenURI",
          "type": "string"
        }
      ],
      "name": "mint",
      "outputs": [],
      "stateMutability": "nonpayable",
      "type": "function"
    },
    {
      "inputs": [],
      "name": "name",
      "outputs": [
        {
          "internalType": "string",
          "name": "",
          "type": "string"
        }
      ],
      "stateMutability": "view",
      "type": "function"
    },
    {
      "inputs": [],
      "name": "owner",
      "outputs": [
        {
          "internalType": "address",
          "name": "",
          "type": "address"
        }
      ],
      "stateMutability": "view",
      "type": "function"
    },
    {
      "inputs": [
        {
          "internalType": "uint256",
          "name": "tokenId",
          "type": "uint256"
        }
      ],
      "name": "ownerOf",
      "outputs": [
        {
          "internalType": "address",
          "name": "",
          "type": "address"
        }
      ],
      "stateMutability": "view",
      "type": "function"
    },
    {
      "inputs": [],
      "name": "renounceOwnership",
      "outputs": [],
      "stateMutability": "nonpayable",
      "type": "function"
    },
    {
      "inputs": [
        {
          "internalType": "address",
          "name": "from",
          "type": "address"
        },
        {
          "internalType": "address",
          "name": "to",
          "type": "address"
        },
        {
          "internalType": "uint256",
          "name": "tokenId",
          "type": "uint256"
        }
      ],
      "name": "safeTransferFrom",
      "outputs": [],
      "stateMutability": "nonpayable",
      "type": "function"
    },
    {
      "inputs": [
        {
          "internalType": "address",
          "name": "from",
          "type": "address"
        },
        {
          "internalType": "address",
          "name": "to",
          "type": "address"
        },
        {
          "internalType": "uint256",
          "name": "tokenId",
          "type": "uint256"
        },
        {
          "internalType": "bytes",
          "name": "data",
          "type": "bytes"
        }
      ],
      "name": "safeTransferFrom",
      "outputs": [],
      "stateMutability": "nonpayable",
      "type": "function"
    },
    {
      "inputs": [
        {
          "internalType": "address",
          "name": "operator",
          "type": "address"
        },
        {
          "internalType": "bool",
          "name": "approved",
          "type": "bool"
        }
      ],
      "name": "setApprovalForAll",
      "outputs": [],
      "stateMutability": "nonpayable",
      "type": "function"
    },
    {
      "inputs": [
        {
          "internalType": "bytes4",
          "name": "interfaceId",
          "type": "bytes4"
        }
      ],
      "name": "supportsInterface",
      "outputs": [
        {
          "internalType": "bool",
          "name": "",
          "type": "bool"
        }
      ],
      "stateMutability": "view",
      "type": "function"
    },
    {
      "inputs": [],
      "name": "symbol",
      "outputs": [
        {
          "internalType": "string",
          "name": "",
          "type": "string"
        }
      ],
      "stateMutability": "view",
      "type": "function"
    },
    {
      "inputs": [
        {
          "internalType": "uint256",
          "name": "tokenId",
          "type": "uint256"
        }
      ],
      "name": "tokenURI",
      "outputs": [
        {
          "internalType": "string",
          "name": "",
          "type": "string"
        }
      ],
      "stateMutability": "view",
      "type": "function"
    },
    {
      "inputs": [
        {
          "internalType": "address",
          "name": "from",
          "type": "address"
        },
        {
          "internalType": "address",
          "name": "to",
          "type": "address"
        },
        {
          "internalType": "uint256",
          "name": "tokenId",
          "type": "uint256"
        }
      ],
      "name": "transferFrom",
      "outputs": [],
      "stateMutability": "nonpayable",
      "type": "function"
    },
    {
      "inputs": [
        {
          "internalType": "address",
          "name": "newOwner",
          "type": "address"
        }
      ],
      "name": "transferOwnership",
      "outputs": [],
      "stateMutability": "nonpayable",
      "type": "function"
    },
    {
      "inputs": [],
      "name": "userList",
      "outputs": [
        {
          "components": [
            {
              "internalType": "uint256[]",
              "name": "tokenIds",
              "type": "uint256[]"
            },
            {
              "internalType": "string[]",
              "name": "images",
              "type": "string[]"
            }
          ],
          "internalType": "struct TestGasslessNFT.UserData",
          "name": "",
          "type": "tuple"
        }
      ],
      "stateMutability": "view",
      "type": "function"
    }
  ],
  "transactionHash": "0xef13cb1c0c671e45387c0611bfa7a36a86154dafe9edbc82d05531334b3dd9b0",
  "args": [
    3
  ],
  "numDeployments": 1,
  "solcInputHash": "8ab2158db386fc57f56367a188e6841b",
  "bytecode": "0x60a06040523480156200001157600080fd5b50604051620042613803806200426183398181016040528101906200003791906200020f565b6040518060400160405280600f81526020017f54657374476173736c6573734e465400000000000000000000000000000000008152506040518060400160405280600381526020017f54474e00000000000000000000000000000000000000000000000000000000008152508160009081620000b49190620004bb565b508060019081620000c69190620004bb565b505050620000e9620000dd620000fe60201b60201c565b6200010660201b60201c565b8060ff1660808160ff168152505050620005a2565b600033905090565b6000600760009054906101000a900473ffffffffffffffffffffffffffffffffffffffff16905081600760006101000a81548173ffffffffffffffffffffffffffffffffffffffff021916908373ffffffffffffffffffffffffffffffffffffffff1602179055508173ffffffffffffffffffffffffffffffffffffffff168173ffffffffffffffffffffffffffffffffffffffff167f8be0079c531659141344cd1fd0a4f28419497f9722a3daafe3b4186f6b6457e060405160405180910390a35050565b600080fd5b600060ff82169050919050565b620001e981620001d1565b8114620001f557600080fd5b50565b6000815190506200020981620001de565b92915050565b600060208284031215620002285762000227620001cc565b5b60006200023884828501620001f8565b91505092915050565b600081519050919050565b7f4e487b7100000000000000000000000000000000000000000000000000000000600052604160045260246000fd5b7f4e487b7100000000000000000000000000000000000000000000000000000000600052602260045260246000fd5b60006002820490506001821680620002c357607f821691505b602082108103620002d957620002d86200027b565b5b50919050565b60008190508160005260206000209050919050565b60006020601f8301049050919050565b600082821b905092915050565b600060088302620003437fffffffffffffffffffffffffffffffffffffffffffffffffffffffffffffffff8262000304565b6200034f868362000304565b95508019841693508086168417925050509392505050565b6000819050919050565b6000819050919050565b60006200039c62000396620003908462000367565b62000371565b62000367565b9050919050565b6000819050919050565b620003b8836200037b565b620003d0620003c782620003a3565b84845462000311565b825550505050565b600090565b620003e7620003d8565b620003f4818484620003ad565b505050565b5b818110156200041c5762000410600082620003dd565b600181019050620003fa565b5050565b601f8211156200046b576200043581620002df565b6200044084620002f4565b8101602085101562000450578190505b620004686200045f85620002f4565b830182620003f9565b50505b505050565b600082821c905092915050565b6000620004906000198460080262000470565b1980831691505092915050565b6000620004ab83836200047d565b9150826002028217905092915050565b620004c68262000241565b67ffffffffffffffff811115620004e257620004e16200024c565b5b620004ee8254620002aa565b620004fb82828562000420565b600060209050601f8311600181146200053357600084156200051e578287015190505b6200052a85826200049d565b8655506200059a565b601f1984166200054386620002df565b60005b828110156200056d5784890151825560018201915060208501945060208101905062000546565b868310156200058d578489015162000589601f8916826200047d565b8355505b6001600288020188555050505b505050505050565b608051613c9c620005c560003960008181610ecd01526111340152613c9c6000f3fe608060405234801561001057600080fd5b506004361061012c5760003560e01c8063715018a6116100ad578063c87b56dd11610071578063c87b56dd1461031b578063d85d3d271461034b578063e985e9c514610367578063f0292a0314610397578063f2fde38b146103b55761012c565b8063715018a61461029d5780638da5cb5b146102a757806395d89b41146102c5578063a22cb465146102e3578063b88d4fde146102ff5761012c565b806323b872dd116100f457806323b872dd146101e957806342842e0e1461020557806342966c68146102215780636352211e1461023d57806370a082311461026d5761012c565b806301ffc9a71461013157806306fdde0314610161578063081812fc1461017f578063095ea7b3146101af5780630e0f785f146101cb575b600080fd5b61014b60048036038101906101469190612591565b6103d1565b60405161015891906125d9565b60405180910390f35b6101696104b3565b6040516101769190612684565b60405180910390f35b610199600480360381019061019491906126dc565b610545565b6040516101a6919061274a565b60405180910390f35b6101c960048036038101906101c49190612791565b61058b565b005b6101d36106a2565b6040516101e091906129df565b60405180910390f35b61020360048036038101906101fe9190612a01565b6108ea565b005b61021f600480360381019061021a9190612a01565b61094a565b005b61023b600480360381019061023691906126dc565b61096a565b005b610257600480360381019061025291906126dc565b610b34565b604051610264919061274a565b60405180910390f35b61028760048036038101906102829190612a54565b610bba565b6040516102949190612a90565b60405180910390f35b6102a5610c71565b005b6102af610c85565b6040516102bc919061274a565b60405180910390f35b6102cd610caf565b6040516102da9190612684565b60405180910390f35b6102fd60048036038101906102f89190612ad7565b610d41565b005b61031960048036038101906103149190612c4c565b610d57565b005b610335600480360381019061033091906126dc565b610db9565b6040516103429190612684565b60405180910390f35b61036560048036038101906103609190612d70565b610ecb565b005b610381600480360381019061037c9190612db9565b61109e565b60405161038e91906125d9565b60405180910390f35b61039f611132565b6040516103ac9190612e15565b60405180910390f35b6103cf60048036038101906103ca9190612a54565b611156565b005b60007f80ac58cd000000000000000000000000000000000000000000000000000000007bffffffffffffffffffffffffffffffffffffffffffffffffffffffff1916827bffffffffffffffffffffffffffffffffffffffffffffffffffffffff1916148061049c57507f5b5e139f000000000000000000000000000000000000000000000000000000007bffffffffffffffffffffffffffffffffffffffffffffffffffffffff1916827bffffffffffffffffffffffffffffffffffffffffffffffffffffffff1916145b806104ac57506104ab826111d9565b5b9050919050565b6060600080546104c290612e5f565b80601f01602080910402602001604051908101604052809291908181526020018280546104ee90612e5f565b801561053b5780601f106105105761010080835404028352916020019161053b565b820191906000526020600020905b81548152906001019060200180831161051e57829003601f168201915b5050505050905090565b600061055082611243565b6004600083815260200190815260200160002060009054906101000a900473ffffffffffffffffffffffffffffffffffffffff169050919050565b600061059682610b34565b90508073ffffffffffffffffffffffffffffffffffffffff168373ffffffffffffffffffffffffffffffffffffffff1603610606576040517f08c379a00000000000000000000000000000000000000000000000000000000081526004016105fd90612f02565b60405180910390fd5b8073ffffffffffffffffffffffffffffffffffffffff1661062561128e565b73ffffffffffffffffffffffffffffffffffffffff16148061065457506106538161064e61128e565b61109e565b5b610693576040517f08c379a000000000000000000000000000000000000000000000000000000000815260040161068a90612f94565b60405180910390fd5b61069d8383611296565b505050565b6106aa6124ae565b6000600960006106b861128e565b73ffffffffffffffffffffffffffffffffffffffff1673ffffffffffffffffffffffffffffffffffffffff16815260200190815260200160002080548060200260200160405190810160405280929190818152602001828054801561073c57602002820191906000526020600020905b815481526020019060010190808311610728575b5050505050905060008151905060008160ff1667ffffffffffffffff81111561076857610767612b21565b5b6040519080825280602002602001820160405280156107965781602001602082028036833780820191505090505b50905060008260ff1667ffffffffffffffff8111156107b8576107b7612b21565b5b6040519080825280602002602001820160405280156107eb57816020015b60608152602001906001900390816107d65790505b5090506000604051806040016040528084815260200183815250905060008460ff160361081f5780955050505050506108e7565b60005b60018561082f9190612fe3565b60ff168160ff16116108dd57858160ff168151811061085157610850613018565b5b602002602001015182600001518260ff168151811061087357610872613018565b5b6020026020010181815250506108a5868260ff168151811061089857610897613018565b5b6020026020010151610db9565b82602001518260ff16815181106108bf576108be613018565b5b602002602001018190525080806108d590613047565b915050610822565b5080955050505050505b90565b6108fb6108f561128e565b8261134f565b61093a576040517f08c379a0000000000000000000000000000000000000000000000000000000008152600401610931906130e2565b60405180910390fd5b6109458383836113e4565b505050565b61096583838360405180602001604052806000815250610d57565b505050565b600061097582610b34565b90506000600960008373ffffffffffffffffffffffffffffffffffffffff1673ffffffffffffffffffffffffffffffffffffffff16815260200190815260200160002090506000600a600085815260200190815260200160002060009054906101000a900460ff16905081805490508160ff1610610a28576040517f08c379a0000000000000000000000000000000000000000000000000000000008152600401610a1f9061314e565b60405180910390fd5b60008190505b60018380549050610a3f919061316e565b8160ff161015610aad5782600182610a5791906131a2565b60ff1681548110610a6b57610a6a613018565b5b9060005260206000200154838260ff1681548110610a8c57610a8b613018565b5b90600052602060002001819055508080610aa590613047565b915050610a2e565b5081805480610abf57610abe6131d7565b5b60019003818190600052602060002001600090559055610ae6610ae061128e565b8561134f565b610b25576040517f08c379a0000000000000000000000000000000000000000000000000000000008152600401610b1c906130e2565b60405180910390fd5b610b2e846116dd565b50505050565b600080610b4083611730565b9050600073ffffffffffffffffffffffffffffffffffffffff168173ffffffffffffffffffffffffffffffffffffffff1603610bb1576040517f08c379a0000000000000000000000000000000000000000000000000000000008152600401610ba890613252565b60405180910390fd5b80915050919050565b60008073ffffffffffffffffffffffffffffffffffffffff168273ffffffffffffffffffffffffffffffffffffffff1603610c2a576040517f08c379a0000000000000000000000000000000000000000000000000000000008152600401610c21906132e4565b60405180910390fd5b600360008373ffffffffffffffffffffffffffffffffffffffff1673ffffffffffffffffffffffffffffffffffffffff168152602001908152602001600020549050919050565b610c7961176d565b610c8360006117eb565b565b6000600760009054906101000a900473ffffffffffffffffffffffffffffffffffffffff16905090565b606060018054610cbe90612e5f565b80601f0160208091040260200160405190810160405280929190818152602001828054610cea90612e5f565b8015610d375780601f10610d0c57610100808354040283529160200191610d37565b820191906000526020600020905b815481529060010190602001808311610d1a57829003601f168201915b5050505050905090565b610d53610d4c61128e565b83836118b1565b5050565b610d68610d6261128e565b8361134f565b610da7576040517f08c379a0000000000000000000000000000000000000000000000000000000008152600401610d9e906130e2565b60405180910390fd5b610db384848484611a1d565b50505050565b6060610dc482611243565b6000600660008481526020019081526020016000208054610de490612e5f565b80601f0160208091040260200160405190810160405280929190818152602001828054610e1090612e5f565b8015610e5d5780601f10610e3257610100808354040283529160200191610e5d565b820191906000526020600020905b815481529060010190602001808311610e4057829003601f168201915b505050505090506000610e6e611a79565b90506000815103610e83578192505050610ec6565b600082511115610eb8578082604051602001610ea0929190613340565b60405160208183030381529060405292505050610ec6565b610ec184611a99565b925050505b919050565b7f000000000000000000000000000000000000000000000000000000000000000060ff1660096000610efb61128e565b73ffffffffffffffffffffffffffffffffffffffff1673ffffffffffffffffffffffffffffffffffffffff1681526020019081526020016000208054905010610f79576040517f08c379a0000000000000000000000000000000000000000000000000000000008152600401610f70906133d6565b60405180910390fd5b6000610f856008611b01565b9050610f916008611b0f565b60096000610f9d61128e565b73ffffffffffffffffffffffffffffffffffffffff1673ffffffffffffffffffffffffffffffffffffffff16815260200190815260200160002081908060018154018082558091505060019003906000526020600020016000909190919091505560016009600061100c61128e565b73ffffffffffffffffffffffffffffffffffffffff1673ffffffffffffffffffffffffffffffffffffffff16815260200190815260200160002080549050611054919061316e565b600a600083815260200190815260200160002060006101000a81548160ff021916908360ff16021790555061109061108a61128e565b82611b25565b61109a8183611b43565b5050565b6000600560008473ffffffffffffffffffffffffffffffffffffffff1673ffffffffffffffffffffffffffffffffffffffff16815260200190815260200160002060008373ffffffffffffffffffffffffffffffffffffffff1673ffffffffffffffffffffffffffffffffffffffff16815260200190815260200160002060009054906101000a900460ff16905092915050565b7f000000000000000000000000000000000000000000000000000000000000000081565b61115e61176d565b600073ffffffffffffffffffffffffffffffffffffffff168173ffffffffffffffffffffffffffffffffffffffff16036111cd576040517f08c379a00000000000000000000000000000000000000000000000000000000081526004016111c490613468565b60405180910390fd5b6111d6816117eb565b50565b60007f01ffc9a7000000000000000000000000000000000000000000000000000000007bffffffffffffffffffffffffffffffffffffffffffffffffffffffff1916827bffffffffffffffffffffffffffffffffffffffffffffffffffffffff1916149050919050565b61124c81611bb0565b61128b576040517f08c379a000000000000000000000000000000000000000000000000000000000815260040161128290613252565b60405180910390fd5b50565b600033905090565b816004600083815260200190815260200160002060006101000a81548173ffffffffffffffffffffffffffffffffffffffff021916908373ffffffffffffffffffffffffffffffffffffffff160217905550808273ffffffffffffffffffffffffffffffffffffffff1661130983610b34565b73ffffffffffffffffffffffffffffffffffffffff167f8c5be1e5ebec7d5bd14f71427d1e84f3dd0314c0f7b2291e5b200ac8c7c3b92560405160405180910390a45050565b60008061135b83610b34565b90508073ffffffffffffffffffffffffffffffffffffffff168473ffffffffffffffffffffffffffffffffffffffff16148061139d575061139c818561109e565b5b806113db57508373ffffffffffffffffffffffffffffffffffffffff166113c384610545565b73ffffffffffffffffffffffffffffffffffffffff16145b91505092915050565b8273ffffffffffffffffffffffffffffffffffffffff1661140482610b34565b73ffffffffffffffffffffffffffffffffffffffff161461145a576040517f08c379a0000000000000000000000000000000000000000000000000000000008152600401611451906134fa565b60405180910390fd5b600073ffffffffffffffffffffffffffffffffffffffff168273ffffffffffffffffffffffffffffffffffffffff16036114c9576040517f08c379a00000000000000000000000000000000000000000000000000000000081526004016114c09061358c565b60405180910390fd5b6114d68383836001611bf1565b8273ffffffffffffffffffffffffffffffffffffffff166114f682610b34565b73ffffffffffffffffffffffffffffffffffffffff161461154c576040517f08c379a0000000000000000000000000000000000000000000000000000000008152600401611543906134fa565b60405180910390fd5b6004600082815260200190815260200160002060006101000a81549073ffffffffffffffffffffffffffffffffffffffff02191690556001600360008573ffffffffffffffffffffffffffffffffffffffff1673ffffffffffffffffffffffffffffffffffffffff168152602001908152602001600020600082825403925050819055506001600360008473ffffffffffffffffffffffffffffffffffffffff1673ffffffffffffffffffffffffffffffffffffffff16815260200190815260200160002060008282540192505081905550816002600083815260200190815260200160002060006101000a81548173ffffffffffffffffffffffffffffffffffffffff021916908373ffffffffffffffffffffffffffffffffffffffff160217905550808273ffffffffffffffffffffffffffffffffffffffff168473ffffffffffffffffffffffffffffffffffffffff167fddf252ad1be2c89b69c2b068fc378daa952ba7f163c4a11628f55a4df523b3ef60405160405180910390a46116d88383836001611d17565b505050565b6116e681611d1d565b600060066000838152602001908152602001600020805461170690612e5f565b90501461172d5760066000828152602001908152602001600020600061172c91906124c8565b5b50565b60006002600083815260200190815260200160002060009054906101000a900473ffffffffffffffffffffffffffffffffffffffff169050919050565b61177561128e565b73ffffffffffffffffffffffffffffffffffffffff16611793610c85565b73ffffffffffffffffffffffffffffffffffffffff16146117e9576040517f08c379a00000000000000000000000000000000000000000000000000000000081526004016117e0906135f8565b60405180910390fd5b565b6000600760009054906101000a900473ffffffffffffffffffffffffffffffffffffffff16905081600760006101000a81548173ffffffffffffffffffffffffffffffffffffffff021916908373ffffffffffffffffffffffffffffffffffffffff1602179055508173ffffffffffffffffffffffffffffffffffffffff168173ffffffffffffffffffffffffffffffffffffffff167f8be0079c531659141344cd1fd0a4f28419497f9722a3daafe3b4186f6b6457e060405160405180910390a35050565b8173ffffffffffffffffffffffffffffffffffffffff168373ffffffffffffffffffffffffffffffffffffffff160361191f576040517f08c379a000000000000000000000000000000000000000000000000000000000815260040161191690613664565b60405180910390fd5b80600560008573ffffffffffffffffffffffffffffffffffffffff1673ffffffffffffffffffffffffffffffffffffffff16815260200190815260200160002060008473ffffffffffffffffffffffffffffffffffffffff1673ffffffffffffffffffffffffffffffffffffffff16815260200190815260200160002060006101000a81548160ff0219169083151502179055508173ffffffffffffffffffffffffffffffffffffffff168373ffffffffffffffffffffffffffffffffffffffff167f17307eab39ab6107e8899845ad3d59bd9653f200f220920489ca2b5937696c3183604051611a1091906125d9565b60405180910390a3505050565b611a288484846113e4565b611a3484848484611e6b565b611a73576040517f08c379a0000000000000000000000000000000000000000000000000000000008152600401611a6a906136f6565b60405180910390fd5b50505050565b6060604051806060016040528060228152602001613c4560229139905090565b6060611aa482611243565b6000611aae611a79565b90506000815111611ace5760405180602001604052806000815250611af9565b80611ad884611ff2565b604051602001611ae9929190613340565b6040516020818303038152906040525b915050919050565b600081600001549050919050565b6001816000016000828254019250508190555050565b611b3f8282604051806020016040528060008152506120c0565b5050565b611b4c82611bb0565b611b8b576040517f08c379a0000000000000000000000000000000000000000000000000000000008152600401611b8290613788565b60405180910390fd5b80600660008481526020019081526020016000209081611bab9190613954565b505050565b60008073ffffffffffffffffffffffffffffffffffffffff16611bd283611730565b73ffffffffffffffffffffffffffffffffffffffff1614159050919050565b6001811115611d1157600073ffffffffffffffffffffffffffffffffffffffff168473ffffffffffffffffffffffffffffffffffffffff1614611c855780600360008673ffffffffffffffffffffffffffffffffffffffff1673ffffffffffffffffffffffffffffffffffffffff1681526020019081526020016000206000828254611c7d919061316e565b925050819055505b600073ffffffffffffffffffffffffffffffffffffffff168373ffffffffffffffffffffffffffffffffffffffff1614611d105780600360008573ffffffffffffffffffffffffffffffffffffffff1673ffffffffffffffffffffffffffffffffffffffff1681526020019081526020016000206000828254611d089190613a26565b925050819055505b5b50505050565b50505050565b6000611d2882610b34565b9050611d38816000846001611bf1565b611d4182610b34565b90506004600083815260200190815260200160002060006101000a81549073ffffffffffffffffffffffffffffffffffffffff02191690556001600360008373ffffffffffffffffffffffffffffffffffffffff1673ffffffffffffffffffffffffffffffffffffffff168152602001908152602001600020600082825403925050819055506002600083815260200190815260200160002060006101000a81549073ffffffffffffffffffffffffffffffffffffffff021916905581600073ffffffffffffffffffffffffffffffffffffffff168273ffffffffffffffffffffffffffffffffffffffff167fddf252ad1be2c89b69c2b068fc378daa952ba7f163c4a11628f55a4df523b3ef60405160405180910390a4611e67816000846001611d17565b5050565b6000611e8c8473ffffffffffffffffffffffffffffffffffffffff1661211b565b15611fe5578373ffffffffffffffffffffffffffffffffffffffff1663150b7a02611eb561128e565b8786866040518563ffffffff1660e01b8152600401611ed79493929190613aaf565b6020604051808303816000875af1925050508015611f1357506040513d601f19601f82011682018060405250810190611f109190613b10565b60015b611f95573d8060008114611f43576040519150601f19603f3d011682016040523d82523d6000602084013e611f48565b606091505b506000815103611f8d576040517f08c379a0000000000000000000000000000000000000000000000000000000008152600401611f84906136f6565b60405180910390fd5b805181602001fd5b63150b7a0260e01b7bffffffffffffffffffffffffffffffffffffffffffffffffffffffff1916817bffffffffffffffffffffffffffffffffffffffffffffffffffffffff191614915050611fea565b600190505b949350505050565b6060600060016120018461213e565b01905060008167ffffffffffffffff8111156120205761201f612b21565b5b6040519080825280601f01601f1916602001820160405280156120525781602001600182028036833780820191505090505b509050600082602001820190505b6001156120b5578080600190039150507f3031323334353637383961626364656600000000000000000000000000000000600a86061a8153600a85816120a9576120a8613b3d565b5b04945060008503612060575b819350505050919050565b6120ca8383612291565b6120d76000848484611e6b565b612116576040517f08c379a000000000000000000000000000000000000000000000000000000000815260040161210d906136f6565b60405180910390fd5b505050565b6000808273ffffffffffffffffffffffffffffffffffffffff163b119050919050565b600080600090507a184f03e93ff9f4daa797ed6e38ed64bf6a1f010000000000000000831061219c577a184f03e93ff9f4daa797ed6e38ed64bf6a1f010000000000000000838161219257612191613b3d565b5b0492506040810190505b6d04ee2d6d415b85acef810000000083106121d9576d04ee2d6d415b85acef810000000083816121cf576121ce613b3d565b5b0492506020810190505b662386f26fc10000831061220857662386f26fc1000083816121fe576121fd613b3d565b5b0492506010810190505b6305f5e1008310612231576305f5e100838161222757612226613b3d565b5b0492506008810190505b612710831061225657612710838161224c5761224b613b3d565b5b0492506004810190505b60648310612279576064838161226f5761226e613b3d565b5b0492506002810190505b600a8310612288576001810190505b80915050919050565b600073ffffffffffffffffffffffffffffffffffffffff168273ffffffffffffffffffffffffffffffffffffffff1603612300576040517f08c379a00000000000000000000000000000000000000000000000000000000081526004016122f790613bb8565b60405180910390fd5b61230981611bb0565b15612349576040517f08c379a000000000000000000000000000000000000000000000000000000000815260040161234090613c24565b60405180910390fd5b612357600083836001611bf1565b61236081611bb0565b156123a0576040517f08c379a000000000000000000000000000000000000000000000000000000000815260040161239790613c24565b60405180910390fd5b6001600360008473ffffffffffffffffffffffffffffffffffffffff1673ffffffffffffffffffffffffffffffffffffffff16815260200190815260200160002060008282540192505081905550816002600083815260200190815260200160002060006101000a81548173ffffffffffffffffffffffffffffffffffffffff021916908373ffffffffffffffffffffffffffffffffffffffff160217905550808273ffffffffffffffffffffffffffffffffffffffff16600073ffffffffffffffffffffffffffffffffffffffff167fddf252ad1be2c89b69c2b068fc378daa952ba7f163c4a11628f55a4df523b3ef60405160405180910390a46124aa600083836001611d17565b5050565b604051806040016040528060608152602001606081525090565b5080546124d490612e5f565b6000825580601f106124e65750612505565b601f0160209004906000526020600020908101906125049190612508565b5b50565b5b80821115612521576000816000905550600101612509565b5090565b6000604051905090565b600080fd5b600080fd5b60007fffffffff0000000000000000000000000000000000000000000000000000000082169050919050565b61256e81612539565b811461257957600080fd5b50565b60008135905061258b81612565565b92915050565b6000602082840312156125a7576125a661252f565b5b60006125b58482850161257c565b91505092915050565b60008115159050919050565b6125d3816125be565b82525050565b60006020820190506125ee60008301846125ca565b92915050565b600081519050919050565b600082825260208201905092915050565b60005b8381101561262e578082015181840152602081019050612613565b60008484015250505050565b6000601f19601f8301169050919050565b6000612656826125f4565b61266081856125ff565b9350612670818560208601612610565b6126798161263a565b840191505092915050565b6000602082019050818103600083015261269e818461264b565b905092915050565b6000819050919050565b6126b9816126a6565b81146126c457600080fd5b50565b6000813590506126d6816126b0565b92915050565b6000602082840312156126f2576126f161252f565b5b6000612700848285016126c7565b91505092915050565b600073ffffffffffffffffffffffffffffffffffffffff82169050919050565b600061273482612709565b9050919050565b61274481612729565b82525050565b600060208201905061275f600083018461273b565b92915050565b61276e81612729565b811461277957600080fd5b50565b60008135905061278b81612765565b92915050565b600080604083850312156127a8576127a761252f565b5b60006127b68582860161277c565b92505060206127c7858286016126c7565b9150509250929050565b600081519050919050565b600082825260208201905092915050565b6000819050602082019050919050565b612806816126a6565b82525050565b600061281883836127fd565b60208301905092915050565b6000602082019050919050565b600061283c826127d1565b61284681856127dc565b9350612851836127ed565b8060005b83811015612882578151612869888261280c565b975061287483612824565b925050600181019050612855565b5085935050505092915050565b600081519050919050565b600082825260208201905092915050565b6000819050602082019050919050565b600082825260208201905092915050565b60006128d7826125f4565b6128e181856128bb565b93506128f1818560208601612610565b6128fa8161263a565b840191505092915050565b600061291183836128cc565b905092915050565b6000602082019050919050565b60006129318261288f565b61293b818561289a565b93508360208202850161294d856128ab565b8060005b85811015612989578484038952815161296a8582612905565b945061297583612919565b925060208a01995050600181019050612951565b50829750879550505050505092915050565b600060408301600083015184820360008601526129b88282612831565b915050602083015184820360208601526129d28282612926565b9150508091505092915050565b600060208201905081810360008301526129f9818461299b565b905092915050565b600080600060608486031215612a1a57612a1961252f565b5b6000612a288682870161277c565b9350506020612a398682870161277c565b9250506040612a4a868287016126c7565b9150509250925092565b600060208284031215612a6a57612a6961252f565b5b6000612a788482850161277c565b91505092915050565b612a8a816126a6565b82525050565b6000602082019050612aa56000830184612a81565b92915050565b612ab4816125be565b8114612abf57600080fd5b50565b600081359050612ad181612aab565b92915050565b60008060408385031215612aee57612aed61252f565b5b6000612afc8582860161277c565b9250506020612b0d85828601612ac2565b9150509250929050565b600080fd5b600080fd5b7f4e487b7100000000000000000000000000000000000000000000000000000000600052604160045260246000fd5b612b598261263a565b810181811067ffffffffffffffff82111715612b7857612b77612b21565b5b80604052505050565b6000612b8b612525565b9050612b978282612b50565b919050565b600067ffffffffffffffff821115612bb757612bb6612b21565b5b612bc08261263a565b9050602081019050919050565b82818337600083830152505050565b6000612bef612bea84612b9c565b612b81565b905082815260208101848484011115612c0b57612c0a612b1c565b5b612c16848285612bcd565b509392505050565b600082601f830112612c3357612c32612b17565b5b8135612c43848260208601612bdc565b91505092915050565b60008060008060808587031215612c6657612c6561252f565b5b6000612c748782880161277c565b9450506020612c858782880161277c565b9350506040612c96878288016126c7565b925050606085013567ffffffffffffffff811115612cb757612cb6612534565b5b612cc387828801612c1e565b91505092959194509250565b600067ffffffffffffffff821115612cea57612ce9612b21565b5b612cf38261263a565b9050602081019050919050565b6000612d13612d0e84612ccf565b612b81565b905082815260208101848484011115612d2f57612d2e612b1c565b5b612d3a848285612bcd565b509392505050565b600082601f830112612d5757612d56612b17565b5b8135612d67848260208601612d00565b91505092915050565b600060208284031215612d8657612d8561252f565b5b600082013567ffffffffffffffff811115612da457612da3612534565b5b612db084828501612d42565b91505092915050565b60008060408385031215612dd057612dcf61252f565b5b6000612dde8582860161277c565b9250506020612def8582860161277c565b9150509250929050565b600060ff82169050919050565b612e0f81612df9565b82525050565b6000602082019050612e2a6000830184612e06565b92915050565b7f4e487b7100000000000000000000000000000000000000000000000000000000600052602260045260246000fd5b60006002820490506001821680612e7757607f821691505b602082108103612e8a57612e89612e30565b5b50919050565b7f4552433732313a20617070726f76616c20746f2063757272656e74206f776e6560008201527f7200000000000000000000000000000000000000000000000000000000000000602082015250565b6000612eec6021836125ff565b9150612ef782612e90565b604082019050919050565b60006020820190508181036000830152612f1b81612edf565b9050919050565b7f4552433732313a20617070726f76652063616c6c6572206973206e6f7420746f60008201527f6b656e206f776e6572206f7220617070726f76656420666f7220616c6c000000602082015250565b6000612f7e603d836125ff565b9150612f8982612f22565b604082019050919050565b60006020820190508181036000830152612fad81612f71565b9050919050565b7f4e487b7100000000000000000000000000000000000000000000000000000000600052601160045260246000fd5b6000612fee82612df9565b9150612ff983612df9565b9250828203905060ff81111561301257613011612fb4565b5b92915050565b7f4e487b7100000000000000000000000000000000000000000000000000000000600052603260045260246000fd5b600061305282612df9565b915060ff820361306557613064612fb4565b5b600182019050919050565b7f4552433732313a2063616c6c6572206973206e6f7420746f6b656e206f776e6560008201527f72206f7220617070726f76656400000000000000000000000000000000000000602082015250565b60006130cc602d836125ff565b91506130d782613070565b604082019050919050565b600060208201905081810360008301526130fb816130bf565b9050919050565b7f54657374476173736c6573734e46543a20496e64657820657863656564000000600082015250565b6000613138601d836125ff565b915061314382613102565b602082019050919050565b600060208201905081810360008301526131678161312b565b9050919050565b6000613179826126a6565b9150613184836126a6565b925082820390508181111561319c5761319b612fb4565b5b92915050565b60006131ad82612df9565b91506131b883612df9565b9250828201905060ff8111156131d1576131d0612fb4565b5b92915050565b7f4e487b7100000000000000000000000000000000000000000000000000000000600052603160045260246000fd5b7f4552433732313a20696e76616c696420746f6b656e2049440000000000000000600082015250565b600061323c6018836125ff565b915061324782613206565b602082019050919050565b6000602082019050818103600083015261326b8161322f565b9050919050565b7f4552433732313a2061646472657373207a65726f206973206e6f74206120766160008201527f6c6964206f776e65720000000000000000000000000000000000000000000000602082015250565b60006132ce6029836125ff565b91506132d982613272565b604082019050919050565b600060208201905081810360008301526132fd816132c1565b9050919050565b600081905092915050565b600061331a826125f4565b6133248185613304565b9350613334818560208601612610565b80840191505092915050565b600061334c828561330f565b9150613358828461330f565b91508190509392505050565b7f54657374476173736c6573734e46543a204d617820616d6f756e74206578636560008201527f6564000000000000000000000000000000000000000000000000000000000000602082015250565b60006133c06022836125ff565b91506133cb82613364565b604082019050919050565b600060208201905081810360008301526133ef816133b3565b9050919050565b7f4f776e61626c653a206e6577206f776e657220697320746865207a65726f206160008201527f6464726573730000000000000000000000000000000000000000000000000000602082015250565b60006134526026836125ff565b915061345d826133f6565b604082019050919050565b6000602082019050818103600083015261348181613445565b9050919050565b7f4552433732313a207472616e736665722066726f6d20696e636f72726563742060008201527f6f776e6572000000000000000000000000000000000000000000000000000000602082015250565b60006134e46025836125ff565b91506134ef82613488565b604082019050919050565b60006020820190508181036000830152613513816134d7565b9050919050565b7f4552433732313a207472616e7366657220746f20746865207a65726f2061646460008201527f7265737300000000000000000000000000000000000000000000000000000000602082015250565b60006135766024836125ff565b91506135818261351a565b604082019050919050565b600060208201905081810360008301526135a581613569565b9050919050565b7f4f776e61626c653a2063616c6c6572206973206e6f7420746865206f776e6572600082015250565b60006135e26020836125ff565b91506135ed826135ac565b602082019050919050565b60006020820190508181036000830152613611816135d5565b9050919050565b7f4552433732313a20617070726f766520746f2063616c6c657200000000000000600082015250565b600061364e6019836125ff565b915061365982613618565b602082019050919050565b6000602082019050818103600083015261367d81613641565b9050919050565b7f4552433732313a207472616e7366657220746f206e6f6e20455243373231526560008201527f63656976657220696d706c656d656e7465720000000000000000000000000000602082015250565b60006136e06032836125ff565b91506136eb82613684565b604082019050919050565b6000602082019050818103600083015261370f816136d3565b9050919050565b7f45524337323155524953746f726167653a2055524920736574206f66206e6f6e60008201527f6578697374656e7420746f6b656e000000000000000000000000000000000000602082015250565b6000613772602e836125ff565b915061377d82613716565b604082019050919050565b600060208201905081810360008301526137a181613765565b9050919050565b60008190508160005260206000209050919050565b60006020601f8301049050919050565b600082821b905092915050565b60006008830261380a7fffffffffffffffffffffffffffffffffffffffffffffffffffffffffffffffff826137cd565b61381486836137cd565b95508019841693508086168417925050509392505050565b6000819050919050565b600061385161384c613847846126a6565b61382c565b6126a6565b9050919050565b6000819050919050565b61386b83613836565b61387f61387782613858565b8484546137da565b825550505050565b600090565b613894613887565b61389f818484613862565b505050565b5b818110156138c3576138b860008261388c565b6001810190506138a5565b5050565b601f821115613908576138d9816137a8565b6138e2846137bd565b810160208510156138f1578190505b6139056138fd856137bd565b8301826138a4565b50505b505050565b600082821c905092915050565b600061392b6000198460080261390d565b1980831691505092915050565b6000613944838361391a565b9150826002028217905092915050565b61395d826125f4565b67ffffffffffffffff81111561397657613975612b21565b5b6139808254612e5f565b61398b8282856138c7565b600060209050601f8311600181146139be57600084156139ac578287015190505b6139b68582613938565b865550613a1e565b601f1984166139cc866137a8565b60005b828110156139f4578489015182556001820191506020850194506020810190506139cf565b86831015613a115784890151613a0d601f89168261391a565b8355505b6001600288020188555050505b505050505050565b6000613a31826126a6565b9150613a3c836126a6565b9250828201905080821115613a5457613a53612fb4565b5b92915050565b600081519050919050565b600082825260208201905092915050565b6000613a8182613a5a565b613a8b8185613a65565b9350613a9b818560208601612610565b613aa48161263a565b840191505092915050565b6000608082019050613ac4600083018761273b565b613ad1602083018661273b565b613ade6040830185612a81565b8181036060830152613af08184613a76565b905095945050505050565b600081519050613b0a81612565565b92915050565b600060208284031215613b2657613b2561252f565b5b6000613b3484828501613afb565b91505092915050565b7f4e487b7100000000000000000000000000000000000000000000000000000000600052601260045260246000fd5b7f4552433732313a206d696e7420746f20746865207a65726f2061646472657373600082015250565b6000613ba26020836125ff565b9150613bad82613b6c565b602082019050919050565b60006020820190508181036000830152613bd181613b95565b9050919050565b7f4552433732313a20746f6b656e20616c7265616479206d696e74656400000000600082015250565b6000613c0e601c836125ff565b9150613c1982613bd8565b602082019050919050565b60006020820190508181036000830152613c3d81613c01565b905091905056fe68747470733a2f2f676174657761792e70696e6174612e636c6f75642f697066732fa26469706673582212207b8723666e2861de970a2896bff41e99efd55ea78d0ccdef1a972d7e306497c564736f6c63430008110033",
  "devdoc": {
    "kind": "dev",
    "methods": {
      "approve(address,uint256)": {
        "details": "See {IERC721-approve}."
      },
      "balanceOf(address)": {
        "details": "See {IERC721-balanceOf}."
      },
      "getApproved(uint256)": {
        "details": "See {IERC721-getApproved}."
      },
      "isApprovedForAll(address,address)": {
        "details": "See {IERC721-isApprovedForAll}."
      },
      "name()": {
        "details": "See {IERC721Metadata-name}."
      },
      "owner()": {
        "details": "Returns the address of the current owner."
      },
      "ownerOf(uint256)": {
        "details": "See {IERC721-ownerOf}."
      },
      "renounceOwnership()": {
        "details": "Leaves the contract without owner. It will not be possible to call `onlyOwner` functions anymore. Can only be called by the current owner. NOTE: Renouncing ownership will leave the contract without an owner, thereby removing any functionality that is only available to the owner."
      },
      "safeTransferFrom(address,address,uint256)": {
        "details": "See {IERC721-safeTransferFrom}."
      },
      "safeTransferFrom(address,address,uint256,bytes)": {
        "details": "See {IERC721-safeTransferFrom}."
      },
      "setApprovalForAll(address,bool)": {
        "details": "See {IERC721-setApprovalForAll}."
      },
      "supportsInterface(bytes4)": {
        "details": "See {IERC165-supportsInterface}."
      },
      "symbol()": {
        "details": "See {IERC721Metadata-symbol}."
      },
      "tokenURI(uint256)": {
        "details": "See {IERC721Metadata-tokenURI}."
      },
      "transferFrom(address,address,uint256)": {
        "details": "See {IERC721-transferFrom}."
      },
      "transferOwnership(address)": {
        "details": "Transfers ownership of the contract to a new account (`newOwner`). Can only be called by the current owner."
      }
    },
    "version": 1
  },
  "userdoc": {
    "kind": "user",
    "methods": {},
    "version": 1
  },
  "storageLayout": {
    "storage": [
      {
        "astId": 138,
        "contract": "contracts/TestGasslessNFT.sol:TestGasslessNFT",
        "label": "_name",
        "offset": 0,
        "slot": "0",
        "type": "t_string_storage"
      },
      {
        "astId": 140,
        "contract": "contracts/TestGasslessNFT.sol:TestGasslessNFT",
        "label": "_symbol",
        "offset": 0,
        "slot": "1",
        "type": "t_string_storage"
      },
      {
        "astId": 144,
        "contract": "contracts/TestGasslessNFT.sol:TestGasslessNFT",
        "label": "_owners",
        "offset": 0,
        "slot": "2",
        "type": "t_mapping(t_uint256,t_address)"
      },
      {
        "astId": 148,
        "contract": "contracts/TestGasslessNFT.sol:TestGasslessNFT",
        "label": "_balances",
        "offset": 0,
        "slot": "3",
        "type": "t_mapping(t_address,t_uint256)"
      },
      {
        "astId": 152,
        "contract": "contracts/TestGasslessNFT.sol:TestGasslessNFT",
        "label": "_tokenApprovals",
        "offset": 0,
        "slot": "4",
        "type": "t_mapping(t_uint256,t_address)"
      },
      {
        "astId": 158,
        "contract": "contracts/TestGasslessNFT.sol:TestGasslessNFT",
        "label": "_operatorApprovals",
        "offset": 0,
        "slot": "5",
        "type": "t_mapping(t_address,t_mapping(t_address,t_bool))"
      },
      {
        "astId": 1204,
        "contract": "contracts/TestGasslessNFT.sol:TestGasslessNFT",
        "label": "_tokenURIs",
        "offset": 0,
        "slot": "6",
        "type": "t_mapping(t_uint256,t_string_storage)"
      },
      {
        "astId": 7,
        "contract": "contracts/TestGasslessNFT.sol:TestGasslessNFT",
        "label": "_owner",
        "offset": 0,
        "slot": "7",
        "type": "t_address"
      },
      {
        "astId": 2865,
        "contract": "contracts/TestGasslessNFT.sol:TestGasslessNFT",
        "label": "_tokenIdCounter",
        "offset": 0,
        "slot": "8",
        "type": "t_struct(Counter)1701_storage"
      },
      {
        "astId": 2870,
        "contract": "contracts/TestGasslessNFT.sol:TestGasslessNFT",
        "label": "_userIds",
        "offset": 0,
        "slot": "9",
        "type": "t_mapping(t_address,t_array(t_uint256)dyn_storage)"
      },
      {
        "astId": 2874,
        "contract": "contracts/TestGasslessNFT.sol:TestGasslessNFT",
        "label": "_userIdIndex",
        "offset": 0,
        "slot": "10",
        "type": "t_mapping(t_uint256,t_uint8)"
      }
    ],
    "types": {
      "t_address": {
        "encoding": "inplace",
        "label": "address",
        "numberOfBytes": "20"
      },
      "t_array(t_uint256)dyn_storage": {
        "base": "t_uint256",
        "encoding": "dynamic_array",
        "label": "uint256[]",
        "numberOfBytes": "32"
      },
      "t_bool": {
        "encoding": "inplace",
        "label": "bool",
        "numberOfBytes": "1"
      },
      "t_mapping(t_address,t_array(t_uint256)dyn_storage)": {
        "encoding": "mapping",
        "key": "t_address",
        "label": "mapping(address => uint256[])",
        "numberOfBytes": "32",
        "value": "t_array(t_uint256)dyn_storage"
      },
      "t_mapping(t_address,t_bool)": {
        "encoding": "mapping",
        "key": "t_address",
        "label": "mapping(address => bool)",
        "numberOfBytes": "32",
        "value": "t_bool"
      },
      "t_mapping(t_address,t_mapping(t_address,t_bool))": {
        "encoding": "mapping",
        "key": "t_address",
        "label": "mapping(address => mapping(address => bool))",
        "numberOfBytes": "32",
        "value": "t_mapping(t_address,t_bool)"
      },
      "t_mapping(t_address,t_uint256)": {
        "encoding": "mapping",
        "key": "t_address",
        "label": "mapping(address => uint256)",
        "numberOfBytes": "32",
        "value": "t_uint256"
      },
      "t_mapping(t_uint256,t_address)": {
        "encoding": "mapping",
        "key": "t_uint256",
        "label": "mapping(uint256 => address)",
        "numberOfBytes": "32",
        "value": "t_address"
      },
      "t_mapping(t_uint256,t_string_storage)": {
        "encoding": "mapping",
        "key": "t_uint256",
        "label": "mapping(uint256 => string)",
        "numberOfBytes": "32",
        "value": "t_string_storage"
      },
      "t_mapping(t_uint256,t_uint8)": {
        "encoding": "mapping",
        "key": "t_uint256",
        "label": "mapping(uint256 => uint8)",
        "numberOfBytes": "32",
        "value": "t_uint8"
      },
      "t_string_storage": {
        "encoding": "bytes",
        "label": "string",
        "numberOfBytes": "32"
      },
      "t_struct(Counter)1701_storage": {
        "encoding": "inplace",
        "label": "struct Counters.Counter",
        "members": [
          {
            "astId": 1700,
            "contract": "contracts/TestGasslessNFT.sol:TestGasslessNFT",
            "label": "_value",
            "offset": 0,
            "slot": "0",
            "type": "t_uint256"
          }
        ],
        "numberOfBytes": "32"
      },
      "t_uint256": {
        "encoding": "inplace",
        "label": "uint256",
        "numberOfBytes": "32"
      },
      "t_uint8": {
        "encoding": "inplace",
        "label": "uint8",
        "numberOfBytes": "1"
      }
    }
  }
}