{
  "address": "0x46616Fa968e9cC679Bf6f3E8fd344a634C05Cee3",
  "abi": [
    {
      "inputs": [
        {
          "internalType": "uint8",
          "name": "maxMint",
          "type": "uint8"
        }
      ],
      "stateMutability": "nonpayable",
      "type": "constructor"
    },
    {
      "anonymous": false,
      "inputs": [
        {
          "indexed": true,
          "internalType": "address",
          "name": "owner",
          "type": "address"
        },
        {
          "indexed": true,
          "internalType": "address",
          "name": "approved",
          "type": "address"
        },
        {
          "indexed": true,
          "internalType": "uint256",
          "name": "tokenId",
          "type": "uint256"
        }
      ],
      "name": "Approval",
      "type": "event"
    },
    {
      "anonymous": false,
      "inputs": [
        {
          "indexed": true,
          "internalType": "address",
          "name": "owner",
          "type": "address"
        },
        {
          "indexed": true,
          "internalType": "address",
          "name": "operator",
          "type": "address"
        },
        {
          "indexed": false,
          "internalType": "bool",
          "name": "approved",
          "type": "bool"
        }
      ],
      "name": "ApprovalForAll",
      "type": "event"
    },
    {
      "anonymous": false,
      "inputs": [
        {
          "indexed": true,
          "internalType": "address",
          "name": "previousOwner",
          "type": "address"
        },
        {
          "indexed": true,
          "internalType": "address",
          "name": "newOwner",
          "type": "address"
        }
      ],
      "name": "OwnershipTransferred",
      "type": "event"
    },
    {
      "anonymous": false,
      "inputs": [
        {
          "indexed": true,
          "internalType": "address",
          "name": "from",
          "type": "address"
        },
        {
          "indexed": true,
          "internalType": "address",
          "name": "to",
          "type": "address"
        },
        {
          "indexed": true,
          "internalType": "uint256",
          "name": "tokenId",
          "type": "uint256"
        }
      ],
      "name": "Transfer",
      "type": "event"
    },
    {
      "inputs": [],
      "name": "MAX_MINT",
      "outputs": [
        {
          "internalType": "uint8",
          "name": "",
          "type": "uint8"
        }
      ],
      "stateMutability": "view",
      "type": "function"
    },
    {
      "inputs": [
        {
          "internalType": "address",
          "name": "to",
          "type": "address"
        },
        {
          "internalType": "uint256",
          "name": "tokenId",
          "type": "uint256"
        }
      ],
      "name": "approve",
      "outputs": [],
      "stateMutability": "nonpayable",
      "type": "function"
    },
    {
      "inputs": [
        {
          "internalType": "address",
          "name": "owner",
          "type": "address"
        }
      ],
      "name": "balanceOf",
      "outputs": [
        {
          "internalType": "uint256",
          "name": "",
          "type": "uint256"
        }
      ],
      "stateMutability": "view",
      "type": "function"
    },
    {
      "inputs": [
        {
          "internalType": "uint256",
          "name": "tokenId",
          "type": "uint256"
        }
      ],
      "name": "burn",
      "outputs": [],
      "stateMutability": "nonpayable",
      "type": "function"
    },
    {
      "inputs": [
        {
          "internalType": "uint256",
          "name": "tokenId",
          "type": "uint256"
        }
      ],
      "name": "getApproved",
      "outputs": [
        {
          "internalType": "address",
          "name": "",
          "type": "address"
        }
      ],
      "stateMutability": "view",
      "type": "function"
    },
    {
      "inputs": [
        {
          "internalType": "address",
          "name": "owner",
          "type": "address"
        },
        {
          "internalType": "address",
          "name": "operator",
          "type": "address"
        }
      ],
      "name": "isApprovedForAll",
      "outputs": [
        {
          "internalType": "bool",
          "name": "",
          "type": "bool"
        }
      ],
      "stateMutability": "view",
      "type": "function"
    },
    {
      "inputs": [],
      "name": "mint",
      "outputs": [],
      "stateMutability": "nonpayable",
      "type": "function"
    },
    {
      "inputs": [],
      "name": "name",
      "outputs": [
        {
          "internalType": "string",
          "name": "",
          "type": "string"
        }
      ],
      "stateMutability": "view",
      "type": "function"
    },
    {
      "inputs": [],
      "name": "owner",
      "outputs": [
        {
          "internalType": "address",
          "name": "",
          "type": "address"
        }
      ],
      "stateMutability": "view",
      "type": "function"
    },
    {
      "inputs": [
        {
          "internalType": "uint256",
          "name": "tokenId",
          "type": "uint256"
        }
      ],
      "name": "ownerOf",
      "outputs": [
        {
          "internalType": "address",
          "name": "",
          "type": "address"
        }
      ],
      "stateMutability": "view",
      "type": "function"
    },
    {
      "inputs": [],
      "name": "renounceOwnership",
      "outputs": [],
      "stateMutability": "nonpayable",
      "type": "function"
    },
    {
      "inputs": [
        {
          "internalType": "address",
          "name": "from",
          "type": "address"
        },
        {
          "internalType": "address",
          "name": "to",
          "type": "address"
        },
        {
          "internalType": "uint256",
          "name": "tokenId",
          "type": "uint256"
        }
      ],
      "name": "safeTransferFrom",
      "outputs": [],
      "stateMutability": "nonpayable",
      "type": "function"
    },
    {
      "inputs": [
        {
          "internalType": "address",
          "name": "from",
          "type": "address"
        },
        {
          "internalType": "address",
          "name": "to",
          "type": "address"
        },
        {
          "internalType": "uint256",
          "name": "tokenId",
          "type": "uint256"
        },
        {
          "internalType": "bytes",
          "name": "data",
          "type": "bytes"
        }
      ],
      "name": "safeTransferFrom",
      "outputs": [],
      "stateMutability": "nonpayable",
      "type": "function"
    },
    {
      "inputs": [
        {
          "internalType": "address",
          "name": "operator",
          "type": "address"
        },
        {
          "internalType": "bool",
          "name": "approved",
          "type": "bool"
        }
      ],
      "name": "setApprovalForAll",
      "outputs": [],
      "stateMutability": "nonpayable",
      "type": "function"
    },
    {
      "inputs": [
        {
          "internalType": "bytes4",
          "name": "interfaceId",
          "type": "bytes4"
        }
      ],
      "name": "supportsInterface",
      "outputs": [
        {
          "internalType": "bool",
          "name": "",
          "type": "bool"
        }
      ],
      "stateMutability": "view",
      "type": "function"
    },
    {
      "inputs": [],
      "name": "symbol",
      "outputs": [
        {
          "internalType": "string",
          "name": "",
          "type": "string"
        }
      ],
      "stateMutability": "view",
      "type": "function"
    },
    {
      "inputs": [
        {
          "internalType": "uint256",
          "name": "tokenId",
          "type": "uint256"
        }
      ],
      "name": "tokenURI",
      "outputs": [
        {
          "internalType": "string",
          "name": "",
          "type": "string"
        }
      ],
      "stateMutability": "view",
      "type": "function"
    },
    {
      "inputs": [
        {
          "internalType": "address",
          "name": "from",
          "type": "address"
        },
        {
          "internalType": "address",
          "name": "to",
          "type": "address"
        },
        {
          "internalType": "uint256",
          "name": "tokenId",
          "type": "uint256"
        }
      ],
      "name": "transferFrom",
      "outputs": [],
      "stateMutability": "nonpayable",
      "type": "function"
    },
    {
      "inputs": [
        {
          "internalType": "address",
          "name": "newOwner",
          "type": "address"
        }
      ],
      "name": "transferOwnership",
      "outputs": [],
      "stateMutability": "nonpayable",
      "type": "function"
    },
    {
      "inputs": [],
      "name": "userList",
      "outputs": [
        {
          "internalType": "string[]",
          "name": "",
          "type": "string[]"
        }
      ],
      "stateMutability": "view",
      "type": "function"
    }
  ],
  "transactionHash": "0xe5f2ccfd708cc57b66a33e61efd3ff61473ccf222cb98827c8ab49fda9927405",
  "args": [
    3
  ],
  "numDeployments": 1,
  "solcInputHash": "6ff633b289fbfd0572c34a707a7d2466",
  "bytecode": "0x60a06040523480156200001157600080fd5b5060405162003aa238038062003aa283398181016040528101906200003791906200020f565b6040518060400160405280600f81526020017f54657374476173736c6573734e465400000000000000000000000000000000008152506040518060400160405280600381526020017f54474e00000000000000000000000000000000000000000000000000000000008152508160009081620000b49190620004bb565b508060019081620000c69190620004bb565b505050620000e9620000dd620000fe60201b60201c565b6200010660201b60201c565b8060ff1660808160ff168152505050620005a2565b600033905090565b6000600660009054906101000a900473ffffffffffffffffffffffffffffffffffffffff16905081600660006101000a81548173ffffffffffffffffffffffffffffffffffffffff021916908373ffffffffffffffffffffffffffffffffffffffff1602179055508173ffffffffffffffffffffffffffffffffffffffff168173ffffffffffffffffffffffffffffffffffffffff167f8be0079c531659141344cd1fd0a4f28419497f9722a3daafe3b4186f6b6457e060405160405180910390a35050565b600080fd5b600060ff82169050919050565b620001e981620001d1565b8114620001f557600080fd5b50565b6000815190506200020981620001de565b92915050565b600060208284031215620002285762000227620001cc565b5b60006200023884828501620001f8565b91505092915050565b600081519050919050565b7f4e487b7100000000000000000000000000000000000000000000000000000000600052604160045260246000fd5b7f4e487b7100000000000000000000000000000000000000000000000000000000600052602260045260246000fd5b60006002820490506001821680620002c357607f821691505b602082108103620002d957620002d86200027b565b5b50919050565b60008190508160005260206000209050919050565b60006020601f8301049050919050565b600082821b905092915050565b600060088302620003437fffffffffffffffffffffffffffffffffffffffffffffffffffffffffffffffff8262000304565b6200034f868362000304565b95508019841693508086168417925050509392505050565b6000819050919050565b6000819050919050565b60006200039c62000396620003908462000367565b62000371565b62000367565b9050919050565b6000819050919050565b620003b8836200037b565b620003d0620003c782620003a3565b84845462000311565b825550505050565b600090565b620003e7620003d8565b620003f4818484620003ad565b505050565b5b818110156200041c5762000410600082620003dd565b600181019050620003fa565b5050565b601f8211156200046b576200043581620002df565b6200044084620002f4565b8101602085101562000450578190505b620004686200045f85620002f4565b830182620003f9565b50505b505050565b600082821c905092915050565b6000620004906000198460080262000470565b1980831691505092915050565b6000620004ab83836200047d565b9150826002028217905092915050565b620004c68262000241565b67ffffffffffffffff811115620004e257620004e16200024c565b5b620004ee8254620002aa565b620004fb82828562000420565b600060209050601f8311600181146200053357600084156200051e578287015190505b6200052a85826200049d565b8655506200059a565b601f1984166200054386620002df565b60005b828110156200056d5784890151825560018201915060208501945060208101905062000546565b868310156200058d578489015162000589601f8916826200047d565b8355505b6001600288020188555050505b505050505050565b6080516134dd620005c56000396000818161081f0152610f6201526134dd6000f3fe608060405234801561001057600080fd5b506004361061012c5760003560e01c806370a08231116100ad578063b88d4fde11610071578063b88d4fde14610309578063c87b56dd14610325578063e985e9c514610355578063f0292a0314610385578063f2fde38b146103a35761012c565b806370a0823114610277578063715018a6146102a75780638da5cb5b146102b157806395d89b41146102cf578063a22cb465146102ed5761012c565b80631249c58b116100f45780631249c58b146101e957806323b872dd146101f357806342842e0e1461020f57806342966c681461022b5780636352211e146102475761012c565b806301ffc9a71461013157806306fdde0314610161578063081812fc1461017f578063095ea7b3146101af5780630e0f785f146101cb575b600080fd5b61014b60048036038101906101469190612299565b6103bf565b60405161015891906122e1565b60405180910390f35b6101696104a1565b604051610176919061238c565b60405180910390f35b610199600480360381019061019491906123e4565b610533565b6040516101a69190612452565b60405180910390f35b6101c960048036038101906101c49190612499565b610579565b005b6101d3610690565b6040516101e091906125e5565b60405180910390f35b6101f161081d565b005b61020d60048036038101906102089190612607565b6109e5565b005b61022960048036038101906102249190612607565b610a45565b005b610245600480360381019061024091906123e4565b610a65565b005b610261600480360381019061025c91906123e4565b610bdf565b60405161026e9190612452565b60405180910390f35b610291600480360381019061028c919061265a565b610c65565b60405161029e9190612696565b60405180910390f35b6102af610d1c565b005b6102b9610d30565b6040516102c69190612452565b60405180910390f35b6102d7610d5a565b6040516102e4919061238c565b60405180910390f35b610307600480360381019061030291906126dd565b610dec565b005b610323600480360381019061031e9190612852565b610e02565b005b61033f600480360381019061033a91906123e4565b610e64565b60405161034c919061238c565b60405180910390f35b61036f600480360381019061036a91906128d5565b610ecc565b60405161037c91906122e1565b60405180910390f35b61038d610f60565b60405161039a9190612931565b60405180910390f35b6103bd60048036038101906103b8919061265a565b610f84565b005b60007f80ac58cd000000000000000000000000000000000000000000000000000000007bffffffffffffffffffffffffffffffffffffffffffffffffffffffff1916827bffffffffffffffffffffffffffffffffffffffffffffffffffffffff1916148061048a57507f5b5e139f000000000000000000000000000000000000000000000000000000007bffffffffffffffffffffffffffffffffffffffffffffffffffffffff1916827bffffffffffffffffffffffffffffffffffffffffffffffffffffffff1916145b8061049a575061049982611007565b5b9050919050565b6060600080546104b09061297b565b80601f01602080910402602001604051908101604052809291908181526020018280546104dc9061297b565b80156105295780601f106104fe57610100808354040283529160200191610529565b820191906000526020600020905b81548152906001019060200180831161050c57829003601f168201915b5050505050905090565b600061053e82611071565b6004600083815260200190815260200160002060009054906101000a900473ffffffffffffffffffffffffffffffffffffffff169050919050565b600061058482610bdf565b90508073ffffffffffffffffffffffffffffffffffffffff168373ffffffffffffffffffffffffffffffffffffffff16036105f4576040517f08c379a00000000000000000000000000000000000000000000000000000000081526004016105eb90612a1e565b60405180910390fd5b8073ffffffffffffffffffffffffffffffffffffffff166106136110bc565b73ffffffffffffffffffffffffffffffffffffffff16148061064257506106418161063c6110bc565b610ecc565b5b610681576040517f08c379a000000000000000000000000000000000000000000000000000000000815260040161067890612ab0565b60405180910390fd5b61068b83836110c4565b505050565b60606000600860006106a06110bc565b73ffffffffffffffffffffffffffffffffffffffff1673ffffffffffffffffffffffffffffffffffffffff16815260200190815260200160002080548060200260200160405190810160405280929190818152602001828054801561072457602002820191906000526020600020905b815481526020019060010190808311610710575b5050505050905060008151905060008160ff1667ffffffffffffffff8111156107505761074f612727565b5b60405190808252806020026020018201604052801561078357816020015b606081526020019060019003908161076e5790505b50905060008260ff160361079c5780935050505061081a565b60005b6001836107ac9190612aff565b60ff168160ff1611610812576107de848260ff16815181106107d1576107d0612b34565b5b6020026020010151610e64565b828260ff16815181106107f4576107f3612b34565b5b6020026020010181905250808061080a90612b63565b91505061079f565b508093505050505b90565b7f000000000000000000000000000000000000000000000000000000000000000060ff166008600061084d6110bc565b73ffffffffffffffffffffffffffffffffffffffff1673ffffffffffffffffffffffffffffffffffffffff16815260200190815260200160002080549050106108cb576040517f08c379a00000000000000000000000000000000000000000000000000000000081526004016108c290612bfe565b60405180910390fd5b60006108d7600761117d565b90506108e3600761118b565b600860006108ef6110bc565b73ffffffffffffffffffffffffffffffffffffffff1673ffffffffffffffffffffffffffffffffffffffff16815260200190815260200160002081908060018154018082558091505060019003906000526020600020016000909190919091505560016008600061095e6110bc565b73ffffffffffffffffffffffffffffffffffffffff1673ffffffffffffffffffffffffffffffffffffffff168152602001908152602001600020805490506109a69190612c1e565b6009600083815260200190815260200160002060006101000a81548160ff021916908360ff1602179055506109e26109dc6110bc565b826111a1565b50565b6109f66109f06110bc565b826111bf565b610a35576040517f08c379a0000000000000000000000000000000000000000000000000000000008152600401610a2c90612cc4565b60405180910390fd5b610a40838383611254565b505050565b610a6083838360405180602001604052806000815250610e02565b505050565b6000610a7082610bdf565b90506000600860008373ffffffffffffffffffffffffffffffffffffffff1673ffffffffffffffffffffffffffffffffffffffff168152602001908152602001600020905060006009600085815260200190815260200160002060009054906101000a900460ff16905081805490508160ff1610610b23576040517f08c379a0000000000000000000000000000000000000000000000000000000008152600401610b1a90612d30565b60405180910390fd5b60008190505b60018380549050610b3a9190612c1e565b8160ff161015610ba85782600182610b529190612d50565b60ff1681548110610b6657610b65612b34565b5b9060005260206000200154838260ff1681548110610b8757610b86612b34565b5b90600052602060002001819055508080610ba090612b63565b915050610b29565b5081805480610bba57610bb9612d85565b5b60019003818190600052602060002001600090559055610bd98461154d565b50505050565b600080610beb836115a9565b9050600073ffffffffffffffffffffffffffffffffffffffff168173ffffffffffffffffffffffffffffffffffffffff1603610c5c576040517f08c379a0000000000000000000000000000000000000000000000000000000008152600401610c5390612e00565b60405180910390fd5b80915050919050565b60008073ffffffffffffffffffffffffffffffffffffffff168273ffffffffffffffffffffffffffffffffffffffff1603610cd5576040517f08c379a0000000000000000000000000000000000000000000000000000000008152600401610ccc90612e92565b60405180910390fd5b600360008373ffffffffffffffffffffffffffffffffffffffff1673ffffffffffffffffffffffffffffffffffffffff168152602001908152602001600020549050919050565b610d246115e6565b610d2e6000611664565b565b6000600660009054906101000a900473ffffffffffffffffffffffffffffffffffffffff16905090565b606060018054610d699061297b565b80601f0160208091040260200160405190810160405280929190818152602001828054610d959061297b565b8015610de25780601f10610db757610100808354040283529160200191610de2565b820191906000526020600020905b815481529060010190602001808311610dc557829003601f168201915b5050505050905090565b610dfe610df76110bc565b838361172a565b5050565b610e13610e0d6110bc565b836111bf565b610e52576040517f08c379a0000000000000000000000000000000000000000000000000000000008152600401610e4990612cc4565b60405180910390fd5b610e5e84848484611896565b50505050565b6060610e6f82611071565b6000610e796118f2565b90506000815111610e995760405180602001604052806000815250610ec4565b80610ea38461192f565b604051602001610eb4929190612f3a565b6040516020818303038152906040525b915050919050565b6000600560008473ffffffffffffffffffffffffffffffffffffffff1673ffffffffffffffffffffffffffffffffffffffff16815260200190815260200160002060008373ffffffffffffffffffffffffffffffffffffffff1673ffffffffffffffffffffffffffffffffffffffff16815260200190815260200160002060009054906101000a900460ff16905092915050565b7f000000000000000000000000000000000000000000000000000000000000000081565b610f8c6115e6565b600073ffffffffffffffffffffffffffffffffffffffff168173ffffffffffffffffffffffffffffffffffffffff1603610ffb576040517f08c379a0000000000000000000000000000000000000000000000000000000008152600401610ff290612fdb565b60405180910390fd5b61100481611664565b50565b60007f01ffc9a7000000000000000000000000000000000000000000000000000000007bffffffffffffffffffffffffffffffffffffffffffffffffffffffff1916827bffffffffffffffffffffffffffffffffffffffffffffffffffffffff1916149050919050565b61107a816119fd565b6110b9576040517f08c379a00000000000000000000000000000000000000000000000000000000081526004016110b090612e00565b60405180910390fd5b50565b600033905090565b816004600083815260200190815260200160002060006101000a81548173ffffffffffffffffffffffffffffffffffffffff021916908373ffffffffffffffffffffffffffffffffffffffff160217905550808273ffffffffffffffffffffffffffffffffffffffff1661113783610bdf565b73ffffffffffffffffffffffffffffffffffffffff167f8c5be1e5ebec7d5bd14f71427d1e84f3dd0314c0f7b2291e5b200ac8c7c3b92560405160405180910390a45050565b600081600001549050919050565b6001816000016000828254019250508190555050565b6111bb828260405180602001604052806000815250611a3e565b5050565b6000806111cb83610bdf565b90508073ffffffffffffffffffffffffffffffffffffffff168473ffffffffffffffffffffffffffffffffffffffff16148061120d575061120c8185610ecc565b5b8061124b57508373ffffffffffffffffffffffffffffffffffffffff1661123384610533565b73ffffffffffffffffffffffffffffffffffffffff16145b91505092915050565b8273ffffffffffffffffffffffffffffffffffffffff1661127482610bdf565b73ffffffffffffffffffffffffffffffffffffffff16146112ca576040517f08c379a00000000000000000000000000000000000000000000000000000000081526004016112c19061306d565b60405180910390fd5b600073ffffffffffffffffffffffffffffffffffffffff168273ffffffffffffffffffffffffffffffffffffffff1603611339576040517f08c379a0000000000000000000000000000000000000000000000000000000008152600401611330906130ff565b60405180910390fd5b6113468383836001611a99565b8273ffffffffffffffffffffffffffffffffffffffff1661136682610bdf565b73ffffffffffffffffffffffffffffffffffffffff16146113bc576040517f08c379a00000000000000000000000000000000000000000000000000000000081526004016113b39061306d565b60405180910390fd5b6004600082815260200190815260200160002060006101000a81549073ffffffffffffffffffffffffffffffffffffffff02191690556001600360008573ffffffffffffffffffffffffffffffffffffffff1673ffffffffffffffffffffffffffffffffffffffff168152602001908152602001600020600082825403925050819055506001600360008473ffffffffffffffffffffffffffffffffffffffff1673ffffffffffffffffffffffffffffffffffffffff16815260200190815260200160002060008282540192505081905550816002600083815260200190815260200160002060006101000a81548173ffffffffffffffffffffffffffffffffffffffff021916908373ffffffffffffffffffffffffffffffffffffffff160217905550808273ffffffffffffffffffffffffffffffffffffffff168473ffffffffffffffffffffffffffffffffffffffff167fddf252ad1be2c89b69c2b068fc378daa952ba7f163c4a11628f55a4df523b3ef60405160405180910390a46115488383836001611bbf565b505050565b61155e6115586110bc565b826111bf565b61159d576040517f08c379a000000000000000000000000000000000000000000000000000000000815260040161159490612cc4565b60405180910390fd5b6115a681611bc5565b50565b60006002600083815260200190815260200160002060009054906101000a900473ffffffffffffffffffffffffffffffffffffffff169050919050565b6115ee6110bc565b73ffffffffffffffffffffffffffffffffffffffff1661160c610d30565b73ffffffffffffffffffffffffffffffffffffffff1614611662576040517f08c379a00000000000000000000000000000000000000000000000000000000081526004016116599061316b565b60405180910390fd5b565b6000600660009054906101000a900473ffffffffffffffffffffffffffffffffffffffff16905081600660006101000a81548173ffffffffffffffffffffffffffffffffffffffff021916908373ffffffffffffffffffffffffffffffffffffffff1602179055508173ffffffffffffffffffffffffffffffffffffffff168173ffffffffffffffffffffffffffffffffffffffff167f8be0079c531659141344cd1fd0a4f28419497f9722a3daafe3b4186f6b6457e060405160405180910390a35050565b8173ffffffffffffffffffffffffffffffffffffffff168373ffffffffffffffffffffffffffffffffffffffff1603611798576040517f08c379a000000000000000000000000000000000000000000000000000000000815260040161178f906131d7565b60405180910390fd5b80600560008573ffffffffffffffffffffffffffffffffffffffff1673ffffffffffffffffffffffffffffffffffffffff16815260200190815260200160002060008473ffffffffffffffffffffffffffffffffffffffff1673ffffffffffffffffffffffffffffffffffffffff16815260200190815260200160002060006101000a81548160ff0219169083151502179055508173ffffffffffffffffffffffffffffffffffffffff168373ffffffffffffffffffffffffffffffffffffffff167f17307eab39ab6107e8899845ad3d59bd9653f200f220920489ca2b5937696c318360405161188991906122e1565b60405180910390a3505050565b6118a1848484611254565b6118ad84848484611d13565b6118ec576040517f08c379a00000000000000000000000000000000000000000000000000000000081526004016118e390613269565b60405180910390fd5b50505050565b60606040518060400160405280601b81526020017f68747470733a2f2f70696373756d2e70686f746f732f736565642f0000000000815250905090565b60606000600161193e84611e9a565b01905060008167ffffffffffffffff81111561195d5761195c612727565b5b6040519080825280601f01601f19166020018201604052801561198f5781602001600182028036833780820191505090505b509050600082602001820190505b6001156119f2578080600190039150507f3031323334353637383961626364656600000000000000000000000000000000600a86061a8153600a85816119e6576119e5613289565b5b0494506000850361199d575b819350505050919050565b60008073ffffffffffffffffffffffffffffffffffffffff16611a1f836115a9565b73ffffffffffffffffffffffffffffffffffffffff1614159050919050565b611a488383611fed565b611a556000848484611d13565b611a94576040517f08c379a0000000000000000000000000000000000000000000000000000000008152600401611a8b90613269565b60405180910390fd5b505050565b6001811115611bb957600073ffffffffffffffffffffffffffffffffffffffff168473ffffffffffffffffffffffffffffffffffffffff1614611b2d5780600360008673ffffffffffffffffffffffffffffffffffffffff1673ffffffffffffffffffffffffffffffffffffffff1681526020019081526020016000206000828254611b259190612c1e565b925050819055505b600073ffffffffffffffffffffffffffffffffffffffff168373ffffffffffffffffffffffffffffffffffffffff1614611bb85780600360008573ffffffffffffffffffffffffffffffffffffffff1673ffffffffffffffffffffffffffffffffffffffff1681526020019081526020016000206000828254611bb091906132b8565b925050819055505b5b50505050565b50505050565b6000611bd082610bdf565b9050611be0816000846001611a99565b611be982610bdf565b90506004600083815260200190815260200160002060006101000a81549073ffffffffffffffffffffffffffffffffffffffff02191690556001600360008373ffffffffffffffffffffffffffffffffffffffff1673ffffffffffffffffffffffffffffffffffffffff168152602001908152602001600020600082825403925050819055506002600083815260200190815260200160002060006101000a81549073ffffffffffffffffffffffffffffffffffffffff021916905581600073ffffffffffffffffffffffffffffffffffffffff168273ffffffffffffffffffffffffffffffffffffffff167fddf252ad1be2c89b69c2b068fc378daa952ba7f163c4a11628f55a4df523b3ef60405160405180910390a4611d0f816000846001611bbf565b5050565b6000611d348473ffffffffffffffffffffffffffffffffffffffff1661220a565b15611e8d578373ffffffffffffffffffffffffffffffffffffffff1663150b7a02611d5d6110bc565b8786866040518563ffffffff1660e01b8152600401611d7f9493929190613341565b6020604051808303816000875af1925050508015611dbb57506040513d601f19601f82011682018060405250810190611db891906133a2565b60015b611e3d573d8060008114611deb576040519150601f19603f3d011682016040523d82523d6000602084013e611df0565b606091505b506000815103611e35576040517f08c379a0000000000000000000000000000000000000000000000000000000008152600401611e2c90613269565b60405180910390fd5b805181602001fd5b63150b7a0260e01b7bffffffffffffffffffffffffffffffffffffffffffffffffffffffff1916817bffffffffffffffffffffffffffffffffffffffffffffffffffffffff191614915050611e92565b600190505b949350505050565b600080600090507a184f03e93ff9f4daa797ed6e38ed64bf6a1f0100000000000000008310611ef8577a184f03e93ff9f4daa797ed6e38ed64bf6a1f0100000000000000008381611eee57611eed613289565b5b0492506040810190505b6d04ee2d6d415b85acef81000000008310611f35576d04ee2d6d415b85acef81000000008381611f2b57611f2a613289565b5b0492506020810190505b662386f26fc100008310611f6457662386f26fc100008381611f5a57611f59613289565b5b0492506010810190505b6305f5e1008310611f8d576305f5e1008381611f8357611f82613289565b5b0492506008810190505b6127108310611fb2576127108381611fa857611fa7613289565b5b0492506004810190505b60648310611fd55760648381611fcb57611fca613289565b5b0492506002810190505b600a8310611fe4576001810190505b80915050919050565b600073ffffffffffffffffffffffffffffffffffffffff168273ffffffffffffffffffffffffffffffffffffffff160361205c576040517f08c379a00000000000000000000000000000000000000000000000000000000081526004016120539061341b565b60405180910390fd5b612065816119fd565b156120a5576040517f08c379a000000000000000000000000000000000000000000000000000000000815260040161209c90613487565b60405180910390fd5b6120b3600083836001611a99565b6120bc816119fd565b156120fc576040517f08c379a00000000000000000000000000000000000000000000000000000000081526004016120f390613487565b60405180910390fd5b6001600360008473ffffffffffffffffffffffffffffffffffffffff1673ffffffffffffffffffffffffffffffffffffffff16815260200190815260200160002060008282540192505081905550816002600083815260200190815260200160002060006101000a81548173ffffffffffffffffffffffffffffffffffffffff021916908373ffffffffffffffffffffffffffffffffffffffff160217905550808273ffffffffffffffffffffffffffffffffffffffff16600073ffffffffffffffffffffffffffffffffffffffff167fddf252ad1be2c89b69c2b068fc378daa952ba7f163c4a11628f55a4df523b3ef60405160405180910390a4612206600083836001611bbf565b5050565b6000808273ffffffffffffffffffffffffffffffffffffffff163b119050919050565b6000604051905090565b600080fd5b600080fd5b60007fffffffff0000000000000000000000000000000000000000000000000000000082169050919050565b61227681612241565b811461228157600080fd5b50565b6000813590506122938161226d565b92915050565b6000602082840312156122af576122ae612237565b5b60006122bd84828501612284565b91505092915050565b60008115159050919050565b6122db816122c6565b82525050565b60006020820190506122f660008301846122d2565b92915050565b600081519050919050565b600082825260208201905092915050565b60005b8381101561233657808201518184015260208101905061231b565b60008484015250505050565b6000601f19601f8301169050919050565b600061235e826122fc565b6123688185612307565b9350612378818560208601612318565b61238181612342565b840191505092915050565b600060208201905081810360008301526123a68184612353565b905092915050565b6000819050919050565b6123c1816123ae565b81146123cc57600080fd5b50565b6000813590506123de816123b8565b92915050565b6000602082840312156123fa576123f9612237565b5b6000612408848285016123cf565b91505092915050565b600073ffffffffffffffffffffffffffffffffffffffff82169050919050565b600061243c82612411565b9050919050565b61244c81612431565b82525050565b60006020820190506124676000830184612443565b92915050565b61247681612431565b811461248157600080fd5b50565b6000813590506124938161246d565b92915050565b600080604083850312156124b0576124af612237565b5b60006124be85828601612484565b92505060206124cf858286016123cf565b9150509250929050565b600081519050919050565b600082825260208201905092915050565b6000819050602082019050919050565b600082825260208201905092915050565b6000612521826122fc565b61252b8185612505565b935061253b818560208601612318565b61254481612342565b840191505092915050565b600061255b8383612516565b905092915050565b6000602082019050919050565b600061257b826124d9565b61258581856124e4565b935083602082028501612597856124f5565b8060005b858110156125d357848403895281516125b4858261254f565b94506125bf83612563565b925060208a0199505060018101905061259b565b50829750879550505050505092915050565b600060208201905081810360008301526125ff8184612570565b905092915050565b6000806000606084860312156126205761261f612237565b5b600061262e86828701612484565b935050602061263f86828701612484565b9250506040612650868287016123cf565b9150509250925092565b6000602082840312156126705761266f612237565b5b600061267e84828501612484565b91505092915050565b612690816123ae565b82525050565b60006020820190506126ab6000830184612687565b92915050565b6126ba816122c6565b81146126c557600080fd5b50565b6000813590506126d7816126b1565b92915050565b600080604083850312156126f4576126f3612237565b5b600061270285828601612484565b9250506020612713858286016126c8565b9150509250929050565b600080fd5b600080fd5b7f4e487b7100000000000000000000000000000000000000000000000000000000600052604160045260246000fd5b61275f82612342565b810181811067ffffffffffffffff8211171561277e5761277d612727565b5b80604052505050565b600061279161222d565b905061279d8282612756565b919050565b600067ffffffffffffffff8211156127bd576127bc612727565b5b6127c682612342565b9050602081019050919050565b82818337600083830152505050565b60006127f56127f0846127a2565b612787565b90508281526020810184848401111561281157612810612722565b5b61281c8482856127d3565b509392505050565b600082601f8301126128395761283861271d565b5b81356128498482602086016127e2565b91505092915050565b6000806000806080858703121561286c5761286b612237565b5b600061287a87828801612484565b945050602061288b87828801612484565b935050604061289c878288016123cf565b925050606085013567ffffffffffffffff8111156128bd576128bc61223c565b5b6128c987828801612824565b91505092959194509250565b600080604083850312156128ec576128eb612237565b5b60006128fa85828601612484565b925050602061290b85828601612484565b9150509250929050565b600060ff82169050919050565b61292b81612915565b82525050565b60006020820190506129466000830184612922565b92915050565b7f4e487b7100000000000000000000000000000000000000000000000000000000600052602260045260246000fd5b6000600282049050600182168061299357607f821691505b6020821081036129a6576129a561294c565b5b50919050565b7f4552433732313a20617070726f76616c20746f2063757272656e74206f776e6560008201527f7200000000000000000000000000000000000000000000000000000000000000602082015250565b6000612a08602183612307565b9150612a13826129ac565b604082019050919050565b60006020820190508181036000830152612a37816129fb565b9050919050565b7f4552433732313a20617070726f76652063616c6c6572206973206e6f7420746f60008201527f6b656e206f776e6572206f7220617070726f76656420666f7220616c6c000000602082015250565b6000612a9a603d83612307565b9150612aa582612a3e565b604082019050919050565b60006020820190508181036000830152612ac981612a8d565b9050919050565b7f4e487b7100000000000000000000000000000000000000000000000000000000600052601160045260246000fd5b6000612b0a82612915565b9150612b1583612915565b9250828203905060ff811115612b2e57612b2d612ad0565b5b92915050565b7f4e487b7100000000000000000000000000000000000000000000000000000000600052603260045260246000fd5b6000612b6e82612915565b915060ff8203612b8157612b80612ad0565b5b600182019050919050565b7f54657374476173736c6573734e46543a204d617820616d6f756e74206578636560008201527f6564000000000000000000000000000000000000000000000000000000000000602082015250565b6000612be8602283612307565b9150612bf382612b8c565b604082019050919050565b60006020820190508181036000830152612c1781612bdb565b9050919050565b6000612c29826123ae565b9150612c34836123ae565b9250828203905081811115612c4c57612c4b612ad0565b5b92915050565b7f4552433732313a2063616c6c6572206973206e6f7420746f6b656e206f776e6560008201527f72206f7220617070726f76656400000000000000000000000000000000000000602082015250565b6000612cae602d83612307565b9150612cb982612c52565b604082019050919050565b60006020820190508181036000830152612cdd81612ca1565b9050919050565b7f54657374476173736c6573734e46543a20496e64657820657863656564000000600082015250565b6000612d1a601d83612307565b9150612d2582612ce4565b602082019050919050565b60006020820190508181036000830152612d4981612d0d565b9050919050565b6000612d5b82612915565b9150612d6683612915565b9250828201905060ff811115612d7f57612d7e612ad0565b5b92915050565b7f4e487b7100000000000000000000000000000000000000000000000000000000600052603160045260246000fd5b7f4552433732313a20696e76616c696420746f6b656e2049440000000000000000600082015250565b6000612dea601883612307565b9150612df582612db4565b602082019050919050565b60006020820190508181036000830152612e1981612ddd565b9050919050565b7f4552433732313a2061646472657373207a65726f206973206e6f74206120766160008201527f6c6964206f776e65720000000000000000000000000000000000000000000000602082015250565b6000612e7c602983612307565b9150612e8782612e20565b604082019050919050565b60006020820190508181036000830152612eab81612e6f565b9050919050565b600081905092915050565b6000612ec8826122fc565b612ed28185612eb2565b9350612ee2818560208601612318565b80840191505092915050565b7f2f3430302f353030000000000000000000000000000000000000000000000000600082015250565b6000612f24600883612eb2565b9150612f2f82612eee565b600882019050919050565b6000612f468285612ebd565b9150612f528284612ebd565b9150612f5d82612f17565b91508190509392505050565b7f4f776e61626c653a206e6577206f776e657220697320746865207a65726f206160008201527f6464726573730000000000000000000000000000000000000000000000000000602082015250565b6000612fc5602683612307565b9150612fd082612f69565b604082019050919050565b60006020820190508181036000830152612ff481612fb8565b9050919050565b7f4552433732313a207472616e736665722066726f6d20696e636f72726563742060008201527f6f776e6572000000000000000000000000000000000000000000000000000000602082015250565b6000613057602583612307565b915061306282612ffb565b604082019050919050565b600060208201905081810360008301526130868161304a565b9050919050565b7f4552433732313a207472616e7366657220746f20746865207a65726f2061646460008201527f7265737300000000000000000000000000000000000000000000000000000000602082015250565b60006130e9602483612307565b91506130f48261308d565b604082019050919050565b60006020820190508181036000830152613118816130dc565b9050919050565b7f4f776e61626c653a2063616c6c6572206973206e6f7420746865206f776e6572600082015250565b6000613155602083612307565b91506131608261311f565b602082019050919050565b6000602082019050818103600083015261318481613148565b9050919050565b7f4552433732313a20617070726f766520746f2063616c6c657200000000000000600082015250565b60006131c1601983612307565b91506131cc8261318b565b602082019050919050565b600060208201905081810360008301526131f0816131b4565b9050919050565b7f4552433732313a207472616e7366657220746f206e6f6e20455243373231526560008201527f63656976657220696d706c656d656e7465720000000000000000000000000000602082015250565b6000613253603283612307565b915061325e826131f7565b604082019050919050565b6000602082019050818103600083015261328281613246565b9050919050565b7f4e487b7100000000000000000000000000000000000000000000000000000000600052601260045260246000fd5b60006132c3826123ae565b91506132ce836123ae565b92508282019050808211156132e6576132e5612ad0565b5b92915050565b600081519050919050565b600082825260208201905092915050565b6000613313826132ec565b61331d81856132f7565b935061332d818560208601612318565b61333681612342565b840191505092915050565b60006080820190506133566000830187612443565b6133636020830186612443565b6133706040830185612687565b81810360608301526133828184613308565b905095945050505050565b60008151905061339c8161226d565b92915050565b6000602082840312156133b8576133b7612237565b5b60006133c68482850161338d565b91505092915050565b7f4552433732313a206d696e7420746f20746865207a65726f2061646472657373600082015250565b6000613405602083612307565b9150613410826133cf565b602082019050919050565b60006020820190508181036000830152613434816133f8565b9050919050565b7f4552433732313a20746f6b656e20616c7265616479206d696e74656400000000600082015250565b6000613471601c83612307565b915061347c8261343b565b602082019050919050565b600060208201905081810360008301526134a081613464565b905091905056fea2646970667358221220d646fcaacdad6087c4dd4c43c55266600419b53235dcc5df9c24bb2161ea611964736f6c63430008110033",
  "devdoc": {
    "kind": "dev",
    "methods": {
      "approve(address,uint256)": {
        "details": "See {IERC721-approve}."
      },
      "balanceOf(address)": {
        "details": "See {IERC721-balanceOf}."
      },
      "burn(uint256)": {
        "details": "Burns `tokenId`. See {ERC721-_burn}. Requirements: - The caller must own `tokenId` or be an approved operator."
      },
      "getApproved(uint256)": {
        "details": "See {IERC721-getApproved}."
      },
      "isApprovedForAll(address,address)": {
        "details": "See {IERC721-isApprovedForAll}."
      },
      "name()": {
        "details": "See {IERC721Metadata-name}."
      },
      "owner()": {
        "details": "Returns the address of the current owner."
      },
      "ownerOf(uint256)": {
        "details": "See {IERC721-ownerOf}."
      },
      "renounceOwnership()": {
        "details": "Leaves the contract without owner. It will not be possible to call `onlyOwner` functions anymore. Can only be called by the current owner. NOTE: Renouncing ownership will leave the contract without an owner, thereby removing any functionality that is only available to the owner."
      },
      "safeTransferFrom(address,address,uint256)": {
        "details": "See {IERC721-safeTransferFrom}."
      },
      "safeTransferFrom(address,address,uint256,bytes)": {
        "details": "See {IERC721-safeTransferFrom}."
      },
      "setApprovalForAll(address,bool)": {
        "details": "See {IERC721-setApprovalForAll}."
      },
      "supportsInterface(bytes4)": {
        "details": "See {IERC165-supportsInterface}."
      },
      "symbol()": {
        "details": "See {IERC721Metadata-symbol}."
      },
      "tokenURI(uint256)": {
        "details": "See {IERC721Metadata-tokenURI}."
      },
      "transferFrom(address,address,uint256)": {
        "details": "See {IERC721-transferFrom}."
      },
      "transferOwnership(address)": {
        "details": "Transfers ownership of the contract to a new account (`newOwner`). Can only be called by the current owner."
      }
    },
    "version": 1
  },
  "userdoc": {
    "kind": "user",
    "methods": {},
    "version": 1
  },
  "storageLayout": {
    "storage": [
      {
        "astId": 138,
        "contract": "contracts/TestGasslessNFT.sol:TestGasslessNFT",
        "label": "_name",
        "offset": 0,
        "slot": "0",
        "type": "t_string_storage"
      },
      {
        "astId": 140,
        "contract": "contracts/TestGasslessNFT.sol:TestGasslessNFT",
        "label": "_symbol",
        "offset": 0,
        "slot": "1",
        "type": "t_string_storage"
      },
      {
        "astId": 144,
        "contract": "contracts/TestGasslessNFT.sol:TestGasslessNFT",
        "label": "_owners",
        "offset": 0,
        "slot": "2",
        "type": "t_mapping(t_uint256,t_address)"
      },
      {
        "astId": 148,
        "contract": "contracts/TestGasslessNFT.sol:TestGasslessNFT",
        "label": "_balances",
        "offset": 0,
        "slot": "3",
        "type": "t_mapping(t_address,t_uint256)"
      },
      {
        "astId": 152,
        "contract": "contracts/TestGasslessNFT.sol:TestGasslessNFT",
        "label": "_tokenApprovals",
        "offset": 0,
        "slot": "4",
        "type": "t_mapping(t_uint256,t_address)"
      },
      {
        "astId": 158,
        "contract": "contracts/TestGasslessNFT.sol:TestGasslessNFT",
        "label": "_operatorApprovals",
        "offset": 0,
        "slot": "5",
        "type": "t_mapping(t_address,t_mapping(t_address,t_bool))"
      },
      {
        "astId": 7,
        "contract": "contracts/TestGasslessNFT.sol:TestGasslessNFT",
        "label": "_owner",
        "offset": 0,
        "slot": "6",
        "type": "t_address"
      },
      {
        "astId": 2770,
        "contract": "contracts/TestGasslessNFT.sol:TestGasslessNFT",
        "label": "_tokenIdCounter",
        "offset": 0,
        "slot": "7",
        "type": "t_struct(Counter)1606_storage"
      },
      {
        "astId": 2775,
        "contract": "contracts/TestGasslessNFT.sol:TestGasslessNFT",
        "label": "_userIds",
        "offset": 0,
        "slot": "8",
        "type": "t_mapping(t_address,t_array(t_uint256)dyn_storage)"
      },
      {
        "astId": 2779,
        "contract": "contracts/TestGasslessNFT.sol:TestGasslessNFT",
        "label": "_userIdIndex",
        "offset": 0,
        "slot": "9",
        "type": "t_mapping(t_uint256,t_uint8)"
      }
    ],
    "types": {
      "t_address": {
        "encoding": "inplace",
        "label": "address",
        "numberOfBytes": "20"
      },
      "t_array(t_uint256)dyn_storage": {
        "base": "t_uint256",
        "encoding": "dynamic_array",
        "label": "uint256[]",
        "numberOfBytes": "32"
      },
      "t_bool": {
        "encoding": "inplace",
        "label": "bool",
        "numberOfBytes": "1"
      },
      "t_mapping(t_address,t_array(t_uint256)dyn_storage)": {
        "encoding": "mapping",
        "key": "t_address",
        "label": "mapping(address => uint256[])",
        "numberOfBytes": "32",
        "value": "t_array(t_uint256)dyn_storage"
      },
      "t_mapping(t_address,t_bool)": {
        "encoding": "mapping",
        "key": "t_address",
        "label": "mapping(address => bool)",
        "numberOfBytes": "32",
        "value": "t_bool"
      },
      "t_mapping(t_address,t_mapping(t_address,t_bool))": {
        "encoding": "mapping",
        "key": "t_address",
        "label": "mapping(address => mapping(address => bool))",
        "numberOfBytes": "32",
        "value": "t_mapping(t_address,t_bool)"
      },
      "t_mapping(t_address,t_uint256)": {
        "encoding": "mapping",
        "key": "t_address",
        "label": "mapping(address => uint256)",
        "numberOfBytes": "32",
        "value": "t_uint256"
      },
      "t_mapping(t_uint256,t_address)": {
        "encoding": "mapping",
        "key": "t_uint256",
        "label": "mapping(uint256 => address)",
        "numberOfBytes": "32",
        "value": "t_address"
      },
      "t_mapping(t_uint256,t_uint8)": {
        "encoding": "mapping",
        "key": "t_uint256",
        "label": "mapping(uint256 => uint8)",
        "numberOfBytes": "32",
        "value": "t_uint8"
      },
      "t_string_storage": {
        "encoding": "bytes",
        "label": "string",
        "numberOfBytes": "32"
      },
      "t_struct(Counter)1606_storage": {
        "encoding": "inplace",
        "label": "struct Counters.Counter",
        "members": [
          {
            "astId": 1605,
            "contract": "contracts/TestGasslessNFT.sol:TestGasslessNFT",
            "label": "_value",
            "offset": 0,
            "slot": "0",
            "type": "t_uint256"
          }
        ],
        "numberOfBytes": "32"
      },
      "t_uint256": {
        "encoding": "inplace",
        "label": "uint256",
        "numberOfBytes": "32"
      },
      "t_uint8": {
        "encoding": "inplace",
        "label": "uint8",
        "numberOfBytes": "1"
      }
    }
  }
}