{
  "address": "0x9bFAA0A71390061DF1F69D2640808a015653D84b",
  "abi": [
    {
      "inputs": [
        {
          "internalType": "uint8",
          "name": "maxMint",
          "type": "uint8"
        }
      ],
      "stateMutability": "nonpayable",
      "type": "constructor"
    },
    {
      "anonymous": false,
      "inputs": [
        {
          "indexed": true,
          "internalType": "address",
          "name": "owner",
          "type": "address"
        },
        {
          "indexed": true,
          "internalType": "address",
          "name": "approved",
          "type": "address"
        },
        {
          "indexed": true,
          "internalType": "uint256",
          "name": "tokenId",
          "type": "uint256"
        }
      ],
      "name": "Approval",
      "type": "event"
    },
    {
      "anonymous": false,
      "inputs": [
        {
          "indexed": true,
          "internalType": "address",
          "name": "owner",
          "type": "address"
        },
        {
          "indexed": true,
          "internalType": "address",
          "name": "operator",
          "type": "address"
        },
        {
          "indexed": false,
          "internalType": "bool",
          "name": "approved",
          "type": "bool"
        }
      ],
      "name": "ApprovalForAll",
      "type": "event"
    },
    {
      "anonymous": false,
      "inputs": [
        {
          "indexed": true,
          "internalType": "address",
          "name": "previousOwner",
          "type": "address"
        },
        {
          "indexed": true,
          "internalType": "address",
          "name": "newOwner",
          "type": "address"
        }
      ],
      "name": "OwnershipTransferred",
      "type": "event"
    },
    {
      "anonymous": false,
      "inputs": [
        {
          "indexed": true,
          "internalType": "address",
          "name": "from",
          "type": "address"
        },
        {
          "indexed": true,
          "internalType": "address",
          "name": "to",
          "type": "address"
        },
        {
          "indexed": true,
          "internalType": "uint256",
          "name": "tokenId",
          "type": "uint256"
        }
      ],
      "name": "Transfer",
      "type": "event"
    },
    {
      "inputs": [],
      "name": "MAX_MINT",
      "outputs": [
        {
          "internalType": "uint8",
          "name": "",
          "type": "uint8"
        }
      ],
      "stateMutability": "view",
      "type": "function"
    },
    {
      "inputs": [
        {
          "internalType": "address",
          "name": "to",
          "type": "address"
        },
        {
          "internalType": "uint256",
          "name": "tokenId",
          "type": "uint256"
        }
      ],
      "name": "approve",
      "outputs": [],
      "stateMutability": "nonpayable",
      "type": "function"
    },
    {
      "inputs": [
        {
          "internalType": "address",
          "name": "owner",
          "type": "address"
        }
      ],
      "name": "balanceOf",
      "outputs": [
        {
          "internalType": "uint256",
          "name": "",
          "type": "uint256"
        }
      ],
      "stateMutability": "view",
      "type": "function"
    },
    {
      "inputs": [
        {
          "internalType": "uint256",
          "name": "tokenId",
          "type": "uint256"
        }
      ],
      "name": "burn",
      "outputs": [],
      "stateMutability": "nonpayable",
      "type": "function"
    },
    {
      "inputs": [
        {
          "internalType": "uint256",
          "name": "tokenId",
          "type": "uint256"
        }
      ],
      "name": "getApproved",
      "outputs": [
        {
          "internalType": "address",
          "name": "",
          "type": "address"
        }
      ],
      "stateMutability": "view",
      "type": "function"
    },
    {
      "inputs": [
        {
          "internalType": "address",
          "name": "owner",
          "type": "address"
        },
        {
          "internalType": "address",
          "name": "operator",
          "type": "address"
        }
      ],
      "name": "isApprovedForAll",
      "outputs": [
        {
          "internalType": "bool",
          "name": "",
          "type": "bool"
        }
      ],
      "stateMutability": "view",
      "type": "function"
    },
    {
      "inputs": [
        {
          "internalType": "string",
          "name": "tokenURI",
          "type": "string"
        }
      ],
      "name": "mint",
      "outputs": [],
      "stateMutability": "nonpayable",
      "type": "function"
    },
    {
      "inputs": [],
      "name": "name",
      "outputs": [
        {
          "internalType": "string",
          "name": "",
          "type": "string"
        }
      ],
      "stateMutability": "view",
      "type": "function"
    },
    {
      "inputs": [],
      "name": "owner",
      "outputs": [
        {
          "internalType": "address",
          "name": "",
          "type": "address"
        }
      ],
      "stateMutability": "view",
      "type": "function"
    },
    {
      "inputs": [
        {
          "internalType": "uint256",
          "name": "tokenId",
          "type": "uint256"
        }
      ],
      "name": "ownerOf",
      "outputs": [
        {
          "internalType": "address",
          "name": "",
          "type": "address"
        }
      ],
      "stateMutability": "view",
      "type": "function"
    },
    {
      "inputs": [],
      "name": "renounceOwnership",
      "outputs": [],
      "stateMutability": "nonpayable",
      "type": "function"
    },
    {
      "inputs": [
        {
          "internalType": "address",
          "name": "from",
          "type": "address"
        },
        {
          "internalType": "address",
          "name": "to",
          "type": "address"
        },
        {
          "internalType": "uint256",
          "name": "tokenId",
          "type": "uint256"
        }
      ],
      "name": "safeTransferFrom",
      "outputs": [],
      "stateMutability": "nonpayable",
      "type": "function"
    },
    {
      "inputs": [
        {
          "internalType": "address",
          "name": "from",
          "type": "address"
        },
        {
          "internalType": "address",
          "name": "to",
          "type": "address"
        },
        {
          "internalType": "uint256",
          "name": "tokenId",
          "type": "uint256"
        },
        {
          "internalType": "bytes",
          "name": "data",
          "type": "bytes"
        }
      ],
      "name": "safeTransferFrom",
      "outputs": [],
      "stateMutability": "nonpayable",
      "type": "function"
    },
    {
      "inputs": [
        {
          "internalType": "address",
          "name": "operator",
          "type": "address"
        },
        {
          "internalType": "bool",
          "name": "approved",
          "type": "bool"
        }
      ],
      "name": "setApprovalForAll",
      "outputs": [],
      "stateMutability": "nonpayable",
      "type": "function"
    },
    {
      "inputs": [
        {
          "internalType": "bytes4",
          "name": "interfaceId",
          "type": "bytes4"
        }
      ],
      "name": "supportsInterface",
      "outputs": [
        {
          "internalType": "bool",
          "name": "",
          "type": "bool"
        }
      ],
      "stateMutability": "view",
      "type": "function"
    },
    {
      "inputs": [],
      "name": "symbol",
      "outputs": [
        {
          "internalType": "string",
          "name": "",
          "type": "string"
        }
      ],
      "stateMutability": "view",
      "type": "function"
    },
    {
      "inputs": [
        {
          "internalType": "uint256",
          "name": "tokenId",
          "type": "uint256"
        }
      ],
      "name": "tokenURI",
      "outputs": [
        {
          "internalType": "string",
          "name": "",
          "type": "string"
        }
      ],
      "stateMutability": "view",
      "type": "function"
    },
    {
      "inputs": [
        {
          "internalType": "address",
          "name": "from",
          "type": "address"
        },
        {
          "internalType": "address",
          "name": "to",
          "type": "address"
        },
        {
          "internalType": "uint256",
          "name": "tokenId",
          "type": "uint256"
        }
      ],
      "name": "transferFrom",
      "outputs": [],
      "stateMutability": "nonpayable",
      "type": "function"
    },
    {
      "inputs": [
        {
          "internalType": "address",
          "name": "newOwner",
          "type": "address"
        }
      ],
      "name": "transferOwnership",
      "outputs": [],
      "stateMutability": "nonpayable",
      "type": "function"
    },
    {
      "inputs": [],
      "name": "userList",
      "outputs": [
        {
          "components": [
            {
              "internalType": "uint256[]",
              "name": "tokenIds",
              "type": "uint256[]"
            },
            {
              "internalType": "string[]",
              "name": "images",
              "type": "string[]"
            }
          ],
          "internalType": "struct TestGasslessNFT.UserData",
          "name": "",
          "type": "tuple"
        }
      ],
      "stateMutability": "view",
      "type": "function"
    }
  ],
  "transactionHash": "0x340106c20e12a974fc0035df2e21ef46af0d0eda4b77bb84eded5e67f41464e8",
  "args": [
    3
  ],
  "numDeployments": 1,
  "solcInputHash": "e4e5fbfae1e88c675098269a6f6075eb",
  "bytecode": "0x60a06040523480156200001157600080fd5b50604051620041c5380380620041c583398181016040528101906200003791906200020f565b6040518060400160405280600f81526020017f54657374476173736c6573734e465400000000000000000000000000000000008152506040518060400160405280600381526020017f54474e00000000000000000000000000000000000000000000000000000000008152508160009081620000b49190620004bb565b508060019081620000c69190620004bb565b505050620000e9620000dd620000fe60201b60201c565b6200010660201b60201c565b8060ff1660808160ff168152505050620005a2565b600033905090565b6000600760009054906101000a900473ffffffffffffffffffffffffffffffffffffffff16905081600760006101000a81548173ffffffffffffffffffffffffffffffffffffffff021916908373ffffffffffffffffffffffffffffffffffffffff1602179055508173ffffffffffffffffffffffffffffffffffffffff168173ffffffffffffffffffffffffffffffffffffffff167f8be0079c531659141344cd1fd0a4f28419497f9722a3daafe3b4186f6b6457e060405160405180910390a35050565b600080fd5b600060ff82169050919050565b620001e981620001d1565b8114620001f557600080fd5b50565b6000815190506200020981620001de565b92915050565b600060208284031215620002285762000227620001cc565b5b60006200023884828501620001f8565b91505092915050565b600081519050919050565b7f4e487b7100000000000000000000000000000000000000000000000000000000600052604160045260246000fd5b7f4e487b7100000000000000000000000000000000000000000000000000000000600052602260045260246000fd5b60006002820490506001821680620002c357607f821691505b602082108103620002d957620002d86200027b565b5b50919050565b60008190508160005260206000209050919050565b60006020601f8301049050919050565b600082821b905092915050565b600060088302620003437fffffffffffffffffffffffffffffffffffffffffffffffffffffffffffffffff8262000304565b6200034f868362000304565b95508019841693508086168417925050509392505050565b6000819050919050565b6000819050919050565b60006200039c62000396620003908462000367565b62000371565b62000367565b9050919050565b6000819050919050565b620003b8836200037b565b620003d0620003c782620003a3565b84845462000311565b825550505050565b600090565b620003e7620003d8565b620003f4818484620003ad565b505050565b5b818110156200041c5762000410600082620003dd565b600181019050620003fa565b5050565b601f8211156200046b576200043581620002df565b6200044084620002f4565b8101602085101562000450578190505b620004686200045f85620002f4565b830182620003f9565b50505b505050565b600082821c905092915050565b6000620004906000198460080262000470565b1980831691505092915050565b6000620004ab83836200047d565b9150826002028217905092915050565b620004c68262000241565b67ffffffffffffffff811115620004e257620004e16200024c565b5b620004ee8254620002aa565b620004fb82828562000420565b600060209050601f8311600181146200053357600084156200051e578287015190505b6200052a85826200049d565b8655506200059a565b601f1984166200054386620002df565b60005b828110156200056d5784890151825560018201915060208501945060208101905062000546565b868310156200058d578489015162000589601f8916826200047d565b8355505b6001600288020188555050505b505050505050565b608051613c00620005c560003960008181610ec601526111110152613c006000f3fe608060405234801561001057600080fd5b506004361061012c5760003560e01c8063715018a6116100ad578063c87b56dd11610071578063c87b56dd1461031b578063d85d3d271461034b578063e985e9c514610367578063f0292a0314610397578063f2fde38b146103b55761012c565b8063715018a61461029d5780638da5cb5b146102a757806395d89b41146102c5578063a22cb465146102e3578063b88d4fde146102ff5761012c565b806323b872dd116100f457806323b872dd146101e957806342842e0e1461020557806342966c68146102215780636352211e1461023d57806370a082311461026d5761012c565b806301ffc9a71461013157806306fdde0314610161578063081812fc1461017f578063095ea7b3146101af5780630e0f785f146101cb575b600080fd5b61014b600480360381019061014691906124f5565b6103d1565b604051610158919061253d565b60405180910390f35b6101696104b3565b60405161017691906125e8565b60405180910390f35b61019960048036038101906101949190612640565b610545565b6040516101a691906126ae565b60405180910390f35b6101c960048036038101906101c491906126f5565b61058b565b005b6101d36106a2565b6040516101e09190612943565b60405180910390f35b61020360048036038101906101fe9190612965565b6108ea565b005b61021f600480360381019061021a9190612965565b61094a565b005b61023b60048036038101906102369190612640565b61096a565b005b61025760048036038101906102529190612640565b610b2d565b60405161026491906126ae565b60405180910390f35b610287600480360381019061028291906129b8565b610bb3565b60405161029491906129f4565b60405180910390f35b6102a5610c6a565b005b6102af610c7e565b6040516102bc91906126ae565b60405180910390f35b6102cd610ca8565b6040516102da91906125e8565b60405180910390f35b6102fd60048036038101906102f89190612a3b565b610d3a565b005b61031960048036038101906103149190612bb0565b610d50565b005b61033560048036038101906103309190612640565b610db2565b60405161034291906125e8565b60405180910390f35b61036560048036038101906103609190612cd4565b610ec4565b005b610381600480360381019061037c9190612d1d565b61107b565b60405161038e919061253d565b60405180910390f35b61039f61110f565b6040516103ac9190612d79565b60405180910390f35b6103cf60048036038101906103ca91906129b8565b611133565b005b60007f80ac58cd000000000000000000000000000000000000000000000000000000007bffffffffffffffffffffffffffffffffffffffffffffffffffffffff1916827bffffffffffffffffffffffffffffffffffffffffffffffffffffffff1916148061049c57507f5b5e139f000000000000000000000000000000000000000000000000000000007bffffffffffffffffffffffffffffffffffffffffffffffffffffffff1916827bffffffffffffffffffffffffffffffffffffffffffffffffffffffff1916145b806104ac57506104ab826111b6565b5b9050919050565b6060600080546104c290612dc3565b80601f01602080910402602001604051908101604052809291908181526020018280546104ee90612dc3565b801561053b5780601f106105105761010080835404028352916020019161053b565b820191906000526020600020905b81548152906001019060200180831161051e57829003601f168201915b5050505050905090565b600061055082611220565b6004600083815260200190815260200160002060009054906101000a900473ffffffffffffffffffffffffffffffffffffffff169050919050565b600061059682610b2d565b90508073ffffffffffffffffffffffffffffffffffffffff168373ffffffffffffffffffffffffffffffffffffffff1603610606576040517f08c379a00000000000000000000000000000000000000000000000000000000081526004016105fd90612e66565b60405180910390fd5b8073ffffffffffffffffffffffffffffffffffffffff1661062561126b565b73ffffffffffffffffffffffffffffffffffffffff16148061065457506106538161064e61126b565b61107b565b5b610693576040517f08c379a000000000000000000000000000000000000000000000000000000000815260040161068a90612ef8565b60405180910390fd5b61069d8383611273565b505050565b6106aa612412565b6000600960006106b861126b565b73ffffffffffffffffffffffffffffffffffffffff1673ffffffffffffffffffffffffffffffffffffffff16815260200190815260200160002080548060200260200160405190810160405280929190818152602001828054801561073c57602002820191906000526020600020905b815481526020019060010190808311610728575b5050505050905060008151905060008160ff1667ffffffffffffffff81111561076857610767612a85565b5b6040519080825280602002602001820160405280156107965781602001602082028036833780820191505090505b50905060008260ff1667ffffffffffffffff8111156107b8576107b7612a85565b5b6040519080825280602002602001820160405280156107eb57816020015b60608152602001906001900390816107d65790505b5090506000604051806040016040528084815260200183815250905060008460ff160361081f5780955050505050506108e7565b60005b60018561082f9190612f47565b60ff168160ff16116108dd57858160ff168151811061085157610850612f7c565b5b602002602001015182600001518260ff168151811061087357610872612f7c565b5b6020026020010181815250506108a5868260ff168151811061089857610897612f7c565b5b6020026020010151610db2565b82602001518260ff16815181106108bf576108be612f7c565b5b602002602001018190525080806108d590612fab565b915050610822565b5080955050505050505b90565b6108fb6108f561126b565b8261132c565b61093a576040517f08c379a000000000000000000000000000000000000000000000000000000000815260040161093190613046565b60405180910390fd5b6109458383836113c1565b505050565b61096583838360405180602001604052806000815250610d50565b505050565b600061097582610b2d565b90506000600960008373ffffffffffffffffffffffffffffffffffffffff1673ffffffffffffffffffffffffffffffffffffffff16815260200190815260200160002090506000600a600085815260200190815260200160002060009054906101000a900460ff16905081805490508160ff1610610a28576040517f08c379a0000000000000000000000000000000000000000000000000000000008152600401610a1f906130b2565b60405180910390fd5b60008190505b60018380549050610a3f91906130d2565b8160ff161015610aad5782600182610a579190613106565b60ff1681548110610a6b57610a6a612f7c565b5b9060005260206000200154838260ff1681548110610a8c57610a8b612f7c565b5b90600052602060002001819055508080610aa590612fab565b915050610a2e565b5081805480610abf57610abe61313b565b5b60019003818190600052602060002001600090559055610adf328561132c565b610b1e576040517f08c379a0000000000000000000000000000000000000000000000000000000008152600401610b1590613046565b60405180910390fd5b610b27846116ba565b50505050565b600080610b398361170d565b9050600073ffffffffffffffffffffffffffffffffffffffff168173ffffffffffffffffffffffffffffffffffffffff1603610baa576040517f08c379a0000000000000000000000000000000000000000000000000000000008152600401610ba1906131b6565b60405180910390fd5b80915050919050565b60008073ffffffffffffffffffffffffffffffffffffffff168273ffffffffffffffffffffffffffffffffffffffff1603610c23576040517f08c379a0000000000000000000000000000000000000000000000000000000008152600401610c1a90613248565b60405180910390fd5b600360008373ffffffffffffffffffffffffffffffffffffffff1673ffffffffffffffffffffffffffffffffffffffff168152602001908152602001600020549050919050565b610c7261174a565b610c7c60006117c8565b565b6000600760009054906101000a900473ffffffffffffffffffffffffffffffffffffffff16905090565b606060018054610cb790612dc3565b80601f0160208091040260200160405190810160405280929190818152602001828054610ce390612dc3565b8015610d305780601f10610d0557610100808354040283529160200191610d30565b820191906000526020600020905b815481529060010190602001808311610d1357829003601f168201915b5050505050905090565b610d4c610d4561126b565b838361188e565b5050565b610d61610d5b61126b565b8361132c565b610da0576040517f08c379a0000000000000000000000000000000000000000000000000000000008152600401610d9790613046565b60405180910390fd5b610dac848484846119fa565b50505050565b6060610dbd82611220565b6000600660008481526020019081526020016000208054610ddd90612dc3565b80601f0160208091040260200160405190810160405280929190818152602001828054610e0990612dc3565b8015610e565780601f10610e2b57610100808354040283529160200191610e56565b820191906000526020600020905b815481529060010190602001808311610e3957829003601f168201915b505050505090506000610e67611a56565b90506000815103610e7c578192505050610ebf565b600082511115610eb1578082604051602001610e999291906132a4565b60405160208183030381529060405292505050610ebf565b610eba84611a76565b925050505b919050565b7f000000000000000000000000000000000000000000000000000000000000000060ff16600960003273ffffffffffffffffffffffffffffffffffffffff1673ffffffffffffffffffffffffffffffffffffffff1681526020019081526020016000208054905010610f6b576040517f08c379a0000000000000000000000000000000000000000000000000000000008152600401610f629061333a565b60405180910390fd5b6000610f776008611ade565b9050610f836008611aec565b600960003273ffffffffffffffffffffffffffffffffffffffff1673ffffffffffffffffffffffffffffffffffffffff1681526020019081526020016000208190806001815401808255809150506001900390600052602060002001600090919091909150556001600960003273ffffffffffffffffffffffffffffffffffffffff1673ffffffffffffffffffffffffffffffffffffffff1681526020019081526020016000208054905061103891906130d2565b600a600083815260200190815260200160002060006101000a81548160ff021916908360ff16021790555061106d3282611b02565b6110778183611d1f565b5050565b6000600560008473ffffffffffffffffffffffffffffffffffffffff1673ffffffffffffffffffffffffffffffffffffffff16815260200190815260200160002060008373ffffffffffffffffffffffffffffffffffffffff1673ffffffffffffffffffffffffffffffffffffffff16815260200190815260200160002060009054906101000a900460ff16905092915050565b7f000000000000000000000000000000000000000000000000000000000000000081565b61113b61174a565b600073ffffffffffffffffffffffffffffffffffffffff168173ffffffffffffffffffffffffffffffffffffffff16036111aa576040517f08c379a00000000000000000000000000000000000000000000000000000000081526004016111a1906133cc565b60405180910390fd5b6111b3816117c8565b50565b60007f01ffc9a7000000000000000000000000000000000000000000000000000000007bffffffffffffffffffffffffffffffffffffffffffffffffffffffff1916827bffffffffffffffffffffffffffffffffffffffffffffffffffffffff1916149050919050565b61122981611d8c565b611268576040517f08c379a000000000000000000000000000000000000000000000000000000000815260040161125f906131b6565b60405180910390fd5b50565b600033905090565b816004600083815260200190815260200160002060006101000a81548173ffffffffffffffffffffffffffffffffffffffff021916908373ffffffffffffffffffffffffffffffffffffffff160217905550808273ffffffffffffffffffffffffffffffffffffffff166112e683610b2d565b73ffffffffffffffffffffffffffffffffffffffff167f8c5be1e5ebec7d5bd14f71427d1e84f3dd0314c0f7b2291e5b200ac8c7c3b92560405160405180910390a45050565b60008061133883610b2d565b90508073ffffffffffffffffffffffffffffffffffffffff168473ffffffffffffffffffffffffffffffffffffffff16148061137a5750611379818561107b565b5b806113b857508373ffffffffffffffffffffffffffffffffffffffff166113a084610545565b73ffffffffffffffffffffffffffffffffffffffff16145b91505092915050565b8273ffffffffffffffffffffffffffffffffffffffff166113e182610b2d565b73ffffffffffffffffffffffffffffffffffffffff1614611437576040517f08c379a000000000000000000000000000000000000000000000000000000000815260040161142e9061345e565b60405180910390fd5b600073ffffffffffffffffffffffffffffffffffffffff168273ffffffffffffffffffffffffffffffffffffffff16036114a6576040517f08c379a000000000000000000000000000000000000000000000000000000000815260040161149d906134f0565b60405180910390fd5b6114b38383836001611dcd565b8273ffffffffffffffffffffffffffffffffffffffff166114d382610b2d565b73ffffffffffffffffffffffffffffffffffffffff1614611529576040517f08c379a00000000000000000000000000000000000000000000000000000000081526004016115209061345e565b60405180910390fd5b6004600082815260200190815260200160002060006101000a81549073ffffffffffffffffffffffffffffffffffffffff02191690556001600360008573ffffffffffffffffffffffffffffffffffffffff1673ffffffffffffffffffffffffffffffffffffffff168152602001908152602001600020600082825403925050819055506001600360008473ffffffffffffffffffffffffffffffffffffffff1673ffffffffffffffffffffffffffffffffffffffff16815260200190815260200160002060008282540192505081905550816002600083815260200190815260200160002060006101000a81548173ffffffffffffffffffffffffffffffffffffffff021916908373ffffffffffffffffffffffffffffffffffffffff160217905550808273ffffffffffffffffffffffffffffffffffffffff168473ffffffffffffffffffffffffffffffffffffffff167fddf252ad1be2c89b69c2b068fc378daa952ba7f163c4a11628f55a4df523b3ef60405160405180910390a46116b58383836001611ef3565b505050565b6116c381611ef9565b60006006600083815260200190815260200160002080546116e390612dc3565b90501461170a57600660008281526020019081526020016000206000611709919061242c565b5b50565b60006002600083815260200190815260200160002060009054906101000a900473ffffffffffffffffffffffffffffffffffffffff169050919050565b61175261126b565b73ffffffffffffffffffffffffffffffffffffffff16611770610c7e565b73ffffffffffffffffffffffffffffffffffffffff16146117c6576040517f08c379a00000000000000000000000000000000000000000000000000000000081526004016117bd9061355c565b60405180910390fd5b565b6000600760009054906101000a900473ffffffffffffffffffffffffffffffffffffffff16905081600760006101000a81548173ffffffffffffffffffffffffffffffffffffffff021916908373ffffffffffffffffffffffffffffffffffffffff1602179055508173ffffffffffffffffffffffffffffffffffffffff168173ffffffffffffffffffffffffffffffffffffffff167f8be0079c531659141344cd1fd0a4f28419497f9722a3daafe3b4186f6b6457e060405160405180910390a35050565b8173ffffffffffffffffffffffffffffffffffffffff168373ffffffffffffffffffffffffffffffffffffffff16036118fc576040517f08c379a00000000000000000000000000000000000000000000000000000000081526004016118f3906135c8565b60405180910390fd5b80600560008573ffffffffffffffffffffffffffffffffffffffff1673ffffffffffffffffffffffffffffffffffffffff16815260200190815260200160002060008473ffffffffffffffffffffffffffffffffffffffff1673ffffffffffffffffffffffffffffffffffffffff16815260200190815260200160002060006101000a81548160ff0219169083151502179055508173ffffffffffffffffffffffffffffffffffffffff168373ffffffffffffffffffffffffffffffffffffffff167f17307eab39ab6107e8899845ad3d59bd9653f200f220920489ca2b5937696c31836040516119ed919061253d565b60405180910390a3505050565b611a058484846113c1565b611a1184848484612047565b611a50576040517f08c379a0000000000000000000000000000000000000000000000000000000008152600401611a479061365a565b60405180910390fd5b50505050565b6060604051806060016040528060228152602001613ba960229139905090565b6060611a8182611220565b6000611a8b611a56565b90506000815111611aab5760405180602001604052806000815250611ad6565b80611ab5846121ce565b604051602001611ac69291906132a4565b6040516020818303038152906040525b915050919050565b600081600001549050919050565b6001816000016000828254019250508190555050565b600073ffffffffffffffffffffffffffffffffffffffff168273ffffffffffffffffffffffffffffffffffffffff1603611b71576040517f08c379a0000000000000000000000000000000000000000000000000000000008152600401611b68906136c6565b60405180910390fd5b611b7a81611d8c565b15611bba576040517f08c379a0000000000000000000000000000000000000000000000000000000008152600401611bb190613732565b60405180910390fd5b611bc8600083836001611dcd565b611bd181611d8c565b15611c11576040517f08c379a0000000000000000000000000000000000000000000000000000000008152600401611c0890613732565b60405180910390fd5b6001600360008473ffffffffffffffffffffffffffffffffffffffff1673ffffffffffffffffffffffffffffffffffffffff16815260200190815260200160002060008282540192505081905550816002600083815260200190815260200160002060006101000a81548173ffffffffffffffffffffffffffffffffffffffff021916908373ffffffffffffffffffffffffffffffffffffffff160217905550808273ffffffffffffffffffffffffffffffffffffffff16600073ffffffffffffffffffffffffffffffffffffffff167fddf252ad1be2c89b69c2b068fc378daa952ba7f163c4a11628f55a4df523b3ef60405160405180910390a4611d1b600083836001611ef3565b5050565b611d2882611d8c565b611d67576040517f08c379a0000000000000000000000000000000000000000000000000000000008152600401611d5e906137c4565b60405180910390fd5b80600660008481526020019081526020016000209081611d879190613990565b505050565b60008073ffffffffffffffffffffffffffffffffffffffff16611dae8361170d565b73ffffffffffffffffffffffffffffffffffffffff1614159050919050565b6001811115611eed57600073ffffffffffffffffffffffffffffffffffffffff168473ffffffffffffffffffffffffffffffffffffffff1614611e615780600360008673ffffffffffffffffffffffffffffffffffffffff1673ffffffffffffffffffffffffffffffffffffffff1681526020019081526020016000206000828254611e5991906130d2565b925050819055505b600073ffffffffffffffffffffffffffffffffffffffff168373ffffffffffffffffffffffffffffffffffffffff1614611eec5780600360008573ffffffffffffffffffffffffffffffffffffffff1673ffffffffffffffffffffffffffffffffffffffff1681526020019081526020016000206000828254611ee49190613a62565b925050819055505b5b50505050565b50505050565b6000611f0482610b2d565b9050611f14816000846001611dcd565b611f1d82610b2d565b90506004600083815260200190815260200160002060006101000a81549073ffffffffffffffffffffffffffffffffffffffff02191690556001600360008373ffffffffffffffffffffffffffffffffffffffff1673ffffffffffffffffffffffffffffffffffffffff168152602001908152602001600020600082825403925050819055506002600083815260200190815260200160002060006101000a81549073ffffffffffffffffffffffffffffffffffffffff021916905581600073ffffffffffffffffffffffffffffffffffffffff168273ffffffffffffffffffffffffffffffffffffffff167fddf252ad1be2c89b69c2b068fc378daa952ba7f163c4a11628f55a4df523b3ef60405160405180910390a4612043816000846001611ef3565b5050565b60006120688473ffffffffffffffffffffffffffffffffffffffff1661229c565b156121c1578373ffffffffffffffffffffffffffffffffffffffff1663150b7a0261209161126b565b8786866040518563ffffffff1660e01b81526004016120b39493929190613aeb565b6020604051808303816000875af19250505080156120ef57506040513d601f19601f820116820180604052508101906120ec9190613b4c565b60015b612171573d806000811461211f576040519150601f19603f3d011682016040523d82523d6000602084013e612124565b606091505b506000815103612169576040517f08c379a00000000000000000000000000000000000000000000000000000000081526004016121609061365a565b60405180910390fd5b805181602001fd5b63150b7a0260e01b7bffffffffffffffffffffffffffffffffffffffffffffffffffffffff1916817bffffffffffffffffffffffffffffffffffffffffffffffffffffffff1916149150506121c6565b600190505b949350505050565b6060600060016121dd846122bf565b01905060008167ffffffffffffffff8111156121fc576121fb612a85565b5b6040519080825280601f01601f19166020018201604052801561222e5781602001600182028036833780820191505090505b509050600082602001820190505b600115612291578080600190039150507f3031323334353637383961626364656600000000000000000000000000000000600a86061a8153600a858161228557612284613b79565b5b0494506000850361223c575b819350505050919050565b6000808273ffffffffffffffffffffffffffffffffffffffff163b119050919050565b600080600090507a184f03e93ff9f4daa797ed6e38ed64bf6a1f010000000000000000831061231d577a184f03e93ff9f4daa797ed6e38ed64bf6a1f010000000000000000838161231357612312613b79565b5b0492506040810190505b6d04ee2d6d415b85acef8100000000831061235a576d04ee2d6d415b85acef810000000083816123505761234f613b79565b5b0492506020810190505b662386f26fc10000831061238957662386f26fc10000838161237f5761237e613b79565b5b0492506010810190505b6305f5e10083106123b2576305f5e10083816123a8576123a7613b79565b5b0492506008810190505b61271083106123d75761271083816123cd576123cc613b79565b5b0492506004810190505b606483106123fa57606483816123f0576123ef613b79565b5b0492506002810190505b600a8310612409576001810190505b80915050919050565b604051806040016040528060608152602001606081525090565b50805461243890612dc3565b6000825580601f1061244a5750612469565b601f016020900490600052602060002090810190612468919061246c565b5b50565b5b8082111561248557600081600090555060010161246d565b5090565b6000604051905090565b600080fd5b600080fd5b60007fffffffff0000000000000000000000000000000000000000000000000000000082169050919050565b6124d28161249d565b81146124dd57600080fd5b50565b6000813590506124ef816124c9565b92915050565b60006020828403121561250b5761250a612493565b5b6000612519848285016124e0565b91505092915050565b60008115159050919050565b61253781612522565b82525050565b6000602082019050612552600083018461252e565b92915050565b600081519050919050565b600082825260208201905092915050565b60005b83811015612592578082015181840152602081019050612577565b60008484015250505050565b6000601f19601f8301169050919050565b60006125ba82612558565b6125c48185612563565b93506125d4818560208601612574565b6125dd8161259e565b840191505092915050565b6000602082019050818103600083015261260281846125af565b905092915050565b6000819050919050565b61261d8161260a565b811461262857600080fd5b50565b60008135905061263a81612614565b92915050565b60006020828403121561265657612655612493565b5b60006126648482850161262b565b91505092915050565b600073ffffffffffffffffffffffffffffffffffffffff82169050919050565b60006126988261266d565b9050919050565b6126a88161268d565b82525050565b60006020820190506126c3600083018461269f565b92915050565b6126d28161268d565b81146126dd57600080fd5b50565b6000813590506126ef816126c9565b92915050565b6000806040838503121561270c5761270b612493565b5b600061271a858286016126e0565b925050602061272b8582860161262b565b9150509250929050565b600081519050919050565b600082825260208201905092915050565b6000819050602082019050919050565b61276a8161260a565b82525050565b600061277c8383612761565b60208301905092915050565b6000602082019050919050565b60006127a082612735565b6127aa8185612740565b93506127b583612751565b8060005b838110156127e65781516127cd8882612770565b97506127d883612788565b9250506001810190506127b9565b5085935050505092915050565b600081519050919050565b600082825260208201905092915050565b6000819050602082019050919050565b600082825260208201905092915050565b600061283b82612558565b612845818561281f565b9350612855818560208601612574565b61285e8161259e565b840191505092915050565b60006128758383612830565b905092915050565b6000602082019050919050565b6000612895826127f3565b61289f81856127fe565b9350836020820285016128b18561280f565b8060005b858110156128ed57848403895281516128ce8582612869565b94506128d98361287d565b925060208a019950506001810190506128b5565b50829750879550505050505092915050565b6000604083016000830151848203600086015261291c8282612795565b91505060208301518482036020860152612936828261288a565b9150508091505092915050565b6000602082019050818103600083015261295d81846128ff565b905092915050565b60008060006060848603121561297e5761297d612493565b5b600061298c868287016126e0565b935050602061299d868287016126e0565b92505060406129ae8682870161262b565b9150509250925092565b6000602082840312156129ce576129cd612493565b5b60006129dc848285016126e0565b91505092915050565b6129ee8161260a565b82525050565b6000602082019050612a0960008301846129e5565b92915050565b612a1881612522565b8114612a2357600080fd5b50565b600081359050612a3581612a0f565b92915050565b60008060408385031215612a5257612a51612493565b5b6000612a60858286016126e0565b9250506020612a7185828601612a26565b9150509250929050565b600080fd5b600080fd5b7f4e487b7100000000000000000000000000000000000000000000000000000000600052604160045260246000fd5b612abd8261259e565b810181811067ffffffffffffffff82111715612adc57612adb612a85565b5b80604052505050565b6000612aef612489565b9050612afb8282612ab4565b919050565b600067ffffffffffffffff821115612b1b57612b1a612a85565b5b612b248261259e565b9050602081019050919050565b82818337600083830152505050565b6000612b53612b4e84612b00565b612ae5565b905082815260208101848484011115612b6f57612b6e612a80565b5b612b7a848285612b31565b509392505050565b600082601f830112612b9757612b96612a7b565b5b8135612ba7848260208601612b40565b91505092915050565b60008060008060808587031215612bca57612bc9612493565b5b6000612bd8878288016126e0565b9450506020612be9878288016126e0565b9350506040612bfa8782880161262b565b925050606085013567ffffffffffffffff811115612c1b57612c1a612498565b5b612c2787828801612b82565b91505092959194509250565b600067ffffffffffffffff821115612c4e57612c4d612a85565b5b612c578261259e565b9050602081019050919050565b6000612c77612c7284612c33565b612ae5565b905082815260208101848484011115612c9357612c92612a80565b5b612c9e848285612b31565b509392505050565b600082601f830112612cbb57612cba612a7b565b5b8135612ccb848260208601612c64565b91505092915050565b600060208284031215612cea57612ce9612493565b5b600082013567ffffffffffffffff811115612d0857612d07612498565b5b612d1484828501612ca6565b91505092915050565b60008060408385031215612d3457612d33612493565b5b6000612d42858286016126e0565b9250506020612d53858286016126e0565b9150509250929050565b600060ff82169050919050565b612d7381612d5d565b82525050565b6000602082019050612d8e6000830184612d6a565b92915050565b7f4e487b7100000000000000000000000000000000000000000000000000000000600052602260045260246000fd5b60006002820490506001821680612ddb57607f821691505b602082108103612dee57612ded612d94565b5b50919050565b7f4552433732313a20617070726f76616c20746f2063757272656e74206f776e6560008201527f7200000000000000000000000000000000000000000000000000000000000000602082015250565b6000612e50602183612563565b9150612e5b82612df4565b604082019050919050565b60006020820190508181036000830152612e7f81612e43565b9050919050565b7f4552433732313a20617070726f76652063616c6c6572206973206e6f7420746f60008201527f6b656e206f776e6572206f7220617070726f76656420666f7220616c6c000000602082015250565b6000612ee2603d83612563565b9150612eed82612e86565b604082019050919050565b60006020820190508181036000830152612f1181612ed5565b9050919050565b7f4e487b7100000000000000000000000000000000000000000000000000000000600052601160045260246000fd5b6000612f5282612d5d565b9150612f5d83612d5d565b9250828203905060ff811115612f7657612f75612f18565b5b92915050565b7f4e487b7100000000000000000000000000000000000000000000000000000000600052603260045260246000fd5b6000612fb682612d5d565b915060ff8203612fc957612fc8612f18565b5b600182019050919050565b7f4552433732313a2063616c6c6572206973206e6f7420746f6b656e206f776e6560008201527f72206f7220617070726f76656400000000000000000000000000000000000000602082015250565b6000613030602d83612563565b915061303b82612fd4565b604082019050919050565b6000602082019050818103600083015261305f81613023565b9050919050565b7f54657374476173736c6573734e46543a20496e64657820657863656564000000600082015250565b600061309c601d83612563565b91506130a782613066565b602082019050919050565b600060208201905081810360008301526130cb8161308f565b9050919050565b60006130dd8261260a565b91506130e88361260a565b9250828203905081811115613100576130ff612f18565b5b92915050565b600061311182612d5d565b915061311c83612d5d565b9250828201905060ff81111561313557613134612f18565b5b92915050565b7f4e487b7100000000000000000000000000000000000000000000000000000000600052603160045260246000fd5b7f4552433732313a20696e76616c696420746f6b656e2049440000000000000000600082015250565b60006131a0601883612563565b91506131ab8261316a565b602082019050919050565b600060208201905081810360008301526131cf81613193565b9050919050565b7f4552433732313a2061646472657373207a65726f206973206e6f74206120766160008201527f6c6964206f776e65720000000000000000000000000000000000000000000000602082015250565b6000613232602983612563565b915061323d826131d6565b604082019050919050565b6000602082019050818103600083015261326181613225565b9050919050565b600081905092915050565b600061327e82612558565b6132888185613268565b9350613298818560208601612574565b80840191505092915050565b60006132b08285613273565b91506132bc8284613273565b91508190509392505050565b7f54657374476173736c6573734e46543a204d617820616d6f756e74206578636560008201527f6564000000000000000000000000000000000000000000000000000000000000602082015250565b6000613324602283612563565b915061332f826132c8565b604082019050919050565b6000602082019050818103600083015261335381613317565b9050919050565b7f4f776e61626c653a206e6577206f776e657220697320746865207a65726f206160008201527f6464726573730000000000000000000000000000000000000000000000000000602082015250565b60006133b6602683612563565b91506133c18261335a565b604082019050919050565b600060208201905081810360008301526133e5816133a9565b9050919050565b7f4552433732313a207472616e736665722066726f6d20696e636f72726563742060008201527f6f776e6572000000000000000000000000000000000000000000000000000000602082015250565b6000613448602583612563565b9150613453826133ec565b604082019050919050565b600060208201905081810360008301526134778161343b565b9050919050565b7f4552433732313a207472616e7366657220746f20746865207a65726f2061646460008201527f7265737300000000000000000000000000000000000000000000000000000000602082015250565b60006134da602483612563565b91506134e58261347e565b604082019050919050565b60006020820190508181036000830152613509816134cd565b9050919050565b7f4f776e61626c653a2063616c6c6572206973206e6f7420746865206f776e6572600082015250565b6000613546602083612563565b915061355182613510565b602082019050919050565b6000602082019050818103600083015261357581613539565b9050919050565b7f4552433732313a20617070726f766520746f2063616c6c657200000000000000600082015250565b60006135b2601983612563565b91506135bd8261357c565b602082019050919050565b600060208201905081810360008301526135e1816135a5565b9050919050565b7f4552433732313a207472616e7366657220746f206e6f6e20455243373231526560008201527f63656976657220696d706c656d656e7465720000000000000000000000000000602082015250565b6000613644603283612563565b915061364f826135e8565b604082019050919050565b6000602082019050818103600083015261367381613637565b9050919050565b7f4552433732313a206d696e7420746f20746865207a65726f2061646472657373600082015250565b60006136b0602083612563565b91506136bb8261367a565b602082019050919050565b600060208201905081810360008301526136df816136a3565b9050919050565b7f4552433732313a20746f6b656e20616c7265616479206d696e74656400000000600082015250565b600061371c601c83612563565b9150613727826136e6565b602082019050919050565b6000602082019050818103600083015261374b8161370f565b9050919050565b7f45524337323155524953746f726167653a2055524920736574206f66206e6f6e60008201527f6578697374656e7420746f6b656e000000000000000000000000000000000000602082015250565b60006137ae602e83612563565b91506137b982613752565b604082019050919050565b600060208201905081810360008301526137dd816137a1565b9050919050565b60008190508160005260206000209050919050565b60006020601f8301049050919050565b600082821b905092915050565b6000600883026138467fffffffffffffffffffffffffffffffffffffffffffffffffffffffffffffffff82613809565b6138508683613809565b95508019841693508086168417925050509392505050565b6000819050919050565b600061388d6138886138838461260a565b613868565b61260a565b9050919050565b6000819050919050565b6138a783613872565b6138bb6138b382613894565b848454613816565b825550505050565b600090565b6138d06138c3565b6138db81848461389e565b505050565b5b818110156138ff576138f46000826138c8565b6001810190506138e1565b5050565b601f82111561394457613915816137e4565b61391e846137f9565b8101602085101561392d578190505b613941613939856137f9565b8301826138e0565b50505b505050565b600082821c905092915050565b600061396760001984600802613949565b1980831691505092915050565b60006139808383613956565b9150826002028217905092915050565b61399982612558565b67ffffffffffffffff8111156139b2576139b1612a85565b5b6139bc8254612dc3565b6139c7828285613903565b600060209050601f8311600181146139fa57600084156139e8578287015190505b6139f28582613974565b865550613a5a565b601f198416613a08866137e4565b60005b82811015613a3057848901518255600182019150602085019450602081019050613a0b565b86831015613a4d5784890151613a49601f891682613956565b8355505b6001600288020188555050505b505050505050565b6000613a6d8261260a565b9150613a788361260a565b9250828201905080821115613a9057613a8f612f18565b5b92915050565b600081519050919050565b600082825260208201905092915050565b6000613abd82613a96565b613ac78185613aa1565b9350613ad7818560208601612574565b613ae08161259e565b840191505092915050565b6000608082019050613b00600083018761269f565b613b0d602083018661269f565b613b1a60408301856129e5565b8181036060830152613b2c8184613ab2565b905095945050505050565b600081519050613b46816124c9565b92915050565b600060208284031215613b6257613b61612493565b5b6000613b7084828501613b37565b91505092915050565b7f4e487b7100000000000000000000000000000000000000000000000000000000600052601260045260246000fdfe68747470733a2f2f676174657761792e70696e6174612e636c6f75642f697066732fa2646970667358221220d3a7cf03b6e833f441550544418babfb245cc0f5ecb6167c1e488f5e3ff83d0664736f6c63430008100033",
  "devdoc": {
    "kind": "dev",
    "methods": {
      "approve(address,uint256)": {
        "details": "See {IERC721-approve}."
      },
      "balanceOf(address)": {
        "details": "See {IERC721-balanceOf}."
      },
      "getApproved(uint256)": {
        "details": "See {IERC721-getApproved}."
      },
      "isApprovedForAll(address,address)": {
        "details": "See {IERC721-isApprovedForAll}."
      },
      "name()": {
        "details": "See {IERC721Metadata-name}."
      },
      "owner()": {
        "details": "Returns the address of the current owner."
      },
      "ownerOf(uint256)": {
        "details": "See {IERC721-ownerOf}."
      },
      "renounceOwnership()": {
        "details": "Leaves the contract without owner. It will not be possible to call `onlyOwner` functions anymore. Can only be called by the current owner. NOTE: Renouncing ownership will leave the contract without an owner, thereby removing any functionality that is only available to the owner."
      },
      "safeTransferFrom(address,address,uint256)": {
        "details": "See {IERC721-safeTransferFrom}."
      },
      "safeTransferFrom(address,address,uint256,bytes)": {
        "details": "See {IERC721-safeTransferFrom}."
      },
      "setApprovalForAll(address,bool)": {
        "details": "See {IERC721-setApprovalForAll}."
      },
      "supportsInterface(bytes4)": {
        "details": "See {IERC165-supportsInterface}."
      },
      "symbol()": {
        "details": "See {IERC721Metadata-symbol}."
      },
      "tokenURI(uint256)": {
        "details": "See {IERC721Metadata-tokenURI}."
      },
      "transferFrom(address,address,uint256)": {
        "details": "See {IERC721-transferFrom}."
      },
      "transferOwnership(address)": {
        "details": "Transfers ownership of the contract to a new account (`newOwner`). Can only be called by the current owner."
      }
    },
    "version": 1
  },
  "userdoc": {
    "kind": "user",
    "methods": {},
    "version": 1
  },
  "storageLayout": {
    "storage": [
      {
        "astId": 1145,
        "contract": "contracts/TestGasslessNFT.sol:TestGasslessNFT",
        "label": "_name",
        "offset": 0,
        "slot": "0",
        "type": "t_string_storage"
      },
      {
        "astId": 1147,
        "contract": "contracts/TestGasslessNFT.sol:TestGasslessNFT",
        "label": "_symbol",
        "offset": 0,
        "slot": "1",
        "type": "t_string_storage"
      },
      {
        "astId": 1151,
        "contract": "contracts/TestGasslessNFT.sol:TestGasslessNFT",
        "label": "_owners",
        "offset": 0,
        "slot": "2",
        "type": "t_mapping(t_uint256,t_address)"
      },
      {
        "astId": 1155,
        "contract": "contracts/TestGasslessNFT.sol:TestGasslessNFT",
        "label": "_balances",
        "offset": 0,
        "slot": "3",
        "type": "t_mapping(t_address,t_uint256)"
      },
      {
        "astId": 1159,
        "contract": "contracts/TestGasslessNFT.sol:TestGasslessNFT",
        "label": "_tokenApprovals",
        "offset": 0,
        "slot": "4",
        "type": "t_mapping(t_uint256,t_address)"
      },
      {
        "astId": 1165,
        "contract": "contracts/TestGasslessNFT.sol:TestGasslessNFT",
        "label": "_operatorApprovals",
        "offset": 0,
        "slot": "5",
        "type": "t_mapping(t_address,t_mapping(t_address,t_bool))"
      },
      {
        "astId": 2211,
        "contract": "contracts/TestGasslessNFT.sol:TestGasslessNFT",
        "label": "_tokenURIs",
        "offset": 0,
        "slot": "6",
        "type": "t_mapping(t_uint256,t_string_storage)"
      },
      {
        "astId": 7,
        "contract": "contracts/TestGasslessNFT.sol:TestGasslessNFT",
        "label": "_owner",
        "offset": 0,
        "slot": "7",
        "type": "t_address"
      },
      {
        "astId": 4949,
        "contract": "contracts/TestGasslessNFT.sol:TestGasslessNFT",
        "label": "_tokenIdCounter",
        "offset": 0,
        "slot": "8",
        "type": "t_struct(Counter)2708_storage"
      },
      {
        "astId": 4954,
        "contract": "contracts/TestGasslessNFT.sol:TestGasslessNFT",
        "label": "_userIds",
        "offset": 0,
        "slot": "9",
        "type": "t_mapping(t_address,t_array(t_uint256)dyn_storage)"
      },
      {
        "astId": 4958,
        "contract": "contracts/TestGasslessNFT.sol:TestGasslessNFT",
        "label": "_userIdIndex",
        "offset": 0,
        "slot": "10",
        "type": "t_mapping(t_uint256,t_uint8)"
      }
    ],
    "types": {
      "t_address": {
        "encoding": "inplace",
        "label": "address",
        "numberOfBytes": "20"
      },
      "t_array(t_uint256)dyn_storage": {
        "base": "t_uint256",
        "encoding": "dynamic_array",
        "label": "uint256[]",
        "numberOfBytes": "32"
      },
      "t_bool": {
        "encoding": "inplace",
        "label": "bool",
        "numberOfBytes": "1"
      },
      "t_mapping(t_address,t_array(t_uint256)dyn_storage)": {
        "encoding": "mapping",
        "key": "t_address",
        "label": "mapping(address => uint256[])",
        "numberOfBytes": "32",
        "value": "t_array(t_uint256)dyn_storage"
      },
      "t_mapping(t_address,t_bool)": {
        "encoding": "mapping",
        "key": "t_address",
        "label": "mapping(address => bool)",
        "numberOfBytes": "32",
        "value": "t_bool"
      },
      "t_mapping(t_address,t_mapping(t_address,t_bool))": {
        "encoding": "mapping",
        "key": "t_address",
        "label": "mapping(address => mapping(address => bool))",
        "numberOfBytes": "32",
        "value": "t_mapping(t_address,t_bool)"
      },
      "t_mapping(t_address,t_uint256)": {
        "encoding": "mapping",
        "key": "t_address",
        "label": "mapping(address => uint256)",
        "numberOfBytes": "32",
        "value": "t_uint256"
      },
      "t_mapping(t_uint256,t_address)": {
        "encoding": "mapping",
        "key": "t_uint256",
        "label": "mapping(uint256 => address)",
        "numberOfBytes": "32",
        "value": "t_address"
      },
      "t_mapping(t_uint256,t_string_storage)": {
        "encoding": "mapping",
        "key": "t_uint256",
        "label": "mapping(uint256 => string)",
        "numberOfBytes": "32",
        "value": "t_string_storage"
      },
      "t_mapping(t_uint256,t_uint8)": {
        "encoding": "mapping",
        "key": "t_uint256",
        "label": "mapping(uint256 => uint8)",
        "numberOfBytes": "32",
        "value": "t_uint8"
      },
      "t_string_storage": {
        "encoding": "bytes",
        "label": "string",
        "numberOfBytes": "32"
      },
      "t_struct(Counter)2708_storage": {
        "encoding": "inplace",
        "label": "struct Counters.Counter",
        "members": [
          {
            "astId": 2707,
            "contract": "contracts/TestGasslessNFT.sol:TestGasslessNFT",
            "label": "_value",
            "offset": 0,
            "slot": "0",
            "type": "t_uint256"
          }
        ],
        "numberOfBytes": "32"
      },
      "t_uint256": {
        "encoding": "inplace",
        "label": "uint256",
        "numberOfBytes": "32"
      },
      "t_uint8": {
        "encoding": "inplace",
        "label": "uint8",
        "numberOfBytes": "1"
      }
    }
  }
}