{
  "address": "0xa1EBD92cC685eF7785BcD93D76ba3010627C94E4",
  "abi": [
    {
      "inputs": [
        {
          "internalType": "uint8",
          "name": "maxMint",
          "type": "uint8"
        }
      ],
      "stateMutability": "nonpayable",
      "type": "constructor"
    },
    {
      "anonymous": false,
      "inputs": [
        {
          "indexed": true,
          "internalType": "address",
          "name": "owner",
          "type": "address"
        },
        {
          "indexed": true,
          "internalType": "address",
          "name": "approved",
          "type": "address"
        },
        {
          "indexed": true,
          "internalType": "uint256",
          "name": "tokenId",
          "type": "uint256"
        }
      ],
      "name": "Approval",
      "type": "event"
    },
    {
      "anonymous": false,
      "inputs": [
        {
          "indexed": true,
          "internalType": "address",
          "name": "owner",
          "type": "address"
        },
        {
          "indexed": true,
          "internalType": "address",
          "name": "operator",
          "type": "address"
        },
        {
          "indexed": false,
          "internalType": "bool",
          "name": "approved",
          "type": "bool"
        }
      ],
      "name": "ApprovalForAll",
      "type": "event"
    },
    {
      "anonymous": false,
      "inputs": [
        {
          "indexed": true,
          "internalType": "address",
          "name": "previousOwner",
          "type": "address"
        },
        {
          "indexed": true,
          "internalType": "address",
          "name": "newOwner",
          "type": "address"
        }
      ],
      "name": "OwnershipTransferred",
      "type": "event"
    },
    {
      "anonymous": false,
      "inputs": [
        {
          "indexed": true,
          "internalType": "address",
          "name": "from",
          "type": "address"
        },
        {
          "indexed": true,
          "internalType": "address",
          "name": "to",
          "type": "address"
        },
        {
          "indexed": true,
          "internalType": "uint256",
          "name": "tokenId",
          "type": "uint256"
        }
      ],
      "name": "Transfer",
      "type": "event"
    },
    {
      "inputs": [],
      "name": "MAX_MINT",
      "outputs": [
        {
          "internalType": "uint8",
          "name": "",
          "type": "uint8"
        }
      ],
      "stateMutability": "view",
      "type": "function"
    },
    {
      "inputs": [
        {
          "internalType": "address",
          "name": "to",
          "type": "address"
        },
        {
          "internalType": "uint256",
          "name": "tokenId",
          "type": "uint256"
        }
      ],
      "name": "approve",
      "outputs": [],
      "stateMutability": "nonpayable",
      "type": "function"
    },
    {
      "inputs": [
        {
          "internalType": "address",
          "name": "owner",
          "type": "address"
        }
      ],
      "name": "balanceOf",
      "outputs": [
        {
          "internalType": "uint256",
          "name": "",
          "type": "uint256"
        }
      ],
      "stateMutability": "view",
      "type": "function"
    },
    {
      "inputs": [
        {
          "internalType": "uint256",
          "name": "tokenId",
          "type": "uint256"
        }
      ],
      "name": "burn",
      "outputs": [],
      "stateMutability": "nonpayable",
      "type": "function"
    },
    {
      "inputs": [
        {
          "internalType": "uint256",
          "name": "tokenId",
          "type": "uint256"
        }
      ],
      "name": "getApproved",
      "outputs": [
        {
          "internalType": "address",
          "name": "",
          "type": "address"
        }
      ],
      "stateMutability": "view",
      "type": "function"
    },
    {
      "inputs": [
        {
          "internalType": "address",
          "name": "owner",
          "type": "address"
        },
        {
          "internalType": "address",
          "name": "operator",
          "type": "address"
        }
      ],
      "name": "isApprovedForAll",
      "outputs": [
        {
          "internalType": "bool",
          "name": "",
          "type": "bool"
        }
      ],
      "stateMutability": "view",
      "type": "function"
    },
    {
      "inputs": [],
      "name": "mint",
      "outputs": [],
      "stateMutability": "nonpayable",
      "type": "function"
    },
    {
      "inputs": [],
      "name": "name",
      "outputs": [
        {
          "internalType": "string",
          "name": "",
          "type": "string"
        }
      ],
      "stateMutability": "view",
      "type": "function"
    },
    {
      "inputs": [],
      "name": "owner",
      "outputs": [
        {
          "internalType": "address",
          "name": "",
          "type": "address"
        }
      ],
      "stateMutability": "view",
      "type": "function"
    },
    {
      "inputs": [
        {
          "internalType": "uint256",
          "name": "tokenId",
          "type": "uint256"
        }
      ],
      "name": "ownerOf",
      "outputs": [
        {
          "internalType": "address",
          "name": "",
          "type": "address"
        }
      ],
      "stateMutability": "view",
      "type": "function"
    },
    {
      "inputs": [],
      "name": "renounceOwnership",
      "outputs": [],
      "stateMutability": "nonpayable",
      "type": "function"
    },
    {
      "inputs": [
        {
          "internalType": "address",
          "name": "from",
          "type": "address"
        },
        {
          "internalType": "address",
          "name": "to",
          "type": "address"
        },
        {
          "internalType": "uint256",
          "name": "tokenId",
          "type": "uint256"
        }
      ],
      "name": "safeTransferFrom",
      "outputs": [],
      "stateMutability": "nonpayable",
      "type": "function"
    },
    {
      "inputs": [
        {
          "internalType": "address",
          "name": "from",
          "type": "address"
        },
        {
          "internalType": "address",
          "name": "to",
          "type": "address"
        },
        {
          "internalType": "uint256",
          "name": "tokenId",
          "type": "uint256"
        },
        {
          "internalType": "bytes",
          "name": "data",
          "type": "bytes"
        }
      ],
      "name": "safeTransferFrom",
      "outputs": [],
      "stateMutability": "nonpayable",
      "type": "function"
    },
    {
      "inputs": [
        {
          "internalType": "address",
          "name": "operator",
          "type": "address"
        },
        {
          "internalType": "bool",
          "name": "approved",
          "type": "bool"
        }
      ],
      "name": "setApprovalForAll",
      "outputs": [],
      "stateMutability": "nonpayable",
      "type": "function"
    },
    {
      "inputs": [
        {
          "internalType": "bytes4",
          "name": "interfaceId",
          "type": "bytes4"
        }
      ],
      "name": "supportsInterface",
      "outputs": [
        {
          "internalType": "bool",
          "name": "",
          "type": "bool"
        }
      ],
      "stateMutability": "view",
      "type": "function"
    },
    {
      "inputs": [],
      "name": "symbol",
      "outputs": [
        {
          "internalType": "string",
          "name": "",
          "type": "string"
        }
      ],
      "stateMutability": "view",
      "type": "function"
    },
    {
      "inputs": [
        {
          "internalType": "uint256",
          "name": "tokenId",
          "type": "uint256"
        }
      ],
      "name": "tokenURI",
      "outputs": [
        {
          "internalType": "string",
          "name": "",
          "type": "string"
        }
      ],
      "stateMutability": "view",
      "type": "function"
    },
    {
      "inputs": [
        {
          "internalType": "address",
          "name": "from",
          "type": "address"
        },
        {
          "internalType": "address",
          "name": "to",
          "type": "address"
        },
        {
          "internalType": "uint256",
          "name": "tokenId",
          "type": "uint256"
        }
      ],
      "name": "transferFrom",
      "outputs": [],
      "stateMutability": "nonpayable",
      "type": "function"
    },
    {
      "inputs": [
        {
          "internalType": "address",
          "name": "newOwner",
          "type": "address"
        }
      ],
      "name": "transferOwnership",
      "outputs": [],
      "stateMutability": "nonpayable",
      "type": "function"
    }
  ],
  "transactionHash": "0xcdcdb38381778f1ffee5fe140cc1d288731461603a975e1d47d4cad1f3afc382",
  "args": [
    3
  ],
  "numDeployments": 1,
  "solcInputHash": "6001362e31af1d9b67ca83952cf32c4b",
  "bytecode": "0x60a06040523480156200001157600080fd5b50604051620035983803806200359883398181016040528101906200003791906200020f565b6040518060400160405280600f81526020017f54657374476173736c6573734e465400000000000000000000000000000000008152506040518060400160405280600381526020017f54474e00000000000000000000000000000000000000000000000000000000008152508160009081620000b49190620004bb565b508060019081620000c69190620004bb565b505050620000e9620000dd620000fe60201b60201c565b6200010660201b60201c565b8060ff1660808160ff168152505050620005a2565b600033905090565b6000600660009054906101000a900473ffffffffffffffffffffffffffffffffffffffff16905081600660006101000a81548173ffffffffffffffffffffffffffffffffffffffff021916908373ffffffffffffffffffffffffffffffffffffffff1602179055508173ffffffffffffffffffffffffffffffffffffffff168173ffffffffffffffffffffffffffffffffffffffff167f8be0079c531659141344cd1fd0a4f28419497f9722a3daafe3b4186f6b6457e060405160405180910390a35050565b600080fd5b600060ff82169050919050565b620001e981620001d1565b8114620001f557600080fd5b50565b6000815190506200020981620001de565b92915050565b600060208284031215620002285762000227620001cc565b5b60006200023884828501620001f8565b91505092915050565b600081519050919050565b7f4e487b7100000000000000000000000000000000000000000000000000000000600052604160045260246000fd5b7f4e487b7100000000000000000000000000000000000000000000000000000000600052602260045260246000fd5b60006002820490506001821680620002c357607f821691505b602082108103620002d957620002d86200027b565b5b50919050565b60008190508160005260206000209050919050565b60006020601f8301049050919050565b600082821b905092915050565b600060088302620003437fffffffffffffffffffffffffffffffffffffffffffffffffffffffffffffffff8262000304565b6200034f868362000304565b95508019841693508086168417925050509392505050565b6000819050919050565b6000819050919050565b60006200039c62000396620003908462000367565b62000371565b62000367565b9050919050565b6000819050919050565b620003b8836200037b565b620003d0620003c782620003a3565b84845462000311565b825550505050565b600090565b620003e7620003d8565b620003f4818484620003ad565b505050565b5b818110156200041c5762000410600082620003dd565b600181019050620003fa565b5050565b601f8211156200046b576200043581620002df565b6200044084620002f4565b8101602085101562000450578190505b620004686200045f85620002f4565b830182620003f9565b50505b505050565b600082821c905092915050565b6000620004906000198460080262000470565b1980831691505092915050565b6000620004ab83836200047d565b9150826002028217905092915050565b620004c68262000241565b67ffffffffffffffff811115620004e257620004e16200024c565b5b620004ee8254620002aa565b620004fb82828562000420565b600060209050601f8311600181146200053357600084156200051e578287015190505b6200052a85826200049d565b8655506200059a565b601f1984166200054386620002df565b60005b828110156200056d5784890151825560018201915060208501945060208101905062000546565b868310156200058d578489015162000589601f8916826200047d565b8355505b6001600288020188555050505b505050505050565b608051612fd3620005c5600039600081816106690152610c290152612fd36000f3fe608060405234801561001057600080fd5b50600436106101215760003560e01c806370a08231116100ad578063b88d4fde11610071578063b88d4fde146102e0578063c87b56dd146102fc578063e985e9c51461032c578063f0292a031461035c578063f2fde38b1461037a57610121565b806370a082311461024e578063715018a61461027e5780638da5cb5b1461028857806395d89b41146102a6578063a22cb465146102c457610121565b80631249c58b116100f45780631249c58b146101c057806323b872dd146101ca57806342842e0e146101e657806342966c68146102025780636352211e1461021e57610121565b806301ffc9a71461012657806306fdde0314610156578063081812fc14610174578063095ea7b3146101a4575b600080fd5b610140600480360381019061013b9190611f85565b610396565b60405161014d9190611fcd565b60405180910390f35b61015e610478565b60405161016b9190612078565b60405180910390f35b61018e600480360381019061018991906120d0565b61050a565b60405161019b919061213e565b60405180910390f35b6101be60048036038101906101b99190612185565b610550565b005b6101c8610667565b005b6101e460048036038101906101df91906121c5565b6107ca565b005b61020060048036038101906101fb91906121c5565b61082a565b005b61021c600480360381019061021791906120d0565b61084a565b005b610238600480360381019061023391906120d0565b6108a6565b604051610245919061213e565b60405180910390f35b61026860048036038101906102639190612218565b61092c565b6040516102759190612254565b60405180910390f35b6102866109e3565b005b6102906109f7565b60405161029d919061213e565b60405180910390f35b6102ae610a21565b6040516102bb9190612078565b60405180910390f35b6102de60048036038101906102d9919061229b565b610ab3565b005b6102fa60048036038101906102f59190612410565b610ac9565b005b610316600480360381019061031191906120d0565b610b2b565b6040516103239190612078565b60405180910390f35b61034660048036038101906103419190612493565b610b93565b6040516103539190611fcd565b60405180910390f35b610364610c27565b60405161037191906124ef565b60405180910390f35b610394600480360381019061038f9190612218565b610c4b565b005b60007f80ac58cd000000000000000000000000000000000000000000000000000000007bffffffffffffffffffffffffffffffffffffffffffffffffffffffff1916827bffffffffffffffffffffffffffffffffffffffffffffffffffffffff1916148061046157507f5b5e139f000000000000000000000000000000000000000000000000000000007bffffffffffffffffffffffffffffffffffffffffffffffffffffffff1916827bffffffffffffffffffffffffffffffffffffffffffffffffffffffff1916145b80610471575061047082610cce565b5b9050919050565b60606000805461048790612539565b80601f01602080910402602001604051908101604052809291908181526020018280546104b390612539565b80156105005780601f106104d557610100808354040283529160200191610500565b820191906000526020600020905b8154815290600101906020018083116104e357829003601f168201915b5050505050905090565b600061051582610d38565b6004600083815260200190815260200160002060009054906101000a900473ffffffffffffffffffffffffffffffffffffffff169050919050565b600061055b826108a6565b90508073ffffffffffffffffffffffffffffffffffffffff168373ffffffffffffffffffffffffffffffffffffffff16036105cb576040517f08c379a00000000000000000000000000000000000000000000000000000000081526004016105c2906125dc565b60405180910390fd5b8073ffffffffffffffffffffffffffffffffffffffff166105ea610d83565b73ffffffffffffffffffffffffffffffffffffffff161480610619575061061881610613610d83565b610b93565b5b610658576040517f08c379a000000000000000000000000000000000000000000000000000000000815260040161064f9061266e565b60405180910390fd5b6106628383610d8b565b505050565b7f000000000000000000000000000000000000000000000000000000000000000060ff1660086000610697610d83565b73ffffffffffffffffffffffffffffffffffffffff1673ffffffffffffffffffffffffffffffffffffffff16815260200190815260200160002060009054906101000a900460ff1660ff1614610722576040517f08c379a000000000000000000000000000000000000000000000000000000000815260040161071990612700565b60405180910390fd5b600061072e6007610e44565b905061073a6007610e52565b60086000610746610d83565b73ffffffffffffffffffffffffffffffffffffffff1673ffffffffffffffffffffffffffffffffffffffff168152602001908152602001600020600081819054906101000a900460ff168092919061079d9061274f565b91906101000a81548160ff021916908360ff160217905550506107c76107c1610d83565b82610e68565b50565b6107db6107d5610d83565b82610e86565b61081a576040517f08c379a0000000000000000000000000000000000000000000000000000000008152600401610811906127ea565b60405180910390fd5b610825838383610f1b565b505050565b61084583838360405180602001604052806000815250610ac9565b505050565b61085b610855610d83565b82610e86565b61089a576040517f08c379a0000000000000000000000000000000000000000000000000000000008152600401610891906127ea565b60405180910390fd5b6108a381611214565b50565b6000806108b283611362565b9050600073ffffffffffffffffffffffffffffffffffffffff168173ffffffffffffffffffffffffffffffffffffffff1603610923576040517f08c379a000000000000000000000000000000000000000000000000000000000815260040161091a90612856565b60405180910390fd5b80915050919050565b60008073ffffffffffffffffffffffffffffffffffffffff168273ffffffffffffffffffffffffffffffffffffffff160361099c576040517f08c379a0000000000000000000000000000000000000000000000000000000008152600401610993906128e8565b60405180910390fd5b600360008373ffffffffffffffffffffffffffffffffffffffff1673ffffffffffffffffffffffffffffffffffffffff168152602001908152602001600020549050919050565b6109eb61139f565b6109f5600061141d565b565b6000600660009054906101000a900473ffffffffffffffffffffffffffffffffffffffff16905090565b606060018054610a3090612539565b80601f0160208091040260200160405190810160405280929190818152602001828054610a5c90612539565b8015610aa95780601f10610a7e57610100808354040283529160200191610aa9565b820191906000526020600020905b815481529060010190602001808311610a8c57829003601f168201915b5050505050905090565b610ac5610abe610d83565b83836114e3565b5050565b610ada610ad4610d83565b83610e86565b610b19576040517f08c379a0000000000000000000000000000000000000000000000000000000008152600401610b10906127ea565b60405180910390fd5b610b258484848461164f565b50505050565b6060610b3682610d38565b6000610b406116ab565b90506000815111610b605760405180602001604052806000815250610b8b565b80610b6a846116e8565b604051602001610b7b929190612990565b6040516020818303038152906040525b915050919050565b6000600560008473ffffffffffffffffffffffffffffffffffffffff1673ffffffffffffffffffffffffffffffffffffffff16815260200190815260200160002060008373ffffffffffffffffffffffffffffffffffffffff1673ffffffffffffffffffffffffffffffffffffffff16815260200190815260200160002060009054906101000a900460ff16905092915050565b7f000000000000000000000000000000000000000000000000000000000000000081565b610c5361139f565b600073ffffffffffffffffffffffffffffffffffffffff168173ffffffffffffffffffffffffffffffffffffffff1603610cc2576040517f08c379a0000000000000000000000000000000000000000000000000000000008152600401610cb990612a31565b60405180910390fd5b610ccb8161141d565b50565b60007f01ffc9a7000000000000000000000000000000000000000000000000000000007bffffffffffffffffffffffffffffffffffffffffffffffffffffffff1916827bffffffffffffffffffffffffffffffffffffffffffffffffffffffff1916149050919050565b610d41816117b6565b610d80576040517f08c379a0000000000000000000000000000000000000000000000000000000008152600401610d7790612856565b60405180910390fd5b50565b600033905090565b816004600083815260200190815260200160002060006101000a81548173ffffffffffffffffffffffffffffffffffffffff021916908373ffffffffffffffffffffffffffffffffffffffff160217905550808273ffffffffffffffffffffffffffffffffffffffff16610dfe836108a6565b73ffffffffffffffffffffffffffffffffffffffff167f8c5be1e5ebec7d5bd14f71427d1e84f3dd0314c0f7b2291e5b200ac8c7c3b92560405160405180910390a45050565b600081600001549050919050565b6001816000016000828254019250508190555050565b610e828282604051806020016040528060008152506117f7565b5050565b600080610e92836108a6565b90508073ffffffffffffffffffffffffffffffffffffffff168473ffffffffffffffffffffffffffffffffffffffff161480610ed45750610ed38185610b93565b5b80610f1257508373ffffffffffffffffffffffffffffffffffffffff16610efa8461050a565b73ffffffffffffffffffffffffffffffffffffffff16145b91505092915050565b8273ffffffffffffffffffffffffffffffffffffffff16610f3b826108a6565b73ffffffffffffffffffffffffffffffffffffffff1614610f91576040517f08c379a0000000000000000000000000000000000000000000000000000000008152600401610f8890612ac3565b60405180910390fd5b600073ffffffffffffffffffffffffffffffffffffffff168273ffffffffffffffffffffffffffffffffffffffff1603611000576040517f08c379a0000000000000000000000000000000000000000000000000000000008152600401610ff790612b55565b60405180910390fd5b61100d8383836001611852565b8273ffffffffffffffffffffffffffffffffffffffff1661102d826108a6565b73ffffffffffffffffffffffffffffffffffffffff1614611083576040517f08c379a000000000000000000000000000000000000000000000000000000000815260040161107a90612ac3565b60405180910390fd5b6004600082815260200190815260200160002060006101000a81549073ffffffffffffffffffffffffffffffffffffffff02191690556001600360008573ffffffffffffffffffffffffffffffffffffffff1673ffffffffffffffffffffffffffffffffffffffff168152602001908152602001600020600082825403925050819055506001600360008473ffffffffffffffffffffffffffffffffffffffff1673ffffffffffffffffffffffffffffffffffffffff16815260200190815260200160002060008282540192505081905550816002600083815260200190815260200160002060006101000a81548173ffffffffffffffffffffffffffffffffffffffff021916908373ffffffffffffffffffffffffffffffffffffffff160217905550808273ffffffffffffffffffffffffffffffffffffffff168473ffffffffffffffffffffffffffffffffffffffff167fddf252ad1be2c89b69c2b068fc378daa952ba7f163c4a11628f55a4df523b3ef60405160405180910390a461120f83838360016118d3565b505050565b600061121f826108a6565b905061122f816000846001611852565b611238826108a6565b90506004600083815260200190815260200160002060006101000a81549073ffffffffffffffffffffffffffffffffffffffff02191690556001600360008373ffffffffffffffffffffffffffffffffffffffff1673ffffffffffffffffffffffffffffffffffffffff168152602001908152602001600020600082825403925050819055506002600083815260200190815260200160002060006101000a81549073ffffffffffffffffffffffffffffffffffffffff021916905581600073ffffffffffffffffffffffffffffffffffffffff168273ffffffffffffffffffffffffffffffffffffffff167fddf252ad1be2c89b69c2b068fc378daa952ba7f163c4a11628f55a4df523b3ef60405160405180910390a461135e8160008460016118d3565b5050565b60006002600083815260200190815260200160002060009054906101000a900473ffffffffffffffffffffffffffffffffffffffff169050919050565b6113a7610d83565b73ffffffffffffffffffffffffffffffffffffffff166113c56109f7565b73ffffffffffffffffffffffffffffffffffffffff161461141b576040517f08c379a000000000000000000000000000000000000000000000000000000000815260040161141290612bc1565b60405180910390fd5b565b6000600660009054906101000a900473ffffffffffffffffffffffffffffffffffffffff16905081600660006101000a81548173ffffffffffffffffffffffffffffffffffffffff021916908373ffffffffffffffffffffffffffffffffffffffff1602179055508173ffffffffffffffffffffffffffffffffffffffff168173ffffffffffffffffffffffffffffffffffffffff167f8be0079c531659141344cd1fd0a4f28419497f9722a3daafe3b4186f6b6457e060405160405180910390a35050565b8173ffffffffffffffffffffffffffffffffffffffff168373ffffffffffffffffffffffffffffffffffffffff1603611551576040517f08c379a000000000000000000000000000000000000000000000000000000000815260040161154890612c2d565b60405180910390fd5b80600560008573ffffffffffffffffffffffffffffffffffffffff1673ffffffffffffffffffffffffffffffffffffffff16815260200190815260200160002060008473ffffffffffffffffffffffffffffffffffffffff1673ffffffffffffffffffffffffffffffffffffffff16815260200190815260200160002060006101000a81548160ff0219169083151502179055508173ffffffffffffffffffffffffffffffffffffffff168373ffffffffffffffffffffffffffffffffffffffff167f17307eab39ab6107e8899845ad3d59bd9653f200f220920489ca2b5937696c31836040516116429190611fcd565b60405180910390a3505050565b61165a848484610f1b565b611666848484846118d9565b6116a5576040517f08c379a000000000000000000000000000000000000000000000000000000000815260040161169c90612cbf565b60405180910390fd5b50505050565b60606040518060400160405280601b81526020017f68747470733a2f2f70696373756d2e70686f746f732f736565642f0000000000815250905090565b6060600060016116f784611a60565b01905060008167ffffffffffffffff811115611716576117156122e5565b5b6040519080825280601f01601f1916602001820160405280156117485781602001600182028036833780820191505090505b509050600082602001820190505b6001156117ab578080600190039150507f3031323334353637383961626364656600000000000000000000000000000000600a86061a8153600a858161179f5761179e612cdf565b5b04945060008503611756575b819350505050919050565b60008073ffffffffffffffffffffffffffffffffffffffff166117d883611362565b73ffffffffffffffffffffffffffffffffffffffff1614159050919050565b6118018383611bb3565b61180e60008484846118d9565b61184d576040517f08c379a000000000000000000000000000000000000000000000000000000000815260040161184490612cbf565b60405180910390fd5b505050565b600073ffffffffffffffffffffffffffffffffffffffff168373ffffffffffffffffffffffffffffffffffffffff16146118c1576040517f08c379a00000000000000000000000000000000000000000000000000000000081526004016118b890612d5a565b60405180910390fd5b6118cd84848484611dd0565b50505050565b50505050565b60006118fa8473ffffffffffffffffffffffffffffffffffffffff16611ef6565b15611a53578373ffffffffffffffffffffffffffffffffffffffff1663150b7a02611923610d83565b8786866040518563ffffffff1660e01b81526004016119459493929190612dcf565b6020604051808303816000875af192505050801561198157506040513d601f19601f8201168201806040525081019061197e9190612e30565b60015b611a03573d80600081146119b1576040519150601f19603f3d011682016040523d82523d6000602084013e6119b6565b606091505b5060008151036119fb576040517f08c379a00000000000000000000000000000000000000000000000000000000081526004016119f290612cbf565b60405180910390fd5b805181602001fd5b63150b7a0260e01b7bffffffffffffffffffffffffffffffffffffffffffffffffffffffff1916817bffffffffffffffffffffffffffffffffffffffffffffffffffffffff191614915050611a58565b600190505b949350505050565b600080600090507a184f03e93ff9f4daa797ed6e38ed64bf6a1f0100000000000000008310611abe577a184f03e93ff9f4daa797ed6e38ed64bf6a1f0100000000000000008381611ab457611ab3612cdf565b5b0492506040810190505b6d04ee2d6d415b85acef81000000008310611afb576d04ee2d6d415b85acef81000000008381611af157611af0612cdf565b5b0492506020810190505b662386f26fc100008310611b2a57662386f26fc100008381611b2057611b1f612cdf565b5b0492506010810190505b6305f5e1008310611b53576305f5e1008381611b4957611b48612cdf565b5b0492506008810190505b6127108310611b78576127108381611b6e57611b6d612cdf565b5b0492506004810190505b60648310611b9b5760648381611b9157611b90612cdf565b5b0492506002810190505b600a8310611baa576001810190505b80915050919050565b600073ffffffffffffffffffffffffffffffffffffffff168273ffffffffffffffffffffffffffffffffffffffff1603611c22576040517f08c379a0000000000000000000000000000000000000000000000000000000008152600401611c1990612ea9565b60405180910390fd5b611c2b816117b6565b15611c6b576040517f08c379a0000000000000000000000000000000000000000000000000000000008152600401611c6290612f15565b60405180910390fd5b611c79600083836001611852565b611c82816117b6565b15611cc2576040517f08c379a0000000000000000000000000000000000000000000000000000000008152600401611cb990612f15565b60405180910390fd5b6001600360008473ffffffffffffffffffffffffffffffffffffffff1673ffffffffffffffffffffffffffffffffffffffff16815260200190815260200160002060008282540192505081905550816002600083815260200190815260200160002060006101000a81548173ffffffffffffffffffffffffffffffffffffffff021916908373ffffffffffffffffffffffffffffffffffffffff160217905550808273ffffffffffffffffffffffffffffffffffffffff16600073ffffffffffffffffffffffffffffffffffffffff167fddf252ad1be2c89b69c2b068fc378daa952ba7f163c4a11628f55a4df523b3ef60405160405180910390a4611dcc6000838360016118d3565b5050565b6001811115611ef057600073ffffffffffffffffffffffffffffffffffffffff168473ffffffffffffffffffffffffffffffffffffffff1614611e645780600360008673ffffffffffffffffffffffffffffffffffffffff1673ffffffffffffffffffffffffffffffffffffffff1681526020019081526020016000206000828254611e5c9190612f35565b925050819055505b600073ffffffffffffffffffffffffffffffffffffffff168373ffffffffffffffffffffffffffffffffffffffff1614611eef5780600360008573ffffffffffffffffffffffffffffffffffffffff1673ffffffffffffffffffffffffffffffffffffffff1681526020019081526020016000206000828254611ee79190612f69565b925050819055505b5b50505050565b6000808273ffffffffffffffffffffffffffffffffffffffff163b119050919050565b6000604051905090565b600080fd5b600080fd5b60007fffffffff0000000000000000000000000000000000000000000000000000000082169050919050565b611f6281611f2d565b8114611f6d57600080fd5b50565b600081359050611f7f81611f59565b92915050565b600060208284031215611f9b57611f9a611f23565b5b6000611fa984828501611f70565b91505092915050565b60008115159050919050565b611fc781611fb2565b82525050565b6000602082019050611fe26000830184611fbe565b92915050565b600081519050919050565b600082825260208201905092915050565b60005b83811015612022578082015181840152602081019050612007565b60008484015250505050565b6000601f19601f8301169050919050565b600061204a82611fe8565b6120548185611ff3565b9350612064818560208601612004565b61206d8161202e565b840191505092915050565b60006020820190508181036000830152612092818461203f565b905092915050565b6000819050919050565b6120ad8161209a565b81146120b857600080fd5b50565b6000813590506120ca816120a4565b92915050565b6000602082840312156120e6576120e5611f23565b5b60006120f4848285016120bb565b91505092915050565b600073ffffffffffffffffffffffffffffffffffffffff82169050919050565b6000612128826120fd565b9050919050565b6121388161211d565b82525050565b6000602082019050612153600083018461212f565b92915050565b6121628161211d565b811461216d57600080fd5b50565b60008135905061217f81612159565b92915050565b6000806040838503121561219c5761219b611f23565b5b60006121aa85828601612170565b92505060206121bb858286016120bb565b9150509250929050565b6000806000606084860312156121de576121dd611f23565b5b60006121ec86828701612170565b93505060206121fd86828701612170565b925050604061220e868287016120bb565b9150509250925092565b60006020828403121561222e5761222d611f23565b5b600061223c84828501612170565b91505092915050565b61224e8161209a565b82525050565b60006020820190506122696000830184612245565b92915050565b61227881611fb2565b811461228357600080fd5b50565b6000813590506122958161226f565b92915050565b600080604083850312156122b2576122b1611f23565b5b60006122c085828601612170565b92505060206122d185828601612286565b9150509250929050565b600080fd5b600080fd5b7f4e487b7100000000000000000000000000000000000000000000000000000000600052604160045260246000fd5b61231d8261202e565b810181811067ffffffffffffffff8211171561233c5761233b6122e5565b5b80604052505050565b600061234f611f19565b905061235b8282612314565b919050565b600067ffffffffffffffff82111561237b5761237a6122e5565b5b6123848261202e565b9050602081019050919050565b82818337600083830152505050565b60006123b36123ae84612360565b612345565b9050828152602081018484840111156123cf576123ce6122e0565b5b6123da848285612391565b509392505050565b600082601f8301126123f7576123f66122db565b5b81356124078482602086016123a0565b91505092915050565b6000806000806080858703121561242a57612429611f23565b5b600061243887828801612170565b945050602061244987828801612170565b935050604061245a878288016120bb565b925050606085013567ffffffffffffffff81111561247b5761247a611f28565b5b612487878288016123e2565b91505092959194509250565b600080604083850312156124aa576124a9611f23565b5b60006124b885828601612170565b92505060206124c985828601612170565b9150509250929050565b600060ff82169050919050565b6124e9816124d3565b82525050565b600060208201905061250460008301846124e0565b92915050565b7f4e487b7100000000000000000000000000000000000000000000000000000000600052602260045260246000fd5b6000600282049050600182168061255157607f821691505b6020821081036125645761256361250a565b5b50919050565b7f4552433732313a20617070726f76616c20746f2063757272656e74206f776e6560008201527f7200000000000000000000000000000000000000000000000000000000000000602082015250565b60006125c6602183611ff3565b91506125d18261256a565b604082019050919050565b600060208201905081810360008301526125f5816125b9565b9050919050565b7f4552433732313a20617070726f76652063616c6c6572206973206e6f7420746f60008201527f6b656e206f776e6572206f7220617070726f76656420666f7220616c6c000000602082015250565b6000612658603d83611ff3565b9150612663826125fc565b604082019050919050565b600060208201905081810360008301526126878161264b565b9050919050565b7f54657374476173736c6573734e46543a204d617820616d6f756e74206578636560008201527f6564000000000000000000000000000000000000000000000000000000000000602082015250565b60006126ea602283611ff3565b91506126f58261268e565b604082019050919050565b60006020820190508181036000830152612719816126dd565b9050919050565b7f4e487b7100000000000000000000000000000000000000000000000000000000600052601160045260246000fd5b600061275a826124d3565b915060ff820361276d5761276c612720565b5b600182019050919050565b7f4552433732313a2063616c6c6572206973206e6f7420746f6b656e206f776e6560008201527f72206f7220617070726f76656400000000000000000000000000000000000000602082015250565b60006127d4602d83611ff3565b91506127df82612778565b604082019050919050565b60006020820190508181036000830152612803816127c7565b9050919050565b7f4552433732313a20696e76616c696420746f6b656e2049440000000000000000600082015250565b6000612840601883611ff3565b915061284b8261280a565b602082019050919050565b6000602082019050818103600083015261286f81612833565b9050919050565b7f4552433732313a2061646472657373207a65726f206973206e6f74206120766160008201527f6c6964206f776e65720000000000000000000000000000000000000000000000602082015250565b60006128d2602983611ff3565b91506128dd82612876565b604082019050919050565b60006020820190508181036000830152612901816128c5565b9050919050565b600081905092915050565b600061291e82611fe8565b6129288185612908565b9350612938818560208601612004565b80840191505092915050565b7f3430302f35303000000000000000000000000000000000000000000000000000600082015250565b600061297a600783612908565b915061298582612944565b600782019050919050565b600061299c8285612913565b91506129a88284612913565b91506129b38261296d565b91508190509392505050565b7f4f776e61626c653a206e6577206f776e657220697320746865207a65726f206160008201527f6464726573730000000000000000000000000000000000000000000000000000602082015250565b6000612a1b602683611ff3565b9150612a26826129bf565b604082019050919050565b60006020820190508181036000830152612a4a81612a0e565b9050919050565b7f4552433732313a207472616e736665722066726f6d20696e636f72726563742060008201527f6f776e6572000000000000000000000000000000000000000000000000000000602082015250565b6000612aad602583611ff3565b9150612ab882612a51565b604082019050919050565b60006020820190508181036000830152612adc81612aa0565b9050919050565b7f4552433732313a207472616e7366657220746f20746865207a65726f2061646460008201527f7265737300000000000000000000000000000000000000000000000000000000602082015250565b6000612b3f602483611ff3565b9150612b4a82612ae3565b604082019050919050565b60006020820190508181036000830152612b6e81612b32565b9050919050565b7f4f776e61626c653a2063616c6c6572206973206e6f7420746865206f776e6572600082015250565b6000612bab602083611ff3565b9150612bb682612b75565b602082019050919050565b60006020820190508181036000830152612bda81612b9e565b9050919050565b7f4552433732313a20617070726f766520746f2063616c6c657200000000000000600082015250565b6000612c17601983611ff3565b9150612c2282612be1565b602082019050919050565b60006020820190508181036000830152612c4681612c0a565b9050919050565b7f4552433732313a207472616e7366657220746f206e6f6e20455243373231526560008201527f63656976657220696d706c656d656e7465720000000000000000000000000000602082015250565b6000612ca9603283611ff3565b9150612cb482612c4d565b604082019050919050565b60006020820190508181036000830152612cd881612c9c565b9050919050565b7f4e487b7100000000000000000000000000000000000000000000000000000000600052601260045260246000fd5b7f4572723a20746f6b656e207472616e7366657220697320424c4f434b45440000600082015250565b6000612d44601e83611ff3565b9150612d4f82612d0e565b602082019050919050565b60006020820190508181036000830152612d7381612d37565b9050919050565b600081519050919050565b600082825260208201905092915050565b6000612da182612d7a565b612dab8185612d85565b9350612dbb818560208601612004565b612dc48161202e565b840191505092915050565b6000608082019050612de4600083018761212f565b612df1602083018661212f565b612dfe6040830185612245565b8181036060830152612e108184612d96565b905095945050505050565b600081519050612e2a81611f59565b92915050565b600060208284031215612e4657612e45611f23565b5b6000612e5484828501612e1b565b91505092915050565b7f4552433732313a206d696e7420746f20746865207a65726f2061646472657373600082015250565b6000612e93602083611ff3565b9150612e9e82612e5d565b602082019050919050565b60006020820190508181036000830152612ec281612e86565b9050919050565b7f4552433732313a20746f6b656e20616c7265616479206d696e74656400000000600082015250565b6000612eff601c83611ff3565b9150612f0a82612ec9565b602082019050919050565b60006020820190508181036000830152612f2e81612ef2565b9050919050565b6000612f408261209a565b9150612f4b8361209a565b9250828203905081811115612f6357612f62612720565b5b92915050565b6000612f748261209a565b9150612f7f8361209a565b9250828201905080821115612f9757612f96612720565b5b9291505056fea2646970667358221220fdb3abb96772de4cebec878b774e0d281d50270d24f2dbd06fc91f9339928f7264736f6c63430008110033",
  "devdoc": {
    "kind": "dev",
    "methods": {
      "approve(address,uint256)": {
        "details": "See {IERC721-approve}."
      },
      "balanceOf(address)": {
        "details": "See {IERC721-balanceOf}."
      },
      "burn(uint256)": {
        "details": "Burns `tokenId`. See {ERC721-_burn}. Requirements: - The caller must own `tokenId` or be an approved operator."
      },
      "getApproved(uint256)": {
        "details": "See {IERC721-getApproved}."
      },
      "isApprovedForAll(address,address)": {
        "details": "See {IERC721-isApprovedForAll}."
      },
      "name()": {
        "details": "See {IERC721Metadata-name}."
      },
      "owner()": {
        "details": "Returns the address of the current owner."
      },
      "ownerOf(uint256)": {
        "details": "See {IERC721-ownerOf}."
      },
      "renounceOwnership()": {
        "details": "Leaves the contract without owner. It will not be possible to call `onlyOwner` functions anymore. Can only be called by the current owner. NOTE: Renouncing ownership will leave the contract without an owner, thereby removing any functionality that is only available to the owner."
      },
      "safeTransferFrom(address,address,uint256)": {
        "details": "See {IERC721-safeTransferFrom}."
      },
      "safeTransferFrom(address,address,uint256,bytes)": {
        "details": "See {IERC721-safeTransferFrom}."
      },
      "setApprovalForAll(address,bool)": {
        "details": "See {IERC721-setApprovalForAll}."
      },
      "supportsInterface(bytes4)": {
        "details": "See {IERC165-supportsInterface}."
      },
      "symbol()": {
        "details": "See {IERC721Metadata-symbol}."
      },
      "tokenURI(uint256)": {
        "details": "See {IERC721Metadata-tokenURI}."
      },
      "transferFrom(address,address,uint256)": {
        "details": "See {IERC721-transferFrom}."
      },
      "transferOwnership(address)": {
        "details": "Transfers ownership of the contract to a new account (`newOwner`). Can only be called by the current owner."
      }
    },
    "version": 1
  },
  "userdoc": {
    "kind": "user",
    "methods": {},
    "version": 1
  },
  "storageLayout": {
    "storage": [
      {
        "astId": 138,
        "contract": "contracts/TestGasslessNFT.sol:TestGasslessNFT",
        "label": "_name",
        "offset": 0,
        "slot": "0",
        "type": "t_string_storage"
      },
      {
        "astId": 140,
        "contract": "contracts/TestGasslessNFT.sol:TestGasslessNFT",
        "label": "_symbol",
        "offset": 0,
        "slot": "1",
        "type": "t_string_storage"
      },
      {
        "astId": 144,
        "contract": "contracts/TestGasslessNFT.sol:TestGasslessNFT",
        "label": "_owners",
        "offset": 0,
        "slot": "2",
        "type": "t_mapping(t_uint256,t_address)"
      },
      {
        "astId": 148,
        "contract": "contracts/TestGasslessNFT.sol:TestGasslessNFT",
        "label": "_balances",
        "offset": 0,
        "slot": "3",
        "type": "t_mapping(t_address,t_uint256)"
      },
      {
        "astId": 152,
        "contract": "contracts/TestGasslessNFT.sol:TestGasslessNFT",
        "label": "_tokenApprovals",
        "offset": 0,
        "slot": "4",
        "type": "t_mapping(t_uint256,t_address)"
      },
      {
        "astId": 158,
        "contract": "contracts/TestGasslessNFT.sol:TestGasslessNFT",
        "label": "_operatorApprovals",
        "offset": 0,
        "slot": "5",
        "type": "t_mapping(t_address,t_mapping(t_address,t_bool))"
      },
      {
        "astId": 7,
        "contract": "contracts/TestGasslessNFT.sol:TestGasslessNFT",
        "label": "_owner",
        "offset": 0,
        "slot": "6",
        "type": "t_address"
      },
      {
        "astId": 2770,
        "contract": "contracts/TestGasslessNFT.sol:TestGasslessNFT",
        "label": "_tokenIdCounter",
        "offset": 0,
        "slot": "7",
        "type": "t_struct(Counter)1606_storage"
      },
      {
        "astId": 2774,
        "contract": "contracts/TestGasslessNFT.sol:TestGasslessNFT",
        "label": "_userCounts",
        "offset": 0,
        "slot": "8",
        "type": "t_mapping(t_address,t_uint8)"
      }
    ],
    "types": {
      "t_address": {
        "encoding": "inplace",
        "label": "address",
        "numberOfBytes": "20"
      },
      "t_bool": {
        "encoding": "inplace",
        "label": "bool",
        "numberOfBytes": "1"
      },
      "t_mapping(t_address,t_bool)": {
        "encoding": "mapping",
        "key": "t_address",
        "label": "mapping(address => bool)",
        "numberOfBytes": "32",
        "value": "t_bool"
      },
      "t_mapping(t_address,t_mapping(t_address,t_bool))": {
        "encoding": "mapping",
        "key": "t_address",
        "label": "mapping(address => mapping(address => bool))",
        "numberOfBytes": "32",
        "value": "t_mapping(t_address,t_bool)"
      },
      "t_mapping(t_address,t_uint256)": {
        "encoding": "mapping",
        "key": "t_address",
        "label": "mapping(address => uint256)",
        "numberOfBytes": "32",
        "value": "t_uint256"
      },
      "t_mapping(t_address,t_uint8)": {
        "encoding": "mapping",
        "key": "t_address",
        "label": "mapping(address => uint8)",
        "numberOfBytes": "32",
        "value": "t_uint8"
      },
      "t_mapping(t_uint256,t_address)": {
        "encoding": "mapping",
        "key": "t_uint256",
        "label": "mapping(uint256 => address)",
        "numberOfBytes": "32",
        "value": "t_address"
      },
      "t_string_storage": {
        "encoding": "bytes",
        "label": "string",
        "numberOfBytes": "32"
      },
      "t_struct(Counter)1606_storage": {
        "encoding": "inplace",
        "label": "struct Counters.Counter",
        "members": [
          {
            "astId": 1605,
            "contract": "contracts/TestGasslessNFT.sol:TestGasslessNFT",
            "label": "_value",
            "offset": 0,
            "slot": "0",
            "type": "t_uint256"
          }
        ],
        "numberOfBytes": "32"
      },
      "t_uint256": {
        "encoding": "inplace",
        "label": "uint256",
        "numberOfBytes": "32"
      },
      "t_uint8": {
        "encoding": "inplace",
        "label": "uint8",
        "numberOfBytes": "1"
      }
    }
  }
}