{
  "address": "0x7036436Abd4326159Aae84Ecf1151aE165d62737",
  "abi": [
    {
      "inputs": [
        {
          "internalType": "uint8",
          "name": "maxMint",
          "type": "uint8"
        }
      ],
      "stateMutability": "nonpayable",
      "type": "constructor"
    },
    {
      "anonymous": false,
      "inputs": [
        {
          "indexed": true,
          "internalType": "address",
          "name": "owner",
          "type": "address"
        },
        {
          "indexed": true,
          "internalType": "address",
          "name": "approved",
          "type": "address"
        },
        {
          "indexed": true,
          "internalType": "uint256",
          "name": "tokenId",
          "type": "uint256"
        }
      ],
      "name": "Approval",
      "type": "event"
    },
    {
      "anonymous": false,
      "inputs": [
        {
          "indexed": true,
          "internalType": "address",
          "name": "owner",
          "type": "address"
        },
        {
          "indexed": true,
          "internalType": "address",
          "name": "operator",
          "type": "address"
        },
        {
          "indexed": false,
          "internalType": "bool",
          "name": "approved",
          "type": "bool"
        }
      ],
      "name": "ApprovalForAll",
      "type": "event"
    },
    {
      "anonymous": false,
      "inputs": [
        {
          "indexed": true,
          "internalType": "address",
          "name": "previousOwner",
          "type": "address"
        },
        {
          "indexed": true,
          "internalType": "address",
          "name": "newOwner",
          "type": "address"
        }
      ],
      "name": "OwnershipTransferred",
      "type": "event"
    },
    {
      "anonymous": false,
      "inputs": [
        {
          "indexed": true,
          "internalType": "address",
          "name": "from",
          "type": "address"
        },
        {
          "indexed": true,
          "internalType": "address",
          "name": "to",
          "type": "address"
        },
        {
          "indexed": true,
          "internalType": "uint256",
          "name": "tokenId",
          "type": "uint256"
        }
      ],
      "name": "Transfer",
      "type": "event"
    },
    {
      "inputs": [],
      "name": "MAX_MINT",
      "outputs": [
        {
          "internalType": "uint8",
          "name": "",
          "type": "uint8"
        }
      ],
      "stateMutability": "view",
      "type": "function"
    },
    {
      "inputs": [
        {
          "internalType": "address",
          "name": "to",
          "type": "address"
        },
        {
          "internalType": "uint256",
          "name": "tokenId",
          "type": "uint256"
        }
      ],
      "name": "approve",
      "outputs": [],
      "stateMutability": "nonpayable",
      "type": "function"
    },
    {
      "inputs": [
        {
          "internalType": "address",
          "name": "owner",
          "type": "address"
        }
      ],
      "name": "balanceOf",
      "outputs": [
        {
          "internalType": "uint256",
          "name": "",
          "type": "uint256"
        }
      ],
      "stateMutability": "view",
      "type": "function"
    },
    {
      "inputs": [
        {
          "internalType": "uint256",
          "name": "tokenId",
          "type": "uint256"
        }
      ],
      "name": "burn",
      "outputs": [],
      "stateMutability": "nonpayable",
      "type": "function"
    },
    {
      "inputs": [
        {
          "internalType": "uint256",
          "name": "tokenId",
          "type": "uint256"
        }
      ],
      "name": "getApproved",
      "outputs": [
        {
          "internalType": "address",
          "name": "",
          "type": "address"
        }
      ],
      "stateMutability": "view",
      "type": "function"
    },
    {
      "inputs": [
        {
          "internalType": "address",
          "name": "owner",
          "type": "address"
        },
        {
          "internalType": "address",
          "name": "operator",
          "type": "address"
        }
      ],
      "name": "isApprovedForAll",
      "outputs": [
        {
          "internalType": "bool",
          "name": "",
          "type": "bool"
        }
      ],
      "stateMutability": "view",
      "type": "function"
    },
    {
      "inputs": [],
      "name": "mint",
      "outputs": [],
      "stateMutability": "nonpayable",
      "type": "function"
    },
    {
      "inputs": [],
      "name": "name",
      "outputs": [
        {
          "internalType": "string",
          "name": "",
          "type": "string"
        }
      ],
      "stateMutability": "view",
      "type": "function"
    },
    {
      "inputs": [],
      "name": "owner",
      "outputs": [
        {
          "internalType": "address",
          "name": "",
          "type": "address"
        }
      ],
      "stateMutability": "view",
      "type": "function"
    },
    {
      "inputs": [
        {
          "internalType": "uint256",
          "name": "tokenId",
          "type": "uint256"
        }
      ],
      "name": "ownerOf",
      "outputs": [
        {
          "internalType": "address",
          "name": "",
          "type": "address"
        }
      ],
      "stateMutability": "view",
      "type": "function"
    },
    {
      "inputs": [],
      "name": "renounceOwnership",
      "outputs": [],
      "stateMutability": "nonpayable",
      "type": "function"
    },
    {
      "inputs": [
        {
          "internalType": "address",
          "name": "from",
          "type": "address"
        },
        {
          "internalType": "address",
          "name": "to",
          "type": "address"
        },
        {
          "internalType": "uint256",
          "name": "tokenId",
          "type": "uint256"
        }
      ],
      "name": "safeTransferFrom",
      "outputs": [],
      "stateMutability": "nonpayable",
      "type": "function"
    },
    {
      "inputs": [
        {
          "internalType": "address",
          "name": "from",
          "type": "address"
        },
        {
          "internalType": "address",
          "name": "to",
          "type": "address"
        },
        {
          "internalType": "uint256",
          "name": "tokenId",
          "type": "uint256"
        },
        {
          "internalType": "bytes",
          "name": "data",
          "type": "bytes"
        }
      ],
      "name": "safeTransferFrom",
      "outputs": [],
      "stateMutability": "nonpayable",
      "type": "function"
    },
    {
      "inputs": [
        {
          "internalType": "address",
          "name": "operator",
          "type": "address"
        },
        {
          "internalType": "bool",
          "name": "approved",
          "type": "bool"
        }
      ],
      "name": "setApprovalForAll",
      "outputs": [],
      "stateMutability": "nonpayable",
      "type": "function"
    },
    {
      "inputs": [
        {
          "internalType": "bytes4",
          "name": "interfaceId",
          "type": "bytes4"
        }
      ],
      "name": "supportsInterface",
      "outputs": [
        {
          "internalType": "bool",
          "name": "",
          "type": "bool"
        }
      ],
      "stateMutability": "view",
      "type": "function"
    },
    {
      "inputs": [],
      "name": "symbol",
      "outputs": [
        {
          "internalType": "string",
          "name": "",
          "type": "string"
        }
      ],
      "stateMutability": "view",
      "type": "function"
    },
    {
      "inputs": [
        {
          "internalType": "uint256",
          "name": "tokenId",
          "type": "uint256"
        }
      ],
      "name": "tokenURI",
      "outputs": [
        {
          "internalType": "string",
          "name": "",
          "type": "string"
        }
      ],
      "stateMutability": "view",
      "type": "function"
    },
    {
      "inputs": [
        {
          "internalType": "address",
          "name": "from",
          "type": "address"
        },
        {
          "internalType": "address",
          "name": "to",
          "type": "address"
        },
        {
          "internalType": "uint256",
          "name": "tokenId",
          "type": "uint256"
        }
      ],
      "name": "transferFrom",
      "outputs": [],
      "stateMutability": "nonpayable",
      "type": "function"
    },
    {
      "inputs": [
        {
          "internalType": "address",
          "name": "newOwner",
          "type": "address"
        }
      ],
      "name": "transferOwnership",
      "outputs": [],
      "stateMutability": "nonpayable",
      "type": "function"
    },
    {
      "inputs": [],
      "name": "userList",
      "outputs": [
        {
          "internalType": "string[]",
          "name": "",
          "type": "string[]"
        }
      ],
      "stateMutability": "view",
      "type": "function"
    }
  ],
  "transactionHash": "0x0d16ec4748a28fcd95fbebc3636a619b1349a4ef42c915755ef0e3da3439c2c3",
  "args": [
    3
  ],
  "numDeployments": 1,
  "solcInputHash": "c50c95a4e10b2ea0536ecf0d8e80b960",
  "bytecode": "0x60a06040523480156200001157600080fd5b5060405162003dff38038062003dff83398181016040528101906200003791906200020f565b6040518060400160405280600f81526020017f54657374476173736c6573734e465400000000000000000000000000000000008152506040518060400160405280600381526020017f54474e00000000000000000000000000000000000000000000000000000000008152508160009081620000b49190620004bb565b508060019081620000c69190620004bb565b505050620000e9620000dd620000fe60201b60201c565b6200010660201b60201c565b8060ff1660808160ff168152505050620005a2565b600033905090565b6000600660009054906101000a900473ffffffffffffffffffffffffffffffffffffffff16905081600660006101000a81548173ffffffffffffffffffffffffffffffffffffffff021916908373ffffffffffffffffffffffffffffffffffffffff1602179055508173ffffffffffffffffffffffffffffffffffffffff168173ffffffffffffffffffffffffffffffffffffffff167f8be0079c531659141344cd1fd0a4f28419497f9722a3daafe3b4186f6b6457e060405160405180910390a35050565b600080fd5b600060ff82169050919050565b620001e981620001d1565b8114620001f557600080fd5b50565b6000815190506200020981620001de565b92915050565b600060208284031215620002285762000227620001cc565b5b60006200023884828501620001f8565b91505092915050565b600081519050919050565b7f4e487b7100000000000000000000000000000000000000000000000000000000600052604160045260246000fd5b7f4e487b7100000000000000000000000000000000000000000000000000000000600052602260045260246000fd5b60006002820490506001821680620002c357607f821691505b602082108103620002d957620002d86200027b565b5b50919050565b60008190508160005260206000209050919050565b60006020601f8301049050919050565b600082821b905092915050565b600060088302620003437fffffffffffffffffffffffffffffffffffffffffffffffffffffffffffffffff8262000304565b6200034f868362000304565b95508019841693508086168417925050509392505050565b6000819050919050565b6000819050919050565b60006200039c62000396620003908462000367565b62000371565b62000367565b9050919050565b6000819050919050565b620003b8836200037b565b620003d0620003c782620003a3565b84845462000311565b825550505050565b600090565b620003e7620003d8565b620003f4818484620003ad565b505050565b5b818110156200041c5762000410600082620003dd565b600181019050620003fa565b5050565b601f8211156200046b576200043581620002df565b6200044084620002f4565b8101602085101562000450578190505b620004686200045f85620002f4565b830182620003f9565b50505b505050565b600082821c905092915050565b6000620004906000198460080262000470565b1980831691505092915050565b6000620004ab83836200047d565b9150826002028217905092915050565b620004c68262000241565b67ffffffffffffffff811115620004e257620004e16200024c565b5b620004ee8254620002aa565b620004fb82828562000420565b600060209050601f8311600181146200053357600084156200051e578287015190505b6200052a85826200049d565b8655506200059a565b601f1984166200054386620002df565b60005b828110156200056d5784890151825560018201915060208501945060208101905062000546565b868310156200058d578489015162000589601f8916826200047d565b8355505b6001600288020188555050505b505050505050565b60805161383a620005c56000396000818161081f0152610f95015261383a6000f3fe608060405234801561001057600080fd5b506004361061012c5760003560e01c806370a08231116100ad578063b88d4fde11610071578063b88d4fde14610309578063c87b56dd14610325578063e985e9c514610355578063f0292a0314610385578063f2fde38b146103a35761012c565b806370a0823114610277578063715018a6146102a75780638da5cb5b146102b157806395d89b41146102cf578063a22cb465146102ed5761012c565b80631249c58b116100f45780631249c58b146101e957806323b872dd146101f357806342842e0e1461020f57806342966c681461022b5780636352211e146102475761012c565b806301ffc9a71461013157806306fdde0314610161578063081812fc1461017f578063095ea7b3146101af5780630e0f785f146101cb575b600080fd5b61014b60048036038101906101469190612508565b6103bf565b6040516101589190612550565b60405180910390f35b6101696104a1565b60405161017691906125fb565b60405180910390f35b61019960048036038101906101949190612653565b610533565b6040516101a691906126c1565b60405180910390f35b6101c960048036038101906101c49190612708565b610579565b005b6101d3610690565b6040516101e09190612854565b60405180910390f35b6101f161081d565b005b61020d60048036038101906102089190612876565b6109e5565b005b61022960048036038101906102249190612876565b610a45565b005b61024560048036038101906102409190612653565b610a65565b005b610261600480360381019061025c9190612653565b610bdf565b60405161026e91906126c1565b60405180910390f35b610291600480360381019061028c91906128c9565b610c65565b60405161029e9190612905565b60405180910390f35b6102af610d1c565b005b6102b9610d30565b6040516102c691906126c1565b60405180910390f35b6102d7610d5a565b6040516102e491906125fb565b60405180910390f35b6103076004803603810190610302919061294c565b610dec565b005b610323600480360381019061031e9190612ac1565b610e02565b005b61033f600480360381019061033a9190612653565b610e64565b60405161034c91906125fb565b60405180910390f35b61036f600480360381019061036a9190612b44565b610eff565b60405161037c9190612550565b60405180910390f35b61038d610f93565b60405161039a9190612ba0565b60405180910390f35b6103bd60048036038101906103b891906128c9565b610fb7565b005b60007f80ac58cd000000000000000000000000000000000000000000000000000000007bffffffffffffffffffffffffffffffffffffffffffffffffffffffff1916827bffffffffffffffffffffffffffffffffffffffffffffffffffffffff1916148061048a57507f5b5e139f000000000000000000000000000000000000000000000000000000007bffffffffffffffffffffffffffffffffffffffffffffffffffffffff1916827bffffffffffffffffffffffffffffffffffffffffffffffffffffffff1916145b8061049a57506104998261103a565b5b9050919050565b6060600080546104b090612bea565b80601f01602080910402602001604051908101604052809291908181526020018280546104dc90612bea565b80156105295780601f106104fe57610100808354040283529160200191610529565b820191906000526020600020905b81548152906001019060200180831161050c57829003601f168201915b5050505050905090565b600061053e826110a4565b6004600083815260200190815260200160002060009054906101000a900473ffffffffffffffffffffffffffffffffffffffff169050919050565b600061058482610bdf565b90508073ffffffffffffffffffffffffffffffffffffffff168373ffffffffffffffffffffffffffffffffffffffff16036105f4576040517f08c379a00000000000000000000000000000000000000000000000000000000081526004016105eb90612c8d565b60405180910390fd5b8073ffffffffffffffffffffffffffffffffffffffff166106136110ef565b73ffffffffffffffffffffffffffffffffffffffff16148061064257506106418161063c6110ef565b610eff565b5b610681576040517f08c379a000000000000000000000000000000000000000000000000000000000815260040161067890612d1f565b60405180910390fd5b61068b83836110f7565b505050565b60606000600860006106a06110ef565b73ffffffffffffffffffffffffffffffffffffffff1673ffffffffffffffffffffffffffffffffffffffff16815260200190815260200160002080548060200260200160405190810160405280929190818152602001828054801561072457602002820191906000526020600020905b815481526020019060010190808311610710575b5050505050905060008151905060008160ff1667ffffffffffffffff8111156107505761074f612996565b5b60405190808252806020026020018201604052801561078357816020015b606081526020019060019003908161076e5790505b50905060008260ff160361079c5780935050505061081a565b60005b6001836107ac9190612d6e565b60ff168160ff1611610812576107de848260ff16815181106107d1576107d0612da3565b5b6020026020010151610e64565b828260ff16815181106107f4576107f3612da3565b5b6020026020010181905250808061080a90612dd2565b91505061079f565b508093505050505b90565b7f000000000000000000000000000000000000000000000000000000000000000060ff166008600061084d6110ef565b73ffffffffffffffffffffffffffffffffffffffff1673ffffffffffffffffffffffffffffffffffffffff16815260200190815260200160002080549050106108cb576040517f08c379a00000000000000000000000000000000000000000000000000000000081526004016108c290612e6d565b60405180910390fd5b60006108d760076111b0565b90506108e360076111be565b600860006108ef6110ef565b73ffffffffffffffffffffffffffffffffffffffff1673ffffffffffffffffffffffffffffffffffffffff16815260200190815260200160002081908060018154018082558091505060019003906000526020600020016000909190919091505560016008600061095e6110ef565b73ffffffffffffffffffffffffffffffffffffffff1673ffffffffffffffffffffffffffffffffffffffff168152602001908152602001600020805490506109a69190612e8d565b6009600083815260200190815260200160002060006101000a81548160ff021916908360ff1602179055506109e26109dc6110ef565b826111d4565b50565b6109f66109f06110ef565b826111f2565b610a35576040517f08c379a0000000000000000000000000000000000000000000000000000000008152600401610a2c90612f33565b60405180910390fd5b610a40838383611287565b505050565b610a6083838360405180602001604052806000815250610e02565b505050565b6000610a7082610bdf565b90506000600860008373ffffffffffffffffffffffffffffffffffffffff1673ffffffffffffffffffffffffffffffffffffffff168152602001908152602001600020905060006009600085815260200190815260200160002060009054906101000a900460ff16905081805490508160ff1610610b23576040517f08c379a0000000000000000000000000000000000000000000000000000000008152600401610b1a90612f9f565b60405180910390fd5b60008190505b60018380549050610b3a9190612e8d565b8160ff161015610ba85782600182610b529190612fbf565b60ff1681548110610b6657610b65612da3565b5b9060005260206000200154838260ff1681548110610b8757610b86612da3565b5b90600052602060002001819055508080610ba090612dd2565b915050610b29565b5081805480610bba57610bb9612ff4565b5b60019003818190600052602060002001600090559055610bd984611580565b50505050565b600080610beb836115dc565b9050600073ffffffffffffffffffffffffffffffffffffffff168173ffffffffffffffffffffffffffffffffffffffff1603610c5c576040517f08c379a0000000000000000000000000000000000000000000000000000000008152600401610c539061306f565b60405180910390fd5b80915050919050565b60008073ffffffffffffffffffffffffffffffffffffffff168273ffffffffffffffffffffffffffffffffffffffff1603610cd5576040517f08c379a0000000000000000000000000000000000000000000000000000000008152600401610ccc90613101565b60405180910390fd5b600360008373ffffffffffffffffffffffffffffffffffffffff1673ffffffffffffffffffffffffffffffffffffffff168152602001908152602001600020549050919050565b610d24611619565b610d2e6000611697565b565b6000600660009054906101000a900473ffffffffffffffffffffffffffffffffffffffff16905090565b606060018054610d6990612bea565b80601f0160208091040260200160405190810160405280929190818152602001828054610d9590612bea565b8015610de25780601f10610db757610100808354040283529160200191610de2565b820191906000526020600020905b815481529060010190602001808311610dc557829003601f168201915b5050505050905090565b610dfe610df76110ef565b838361175d565b5050565b610e13610e0d6110ef565b836111f2565b610e52576040517f08c379a0000000000000000000000000000000000000000000000000000000008152600401610e4990612f33565b60405180910390fd5b610e5e848484846118c9565b50505050565b6060610e6f826110a4565b6000610e79611925565b90506000815111610e995760405180602001604052806000815250610ef7565b80610ed6610ea685611962565b604051602001610eb6919061315d565b6040516020818303038152906040528051906020012060001c6020611a30565b604051602001610ee79291906131c0565b6040516020818303038152906040525b915050919050565b6000600560008473ffffffffffffffffffffffffffffffffffffffff1673ffffffffffffffffffffffffffffffffffffffff16815260200190815260200160002060008373ffffffffffffffffffffffffffffffffffffffff1673ffffffffffffffffffffffffffffffffffffffff16815260200190815260200160002060009054906101000a900460ff16905092915050565b7f000000000000000000000000000000000000000000000000000000000000000081565b610fbf611619565b600073ffffffffffffffffffffffffffffffffffffffff168173ffffffffffffffffffffffffffffffffffffffff160361102e576040517f08c379a000000000000000000000000000000000000000000000000000000000815260040161102590613261565b60405180910390fd5b61103781611697565b50565b60007f01ffc9a7000000000000000000000000000000000000000000000000000000007bffffffffffffffffffffffffffffffffffffffffffffffffffffffff1916827bffffffffffffffffffffffffffffffffffffffffffffffffffffffff1916149050919050565b6110ad81611c6c565b6110ec576040517f08c379a00000000000000000000000000000000000000000000000000000000081526004016110e39061306f565b60405180910390fd5b50565b600033905090565b816004600083815260200190815260200160002060006101000a81548173ffffffffffffffffffffffffffffffffffffffff021916908373ffffffffffffffffffffffffffffffffffffffff160217905550808273ffffffffffffffffffffffffffffffffffffffff1661116a83610bdf565b73ffffffffffffffffffffffffffffffffffffffff167f8c5be1e5ebec7d5bd14f71427d1e84f3dd0314c0f7b2291e5b200ac8c7c3b92560405160405180910390a45050565b600081600001549050919050565b6001816000016000828254019250508190555050565b6111ee828260405180602001604052806000815250611cad565b5050565b6000806111fe83610bdf565b90508073ffffffffffffffffffffffffffffffffffffffff168473ffffffffffffffffffffffffffffffffffffffff161480611240575061123f8185610eff565b5b8061127e57508373ffffffffffffffffffffffffffffffffffffffff1661126684610533565b73ffffffffffffffffffffffffffffffffffffffff16145b91505092915050565b8273ffffffffffffffffffffffffffffffffffffffff166112a782610bdf565b73ffffffffffffffffffffffffffffffffffffffff16146112fd576040517f08c379a00000000000000000000000000000000000000000000000000000000081526004016112f4906132f3565b60405180910390fd5b600073ffffffffffffffffffffffffffffffffffffffff168273ffffffffffffffffffffffffffffffffffffffff160361136c576040517f08c379a000000000000000000000000000000000000000000000000000000000815260040161136390613385565b60405180910390fd5b6113798383836001611d08565b8273ffffffffffffffffffffffffffffffffffffffff1661139982610bdf565b73ffffffffffffffffffffffffffffffffffffffff16146113ef576040517f08c379a00000000000000000000000000000000000000000000000000000000081526004016113e6906132f3565b60405180910390fd5b6004600082815260200190815260200160002060006101000a81549073ffffffffffffffffffffffffffffffffffffffff02191690556001600360008573ffffffffffffffffffffffffffffffffffffffff1673ffffffffffffffffffffffffffffffffffffffff168152602001908152602001600020600082825403925050819055506001600360008473ffffffffffffffffffffffffffffffffffffffff1673ffffffffffffffffffffffffffffffffffffffff16815260200190815260200160002060008282540192505081905550816002600083815260200190815260200160002060006101000a81548173ffffffffffffffffffffffffffffffffffffffff021916908373ffffffffffffffffffffffffffffffffffffffff160217905550808273ffffffffffffffffffffffffffffffffffffffff168473ffffffffffffffffffffffffffffffffffffffff167fddf252ad1be2c89b69c2b068fc378daa952ba7f163c4a11628f55a4df523b3ef60405160405180910390a461157b8383836001611e2e565b505050565b61159161158b6110ef565b826111f2565b6115d0576040517f08c379a00000000000000000000000000000000000000000000000000000000081526004016115c790612f33565b60405180910390fd5b6115d981611e34565b50565b60006002600083815260200190815260200160002060009054906101000a900473ffffffffffffffffffffffffffffffffffffffff169050919050565b6116216110ef565b73ffffffffffffffffffffffffffffffffffffffff1661163f610d30565b73ffffffffffffffffffffffffffffffffffffffff1614611695576040517f08c379a000000000000000000000000000000000000000000000000000000000815260040161168c906133f1565b60405180910390fd5b565b6000600660009054906101000a900473ffffffffffffffffffffffffffffffffffffffff16905081600660006101000a81548173ffffffffffffffffffffffffffffffffffffffff021916908373ffffffffffffffffffffffffffffffffffffffff1602179055508173ffffffffffffffffffffffffffffffffffffffff168173ffffffffffffffffffffffffffffffffffffffff167f8be0079c531659141344cd1fd0a4f28419497f9722a3daafe3b4186f6b6457e060405160405180910390a35050565b8173ffffffffffffffffffffffffffffffffffffffff168373ffffffffffffffffffffffffffffffffffffffff16036117cb576040517f08c379a00000000000000000000000000000000000000000000000000000000081526004016117c29061345d565b60405180910390fd5b80600560008573ffffffffffffffffffffffffffffffffffffffff1673ffffffffffffffffffffffffffffffffffffffff16815260200190815260200160002060008473ffffffffffffffffffffffffffffffffffffffff1673ffffffffffffffffffffffffffffffffffffffff16815260200190815260200160002060006101000a81548160ff0219169083151502179055508173ffffffffffffffffffffffffffffffffffffffff168373ffffffffffffffffffffffffffffffffffffffff167f17307eab39ab6107e8899845ad3d59bd9653f200f220920489ca2b5937696c31836040516118bc9190612550565b60405180910390a3505050565b6118d4848484611287565b6118e084848484611f82565b61191f576040517f08c379a0000000000000000000000000000000000000000000000000000000008152600401611916906134ef565b60405180910390fd5b50505050565b60606040518060400160405280601b81526020017f68747470733a2f2f70696373756d2e70686f746f732f736565642f0000000000815250905090565b60606000600161197184612109565b01905060008167ffffffffffffffff8111156119905761198f612996565b5b6040519080825280601f01601f1916602001820160405280156119c25781602001600182028036833780820191505090505b509050600082602001820190505b600115611a25578080600190039150507f3031323334353637383961626364656600000000000000000000000000000000600a86061a8153600a8581611a1957611a1861350f565b5b049450600085036119d0575b819350505050919050565b606060006002836002611a43919061353e565b611a4d9190613580565b67ffffffffffffffff811115611a6657611a65612996565b5b6040519080825280601f01601f191660200182016040528015611a985781602001600182028036833780820191505090505b5090507f300000000000000000000000000000000000000000000000000000000000000081600081518110611ad057611acf612da3565b5b60200101907effffffffffffffffffffffffffffffffffffffffffffffffffffffffffffff1916908160001a9053507f780000000000000000000000000000000000000000000000000000000000000081600181518110611b3457611b33612da3565b5b60200101907effffffffffffffffffffffffffffffffffffffffffffffffffffffffffffff1916908160001a90535060006001846002611b74919061353e565b611b7e9190613580565b90505b6001811115611c1e577f3031323334353637383961626364656600000000000000000000000000000000600f861660108110611bc057611bbf612da3565b5b1a60f81b828281518110611bd757611bd6612da3565b5b60200101907effffffffffffffffffffffffffffffffffffffffffffffffffffffffffffff1916908160001a905350600485901c945080611c17906135b4565b9050611b81565b5060008414611c62576040517f08c379a0000000000000000000000000000000000000000000000000000000008152600401611c5990613629565b60405180910390fd5b8091505092915050565b60008073ffffffffffffffffffffffffffffffffffffffff16611c8e836115dc565b73ffffffffffffffffffffffffffffffffffffffff1614159050919050565b611cb7838361225c565b611cc46000848484611f82565b611d03576040517f08c379a0000000000000000000000000000000000000000000000000000000008152600401611cfa906134ef565b60405180910390fd5b505050565b6001811115611e2857600073ffffffffffffffffffffffffffffffffffffffff168473ffffffffffffffffffffffffffffffffffffffff1614611d9c5780600360008673ffffffffffffffffffffffffffffffffffffffff1673ffffffffffffffffffffffffffffffffffffffff1681526020019081526020016000206000828254611d949190612e8d565b925050819055505b600073ffffffffffffffffffffffffffffffffffffffff168373ffffffffffffffffffffffffffffffffffffffff1614611e275780600360008573ffffffffffffffffffffffffffffffffffffffff1673ffffffffffffffffffffffffffffffffffffffff1681526020019081526020016000206000828254611e1f9190613580565b925050819055505b5b50505050565b50505050565b6000611e3f82610bdf565b9050611e4f816000846001611d08565b611e5882610bdf565b90506004600083815260200190815260200160002060006101000a81549073ffffffffffffffffffffffffffffffffffffffff02191690556001600360008373ffffffffffffffffffffffffffffffffffffffff1673ffffffffffffffffffffffffffffffffffffffff168152602001908152602001600020600082825403925050819055506002600083815260200190815260200160002060006101000a81549073ffffffffffffffffffffffffffffffffffffffff021916905581600073ffffffffffffffffffffffffffffffffffffffff168273ffffffffffffffffffffffffffffffffffffffff167fddf252ad1be2c89b69c2b068fc378daa952ba7f163c4a11628f55a4df523b3ef60405160405180910390a4611f7e816000846001611e2e565b5050565b6000611fa38473ffffffffffffffffffffffffffffffffffffffff16612479565b156120fc578373ffffffffffffffffffffffffffffffffffffffff1663150b7a02611fcc6110ef565b8786866040518563ffffffff1660e01b8152600401611fee949392919061369e565b6020604051808303816000875af192505050801561202a57506040513d601f19601f8201168201806040525081019061202791906136ff565b60015b6120ac573d806000811461205a576040519150601f19603f3d011682016040523d82523d6000602084013e61205f565b606091505b5060008151036120a4576040517f08c379a000000000000000000000000000000000000000000000000000000000815260040161209b906134ef565b60405180910390fd5b805181602001fd5b63150b7a0260e01b7bffffffffffffffffffffffffffffffffffffffffffffffffffffffff1916817bffffffffffffffffffffffffffffffffffffffffffffffffffffffff191614915050612101565b600190505b949350505050565b600080600090507a184f03e93ff9f4daa797ed6e38ed64bf6a1f0100000000000000008310612167577a184f03e93ff9f4daa797ed6e38ed64bf6a1f010000000000000000838161215d5761215c61350f565b5b0492506040810190505b6d04ee2d6d415b85acef810000000083106121a4576d04ee2d6d415b85acef8100000000838161219a5761219961350f565b5b0492506020810190505b662386f26fc1000083106121d357662386f26fc1000083816121c9576121c861350f565b5b0492506010810190505b6305f5e10083106121fc576305f5e10083816121f2576121f161350f565b5b0492506008810190505b61271083106122215761271083816122175761221661350f565b5b0492506004810190505b60648310612244576064838161223a5761223961350f565b5b0492506002810190505b600a8310612253576001810190505b80915050919050565b600073ffffffffffffffffffffffffffffffffffffffff168273ffffffffffffffffffffffffffffffffffffffff16036122cb576040517f08c379a00000000000000000000000000000000000000000000000000000000081526004016122c290613778565b60405180910390fd5b6122d481611c6c565b15612314576040517f08c379a000000000000000000000000000000000000000000000000000000000815260040161230b906137e4565b60405180910390fd5b612322600083836001611d08565b61232b81611c6c565b1561236b576040517f08c379a0000000000000000000000000000000000000000000000000000000008152600401612362906137e4565b60405180910390fd5b6001600360008473ffffffffffffffffffffffffffffffffffffffff1673ffffffffffffffffffffffffffffffffffffffff16815260200190815260200160002060008282540192505081905550816002600083815260200190815260200160002060006101000a81548173ffffffffffffffffffffffffffffffffffffffff021916908373ffffffffffffffffffffffffffffffffffffffff160217905550808273ffffffffffffffffffffffffffffffffffffffff16600073ffffffffffffffffffffffffffffffffffffffff167fddf252ad1be2c89b69c2b068fc378daa952ba7f163c4a11628f55a4df523b3ef60405160405180910390a4612475600083836001611e2e565b5050565b6000808273ffffffffffffffffffffffffffffffffffffffff163b119050919050565b6000604051905090565b600080fd5b600080fd5b60007fffffffff0000000000000000000000000000000000000000000000000000000082169050919050565b6124e5816124b0565b81146124f057600080fd5b50565b600081359050612502816124dc565b92915050565b60006020828403121561251e5761251d6124a6565b5b600061252c848285016124f3565b91505092915050565b60008115159050919050565b61254a81612535565b82525050565b60006020820190506125656000830184612541565b92915050565b600081519050919050565b600082825260208201905092915050565b60005b838110156125a557808201518184015260208101905061258a565b60008484015250505050565b6000601f19601f8301169050919050565b60006125cd8261256b565b6125d78185612576565b93506125e7818560208601612587565b6125f0816125b1565b840191505092915050565b6000602082019050818103600083015261261581846125c2565b905092915050565b6000819050919050565b6126308161261d565b811461263b57600080fd5b50565b60008135905061264d81612627565b92915050565b600060208284031215612669576126686124a6565b5b60006126778482850161263e565b91505092915050565b600073ffffffffffffffffffffffffffffffffffffffff82169050919050565b60006126ab82612680565b9050919050565b6126bb816126a0565b82525050565b60006020820190506126d660008301846126b2565b92915050565b6126e5816126a0565b81146126f057600080fd5b50565b600081359050612702816126dc565b92915050565b6000806040838503121561271f5761271e6124a6565b5b600061272d858286016126f3565b925050602061273e8582860161263e565b9150509250929050565b600081519050919050565b600082825260208201905092915050565b6000819050602082019050919050565b600082825260208201905092915050565b60006127908261256b565b61279a8185612774565b93506127aa818560208601612587565b6127b3816125b1565b840191505092915050565b60006127ca8383612785565b905092915050565b6000602082019050919050565b60006127ea82612748565b6127f48185612753565b93508360208202850161280685612764565b8060005b85811015612842578484038952815161282385826127be565b945061282e836127d2565b925060208a0199505060018101905061280a565b50829750879550505050505092915050565b6000602082019050818103600083015261286e81846127df565b905092915050565b60008060006060848603121561288f5761288e6124a6565b5b600061289d868287016126f3565b93505060206128ae868287016126f3565b92505060406128bf8682870161263e565b9150509250925092565b6000602082840312156128df576128de6124a6565b5b60006128ed848285016126f3565b91505092915050565b6128ff8161261d565b82525050565b600060208201905061291a60008301846128f6565b92915050565b61292981612535565b811461293457600080fd5b50565b60008135905061294681612920565b92915050565b60008060408385031215612963576129626124a6565b5b6000612971858286016126f3565b925050602061298285828601612937565b9150509250929050565b600080fd5b600080fd5b7f4e487b7100000000000000000000000000000000000000000000000000000000600052604160045260246000fd5b6129ce826125b1565b810181811067ffffffffffffffff821117156129ed576129ec612996565b5b80604052505050565b6000612a0061249c565b9050612a0c82826129c5565b919050565b600067ffffffffffffffff821115612a2c57612a2b612996565b5b612a35826125b1565b9050602081019050919050565b82818337600083830152505050565b6000612a64612a5f84612a11565b6129f6565b905082815260208101848484011115612a8057612a7f612991565b5b612a8b848285612a42565b509392505050565b600082601f830112612aa857612aa761298c565b5b8135612ab8848260208601612a51565b91505092915050565b60008060008060808587031215612adb57612ada6124a6565b5b6000612ae9878288016126f3565b9450506020612afa878288016126f3565b9350506040612b0b8782880161263e565b925050606085013567ffffffffffffffff811115612b2c57612b2b6124ab565b5b612b3887828801612a93565b91505092959194509250565b60008060408385031215612b5b57612b5a6124a6565b5b6000612b69858286016126f3565b9250506020612b7a858286016126f3565b9150509250929050565b600060ff82169050919050565b612b9a81612b84565b82525050565b6000602082019050612bb56000830184612b91565b92915050565b7f4e487b7100000000000000000000000000000000000000000000000000000000600052602260045260246000fd5b60006002820490506001821680612c0257607f821691505b602082108103612c1557612c14612bbb565b5b50919050565b7f4552433732313a20617070726f76616c20746f2063757272656e74206f776e6560008201527f7200000000000000000000000000000000000000000000000000000000000000602082015250565b6000612c77602183612576565b9150612c8282612c1b565b604082019050919050565b60006020820190508181036000830152612ca681612c6a565b9050919050565b7f4552433732313a20617070726f76652063616c6c6572206973206e6f7420746f60008201527f6b656e206f776e6572206f7220617070726f76656420666f7220616c6c000000602082015250565b6000612d09603d83612576565b9150612d1482612cad565b604082019050919050565b60006020820190508181036000830152612d3881612cfc565b9050919050565b7f4e487b7100000000000000000000000000000000000000000000000000000000600052601160045260246000fd5b6000612d7982612b84565b9150612d8483612b84565b9250828203905060ff811115612d9d57612d9c612d3f565b5b92915050565b7f4e487b7100000000000000000000000000000000000000000000000000000000600052603260045260246000fd5b6000612ddd82612b84565b915060ff8203612df057612def612d3f565b5b600182019050919050565b7f54657374476173736c6573734e46543a204d617820616d6f756e74206578636560008201527f6564000000000000000000000000000000000000000000000000000000000000602082015250565b6000612e57602283612576565b9150612e6282612dfb565b604082019050919050565b60006020820190508181036000830152612e8681612e4a565b9050919050565b6000612e988261261d565b9150612ea38361261d565b9250828203905081811115612ebb57612eba612d3f565b5b92915050565b7f4552433732313a2063616c6c6572206973206e6f7420746f6b656e206f776e6560008201527f72206f7220617070726f76656400000000000000000000000000000000000000602082015250565b6000612f1d602d83612576565b9150612f2882612ec1565b604082019050919050565b60006020820190508181036000830152612f4c81612f10565b9050919050565b7f54657374476173736c6573734e46543a20496e64657820657863656564000000600082015250565b6000612f89601d83612576565b9150612f9482612f53565b602082019050919050565b60006020820190508181036000830152612fb881612f7c565b9050919050565b6000612fca82612b84565b9150612fd583612b84565b9250828201905060ff811115612fee57612fed612d3f565b5b92915050565b7f4e487b7100000000000000000000000000000000000000000000000000000000600052603160045260246000fd5b7f4552433732313a20696e76616c696420746f6b656e2049440000000000000000600082015250565b6000613059601883612576565b915061306482613023565b602082019050919050565b600060208201905081810360008301526130888161304c565b9050919050565b7f4552433732313a2061646472657373207a65726f206973206e6f74206120766160008201527f6c6964206f776e65720000000000000000000000000000000000000000000000602082015250565b60006130eb602983612576565b91506130f68261308f565b604082019050919050565b6000602082019050818103600083015261311a816130de565b9050919050565b600081905092915050565b60006131378261256b565b6131418185613121565b9350613151818560208601612587565b80840191505092915050565b6000613169828461312c565b915081905092915050565b7f2f3430302f353030000000000000000000000000000000000000000000000000600082015250565b60006131aa600883613121565b91506131b582613174565b600882019050919050565b60006131cc828561312c565b91506131d8828461312c565b91506131e38261319d565b91508190509392505050565b7f4f776e61626c653a206e6577206f776e657220697320746865207a65726f206160008201527f6464726573730000000000000000000000000000000000000000000000000000602082015250565b600061324b602683612576565b9150613256826131ef565b604082019050919050565b6000602082019050818103600083015261327a8161323e565b9050919050565b7f4552433732313a207472616e736665722066726f6d20696e636f72726563742060008201527f6f776e6572000000000000000000000000000000000000000000000000000000602082015250565b60006132dd602583612576565b91506132e882613281565b604082019050919050565b6000602082019050818103600083015261330c816132d0565b9050919050565b7f4552433732313a207472616e7366657220746f20746865207a65726f2061646460008201527f7265737300000000000000000000000000000000000000000000000000000000602082015250565b600061336f602483612576565b915061337a82613313565b604082019050919050565b6000602082019050818103600083015261339e81613362565b9050919050565b7f4f776e61626c653a2063616c6c6572206973206e6f7420746865206f776e6572600082015250565b60006133db602083612576565b91506133e6826133a5565b602082019050919050565b6000602082019050818103600083015261340a816133ce565b9050919050565b7f4552433732313a20617070726f766520746f2063616c6c657200000000000000600082015250565b6000613447601983612576565b915061345282613411565b602082019050919050565b600060208201905081810360008301526134768161343a565b9050919050565b7f4552433732313a207472616e7366657220746f206e6f6e20455243373231526560008201527f63656976657220696d706c656d656e7465720000000000000000000000000000602082015250565b60006134d9603283612576565b91506134e48261347d565b604082019050919050565b60006020820190508181036000830152613508816134cc565b9050919050565b7f4e487b7100000000000000000000000000000000000000000000000000000000600052601260045260246000fd5b60006135498261261d565b91506135548361261d565b92508282026135628161261d565b9150828204841483151761357957613578612d3f565b5b5092915050565b600061358b8261261d565b91506135968361261d565b92508282019050808211156135ae576135ad612d3f565b5b92915050565b60006135bf8261261d565b9150600082036135d2576135d1612d3f565b5b600182039050919050565b7f537472696e67733a20686578206c656e67746820696e73756666696369656e74600082015250565b6000613613602083612576565b915061361e826135dd565b602082019050919050565b6000602082019050818103600083015261364281613606565b9050919050565b600081519050919050565b600082825260208201905092915050565b600061367082613649565b61367a8185613654565b935061368a818560208601612587565b613693816125b1565b840191505092915050565b60006080820190506136b360008301876126b2565b6136c060208301866126b2565b6136cd60408301856128f6565b81810360608301526136df8184613665565b905095945050505050565b6000815190506136f9816124dc565b92915050565b600060208284031215613715576137146124a6565b5b6000613723848285016136ea565b91505092915050565b7f4552433732313a206d696e7420746f20746865207a65726f2061646472657373600082015250565b6000613762602083612576565b915061376d8261372c565b602082019050919050565b6000602082019050818103600083015261379181613755565b9050919050565b7f4552433732313a20746f6b656e20616c7265616479206d696e74656400000000600082015250565b60006137ce601c83612576565b91506137d982613798565b602082019050919050565b600060208201905081810360008301526137fd816137c1565b905091905056fea26469706673582212208a9796a3fa16e6db7ad1c9484870ad96a732969c617e1f4d53110eed068750fe64736f6c63430008110033",
  "devdoc": {
    "kind": "dev",
    "methods": {
      "approve(address,uint256)": {
        "details": "See {IERC721-approve}."
      },
      "balanceOf(address)": {
        "details": "See {IERC721-balanceOf}."
      },
      "burn(uint256)": {
        "details": "Burns `tokenId`. See {ERC721-_burn}. Requirements: - The caller must own `tokenId` or be an approved operator."
      },
      "getApproved(uint256)": {
        "details": "See {IERC721-getApproved}."
      },
      "isApprovedForAll(address,address)": {
        "details": "See {IERC721-isApprovedForAll}."
      },
      "name()": {
        "details": "See {IERC721Metadata-name}."
      },
      "owner()": {
        "details": "Returns the address of the current owner."
      },
      "ownerOf(uint256)": {
        "details": "See {IERC721-ownerOf}."
      },
      "renounceOwnership()": {
        "details": "Leaves the contract without owner. It will not be possible to call `onlyOwner` functions anymore. Can only be called by the current owner. NOTE: Renouncing ownership will leave the contract without an owner, thereby removing any functionality that is only available to the owner."
      },
      "safeTransferFrom(address,address,uint256)": {
        "details": "See {IERC721-safeTransferFrom}."
      },
      "safeTransferFrom(address,address,uint256,bytes)": {
        "details": "See {IERC721-safeTransferFrom}."
      },
      "setApprovalForAll(address,bool)": {
        "details": "See {IERC721-setApprovalForAll}."
      },
      "supportsInterface(bytes4)": {
        "details": "See {IERC165-supportsInterface}."
      },
      "symbol()": {
        "details": "See {IERC721Metadata-symbol}."
      },
      "tokenURI(uint256)": {
        "details": "See {IERC721Metadata-tokenURI}."
      },
      "transferFrom(address,address,uint256)": {
        "details": "See {IERC721-transferFrom}."
      },
      "transferOwnership(address)": {
        "details": "Transfers ownership of the contract to a new account (`newOwner`). Can only be called by the current owner."
      }
    },
    "version": 1
  },
  "userdoc": {
    "kind": "user",
    "methods": {},
    "version": 1
  },
  "storageLayout": {
    "storage": [
      {
        "astId": 138,
        "contract": "contracts/TestGasslessNFT.sol:TestGasslessNFT",
        "label": "_name",
        "offset": 0,
        "slot": "0",
        "type": "t_string_storage"
      },
      {
        "astId": 140,
        "contract": "contracts/TestGasslessNFT.sol:TestGasslessNFT",
        "label": "_symbol",
        "offset": 0,
        "slot": "1",
        "type": "t_string_storage"
      },
      {
        "astId": 144,
        "contract": "contracts/TestGasslessNFT.sol:TestGasslessNFT",
        "label": "_owners",
        "offset": 0,
        "slot": "2",
        "type": "t_mapping(t_uint256,t_address)"
      },
      {
        "astId": 148,
        "contract": "contracts/TestGasslessNFT.sol:TestGasslessNFT",
        "label": "_balances",
        "offset": 0,
        "slot": "3",
        "type": "t_mapping(t_address,t_uint256)"
      },
      {
        "astId": 152,
        "contract": "contracts/TestGasslessNFT.sol:TestGasslessNFT",
        "label": "_tokenApprovals",
        "offset": 0,
        "slot": "4",
        "type": "t_mapping(t_uint256,t_address)"
      },
      {
        "astId": 158,
        "contract": "contracts/TestGasslessNFT.sol:TestGasslessNFT",
        "label": "_operatorApprovals",
        "offset": 0,
        "slot": "5",
        "type": "t_mapping(t_address,t_mapping(t_address,t_bool))"
      },
      {
        "astId": 7,
        "contract": "contracts/TestGasslessNFT.sol:TestGasslessNFT",
        "label": "_owner",
        "offset": 0,
        "slot": "6",
        "type": "t_address"
      },
      {
        "astId": 2770,
        "contract": "contracts/TestGasslessNFT.sol:TestGasslessNFT",
        "label": "_tokenIdCounter",
        "offset": 0,
        "slot": "7",
        "type": "t_struct(Counter)1606_storage"
      },
      {
        "astId": 2775,
        "contract": "contracts/TestGasslessNFT.sol:TestGasslessNFT",
        "label": "_userIds",
        "offset": 0,
        "slot": "8",
        "type": "t_mapping(t_address,t_array(t_uint256)dyn_storage)"
      },
      {
        "astId": 2779,
        "contract": "contracts/TestGasslessNFT.sol:TestGasslessNFT",
        "label": "_userIdIndex",
        "offset": 0,
        "slot": "9",
        "type": "t_mapping(t_uint256,t_uint8)"
      }
    ],
    "types": {
      "t_address": {
        "encoding": "inplace",
        "label": "address",
        "numberOfBytes": "20"
      },
      "t_array(t_uint256)dyn_storage": {
        "base": "t_uint256",
        "encoding": "dynamic_array",
        "label": "uint256[]",
        "numberOfBytes": "32"
      },
      "t_bool": {
        "encoding": "inplace",
        "label": "bool",
        "numberOfBytes": "1"
      },
      "t_mapping(t_address,t_array(t_uint256)dyn_storage)": {
        "encoding": "mapping",
        "key": "t_address",
        "label": "mapping(address => uint256[])",
        "numberOfBytes": "32",
        "value": "t_array(t_uint256)dyn_storage"
      },
      "t_mapping(t_address,t_bool)": {
        "encoding": "mapping",
        "key": "t_address",
        "label": "mapping(address => bool)",
        "numberOfBytes": "32",
        "value": "t_bool"
      },
      "t_mapping(t_address,t_mapping(t_address,t_bool))": {
        "encoding": "mapping",
        "key": "t_address",
        "label": "mapping(address => mapping(address => bool))",
        "numberOfBytes": "32",
        "value": "t_mapping(t_address,t_bool)"
      },
      "t_mapping(t_address,t_uint256)": {
        "encoding": "mapping",
        "key": "t_address",
        "label": "mapping(address => uint256)",
        "numberOfBytes": "32",
        "value": "t_uint256"
      },
      "t_mapping(t_uint256,t_address)": {
        "encoding": "mapping",
        "key": "t_uint256",
        "label": "mapping(uint256 => address)",
        "numberOfBytes": "32",
        "value": "t_address"
      },
      "t_mapping(t_uint256,t_uint8)": {
        "encoding": "mapping",
        "key": "t_uint256",
        "label": "mapping(uint256 => uint8)",
        "numberOfBytes": "32",
        "value": "t_uint8"
      },
      "t_string_storage": {
        "encoding": "bytes",
        "label": "string",
        "numberOfBytes": "32"
      },
      "t_struct(Counter)1606_storage": {
        "encoding": "inplace",
        "label": "struct Counters.Counter",
        "members": [
          {
            "astId": 1605,
            "contract": "contracts/TestGasslessNFT.sol:TestGasslessNFT",
            "label": "_value",
            "offset": 0,
            "slot": "0",
            "type": "t_uint256"
          }
        ],
        "numberOfBytes": "32"
      },
      "t_uint256": {
        "encoding": "inplace",
        "label": "uint256",
        "numberOfBytes": "32"
      },
      "t_uint8": {
        "encoding": "inplace",
        "label": "uint8",
        "numberOfBytes": "1"
      }
    }
  }
}